:020000040800F2
:1000000000000220A11A0008C5190008CD19000837
:10001000D5190008DD190008E519000800000000E6
:10002000000000000000000000000000115800085F
:10003000ED19000800000000615A00083D34000876
:10004000F11A0008F11A0008F11A0008F11A000864
:10005000F11A0008F11A0008F11A0008F11A000854
:10006000F11A0008F11A0008F11A0008F11A000844
:10007000F11A0008F11A0008F11A0008F11A000834
:10008000F11A0008F11A0008F11A00080000000037
:10009000000000000000000000000000F11A00084D
:1000A000F11A0008F11A0008F11A0008F11A000804
:1000B000FD190008F11A0008F11A0008F11A0008E9
:1000C000F11A0008F11A0008F11A0008F11A0008E4
:1000D000F11A0008F11A0008F11A000800000000E7
:1000E000F11A0008F11A0008F11A000800000000D7
:1000F000000000000000000000000000F11A0008ED
:1001000000000000F11A0008F11A0008F11A0008B6
:1001100000000000000000000000000000000000DF
:10012000F11A0008F11A0008F11A0008F11A000883
:10013000F11A0008000000000000000000000000AC
:10014000000000000000000000000000F11A00089C
:10015000F11A0008F11A0008F11A0008F11A000853
:10016000F11A0008F11A0008000000000000000069
:10017000000000000000000000000000000000007F
:1001800000000000F11A000800000000000000005C
:08019000F11A0008F11A000841
:1001A00010B5054C237833B9044B13B10448AFF3B1
:1001B00000800123237010BDA0000020000000007B
:1001C000DC69000808B5034B1BB103490348AFF3D2
:1001D000008008BD00000000A4000020DC690008C9
:1001E000034613F8012B002AFBD1181A0138704777
:1001F00001F0FF01102A2BDB10F0070F08D010F8D8
:10020000013B013A8B422DD010F0070F42B3F6D1DB
:10021000F0B441EA012141EA014122F007047FF0F4
:1002200000070023F0E80256083C85EA010586EA4B
:10023000010685FA47F5A3FA87F586FA47F6A5FA87
:1002400087F68EB9EED1F0BC01F0FF0102F0070293
:1002500032B110F8013B013A83EA010313B1F8D13E
:100260000020704701387047002D06BF354603381F
:10027000073815F0010F07D1013015F4807F02BF58
:10028000013015F4C03F0130F0BC0138704700BFA9
:1002900053B94AB9002908BF00281CBF4FF0FF31ED
:1002A0004FF0FF3000F06AB9ADF1080C6DE904CEF3
:1002B00000F006F8DDF804E0DDE9022304B0704741
:1002C0002DE9F047089D0C46002B4ED194468C45F5
:1002D0008646B2FA82F262D94AB1C2F12003914055
:1002E00020FA03F30CFA02FC194300FA02FE4FEA6B
:1002F0001C471FFA8CF6B1FBF7F44FEA1E4307FBCD
:10030000141143EA014304FB06F199420AD91CEB9C
:10031000030304F1FF3080F01281994240F20F8113
:10032000023C6344591A1FFA8EF3B1FBF7F007FB46
:10033000101143EA014300FB06F69E420AD91CEB6A
:10034000030300F1FF3180F0FC809E4240F2F9800F
:10035000634402389B1B40EA044000211DB1D34096
:100360000022C5E90032BDE8F0878B4205D90DB106
:10037000C5E9000100210846F5E7B3FA83F1002939
:1003800046D1A34202D39042C0F0F080861A64EBBB
:1003900003030120002DE6D0C5E90063E3E7002A4E
:1003A00040F09080A1EB0C044FEA1C481FFA8CF738
:1003B0000121B4FBF8F64FEA1E4308FB164443EA5A
:1003C000044307FB06F0984208D91CEB030306F12F
:1003D000FF3402D2984200F2CD8026461C1A1FFA42
:1003E0008EF3B4FBF8F008FB104443EA044300FB2F
:1003F00007F79F4208D91CEB030300F1FF3402D238
:100400009F4200F2B0802046DB1B40EA0640A5E791
:10041000C1F120068B4022FA06F71F4320FA06FCA2
:1004200004FA01F343EA0C03F44000FA01F8380C33
:100430004FEA1349B4FBF0FE1FFA87FC00FB1E4491
:1004400049EA04440EFB0CF9A14502FA01F20AD96B
:100450003C190EF1FF3A80F08480A14540F2818082
:10046000AEF1020E3C44A4EB09041FFA83F9B4FB7D
:10047000F0F300FB134449EA044403FB0CFCA445DD
:1004800007D93C1903F1FF3067D2A44565D9023B77
:100490003C4443EA0E40A0FB0293A4EB0C049C42B4
:1004A000CE469C4651D34ED055B1B8EB0E0364EB0B
:1004B0000C0404FA06F6CB401E43CC40C5E90064A8
:1004C000002150E7C2F1200320FA03F10CFA02FCEC
:1004D00024FA03F394400C434FEA1C4800FA02FE4E
:1004E0001FFA8CF7B3FBF8F008FB1031230C43EA3A
:1004F000014300FB07F1994208D91CEB030300F10B
:10050000FF362CD299422AD9023863445B1AA4B22E
:10051000B3FBF8F108FB113344EA034401FB07F392
:10052000A34208D91CEB040401F1FF3613D2A34205
:1005300011D902396444E41A41EA004139E704461A
:10054000F0E6084606E7C845AED2B9EB020E63EB0B
:10055000070C0138A8E73146EDE7034699E7304636
:10056000D4E7D6467FE7634402384DE70646234684
:1005700008460FE7023E634430E700BF704700BF04
:1005800080B582B000AF0346FB71FB79032B00F20C
:10059000C08001A252F823F0A90500080506000852
:1005A0005F060008B90600080121614801F04AFD14
:1005B0000346002B01D14323B5E002215C4801F042
:1005C00041FD0346002B01D13723ACE004215848FC
:1005D00001F038FD0346002B01D13423A3E00821AC
:1005E000534801F02FFD0346002B01D131239AE03F
:1005F00010214F4801F026FD0346002B40F08B8070
:10060000412390E001214A4801F01CFD0346002BE4
:1006100001D1302387E00221454801F013FD034654
:10062000002B01D138237EE00421414801F00AFD6E
:100630000346002B01D1352375E008213C4801F029
:1006400001FD0346002B01D132236CE01021384814
:1006500001F0F8FC0346002B5FD1422363E0012147
:10066000334801F0EFFC0346002B01D145235AE04B
:1006700002212F4801F0E6FC0346002B01D139236B
:1006800051E004212A4801F0DDFC0346002B01D192
:10069000362348E00821264801F0D4FC0346002B0D
:1006A00001D133233FE01021214801F0CBFC034668
:1006B000002B34D1442336E001211D4801F0C2FC57
:1006C0000346002B01D154232DE00221184801F0EC
:1006D000B9FC0346002B01D1502324E00421144827
:1006E00001F0B0FC0346002B01D124231BE00821BC
:1006F0000F4801F0A7FC0346002B01D14C2312E068
:1007000010210B4801F09EFC0346002B09D1462323
:1007100009E0FF2307E000BF04E000BF02E000BFE4
:1007200000E000BFFF2318460837BD4680BD00BF6C
:100730000004024080B582B000AF002240212C4866
:1007400001F098FC01224FF46071294801F092FCFD
:100750000020FFF715FF0346FB71FB79FF2B01D04B
:10076000FB7941E000228021214801F083FC012235
:100770004FF450711E4801F07DFC0120FFF700FF8F
:100780000346FB71FB79FF2B01D0FB792CE00022A3
:100790004FF48071164801F06DFC01224FF4307166
:1007A000134801F067FC0220FFF7EAFE0346FB71E5
:1007B000FB79FF2B01D0FB7916E000224FF400718A
:1007C0000B4801F057FC01224FF4E071084801F09A
:1007D00051FC0320FFF7D4FE0346FB71FB79FF2B8E
:1007E00001D0FB7900E0FF2318460837BD4680BDE5
:1007F0000004024080B485B000AFF860B9607A6050
:10080000FB681C4A934215D8FB681B4AA2FB0323D2
:100810009A0CBB681A60FA68174BA3FB02139B0C77
:10082000164901FB03F3D31A7A681360144B0322B1
:100830001A6018E0FB68134AA2FB03235A0EBB6838
:100840001A60FA680F4BA3FB02135B0E0E4901FB03
:1008500003F3D31A0D4AA2FB03235A097B681A60DB
:10086000074B01221A6000BF1437BD465DF8047BB8
:10087000704700BFFFE0F50583DE1B4340420F00D9
:100880003C000020893BE65500E1F5051F85EB5152
:1008900080B485B000AFF860B9607A60FB68144A34
:1008A000934215D8FB68134AA2FB03239A0CBB683A
:1008B0001A60FA680F4BA3FB02139B0C0E4901FB55
:1008C00003F3D31A7A6813600C4B03221A6009E011
:1008D000BB6800221A607B6800221A60074B6FF029
:1008E0000A021A6000BF1437BD465DF8047B7047EA
:1008F000FFC99A3B83DE1B4340420F003C000020AF
:1009000080B582B000AF03F09DFF7860FFF712FF63
:100910000346FB70B14B1B78032B5AD801A252F847
:1009200023F000BF350900084F0900087B090008C3
:10093000AB090008FB78FF2B44D0A94AFB78137061
:10094000A84A7B681360A54B01221A703AE0A54BB8
:100950001B687A68D31A312B36D9A14B1B78FA78E9
:100960009A4206D19D4B02221A709F4A7B681360FF
:100970002AE09A4B00221A7026E0994B1B78FA78ED
:100980009A420AD1984B1B687A68D31AB3F5967FBE
:100990001CD3924B03221A7018E0914B1A78934B98
:1009A0001A708E4B00221A7010E08D4B1B78FA786B
:1009B0009A420DD08A4B1A788C4B1A70874B0022C2
:1009C0001A7005E000BF04E000BF02E000BF00E0D5
:1009D00000BF864B1B78FF2B00F05A81844B1B789D
:1009E000062B2AD1814B1B782F2B1CD97F4B1B78D0
:1009F000392B18D87F4B1B78052B00F246817E4B94
:100A00001A6813469B0013445B001A46774B1B7809
:100A10001344303B784A1360764B1B780133DAB2CB
:100A2000744B1A7031E1724B00221A70714B002224
:100A30001A70714B00221A6027E16C4B1B78243B23
:100A4000302B00F2098101A252F823F0C30B0008F9
:100A5000590C0008590C0008590C0008590C0008E2
:100A6000590C0008590C0008590C0008590C0008D2
:100A7000590C0008590C0008590C0008590C0008C2
:100A8000590C0008590C0008590C0008590C0008B2
:100A9000590C0008590C0008590C0008590C0008A2
:100AA000590C0008590C0008590C0008590C000892
:100AB000590C0008590C0008590C0008590C000882
:100AC000110B0008390B00085F0B0008290C000807
:100AD000850B0008410C0008590C0008590C00084F
:100AE000590C0008590C0008590C0008110C00089A
:100AF000590C0008590C0008590C0008590C000842
:100B0000590C0008590C0008590C0008AB0B0008E0
:100B100000233A4A07213A4805F056FA42F2107388
:100B2000364A0721374805F04FFA0023334A072198
:100B3000354805F049FAA8E00023304A072130483B
:100B400005F042FA314B2D4A07212E4805F03CFAB8
:100B500000232A4A07212C4805F036FA95E00023A5
:100B6000264A0721264805F02FFA0023234A0721A9
:100B7000244805F029FA0123204A0721224805F0DC
:100B800023FA82E000231D4A07211D4805F01CFAC4
:100B900000231A4A07211B4805F016FA6423174A56
:100BA0000721194805F010FA6FE0114B1B78002B54
:100BB00003D10F4B01221A7067E00D4B00221A700F
:100BC00063E00B4B1B78012B03D1094B03221A70F6
:100BD0005BE0074B00221A7057E000BFD4000020F2
:100BE00001000020BC000020C00000200000002008
:100BF000D5000020C8000020C4000020F4690008CF
:100C00001C000020230000202A000020A0860100F4
:100C1000214B1B78012B03D11F4B02221A7034E0A9
:100C20001D4B00221A7030E01B4B1B78012B03D1A7
:100C3000194B04221A7028E0174B00221A7024E086
:100C4000154B1B78012B03D1134B05221A701CE0A6
:100C5000114B00221A7018E0104B1B782F2B10D963
:100C60000E4B1B78392B0CD80B4B06221A700B4BF2
:100C70001B78303B1A460A4B1A600A4B01221A7045
:100C800002E0054B00221A7000BF044BFF221A70CD
:100C900000BF0837BD4680BDD50000200000002001
:100CA000C4000020C800002080B58CB000AF9A4B73
:100CB0001B78062B00F2198101A252F823F000BF25
:100CC000DD0C0008030D0008C70D0008290D000801
:100CD0005F0E0008850E0008AB0E000800238F4A47
:100CE00007218F4805F070F900238C4A07218D48B1
:100CF00005F06AF90023894A07218B4805F064F959
:100D000006E10023854A0721854805F05DF90023A7
:100D1000824A0721834805F057F9844B7F4A07210F
:100D2000814805F051F9F3E0814B1B68814A824903
:100D30001846FFF7ADFD804B1B6807F118007F4A8E
:100D4000072105F041F97C4B1A687D4BA3FB021388
:100D50005B0B42F2107101FB03F3D31A07F1100091
:100D6000784A082105F030F90023FB621BE007F107
:100D700010031846FFF734FA0246FB6A9A420AD972
:100D800007F11002FB6A13441978654AFB6A1344A1
:100D90000A461A7004E0624AFB6A134420221A7061
:100DA000FB6A0133FB62FB6A052BE0DD614B1B68CC
:100DB000624A07215B4805F007F9634A07215A4850
:100DC00005F002F9A4E0614B1B685A4A5A491846DB
:100DD000FFF710FD584B1B6807F10800574A072121
:100DE00005F0F2F8544B1A68554BA3FB02135B0B4A
:100DF00042F2107101FB03F3D31A3846544A08211A
:100E000005F0E2F80023BB6219E03B461846FFF705
:100E1000E7F90246BB6A9A4209D93A46BB6A1344CB
:100E200019783F4ABB6A13440A461A7004E03C4AE8
:100E3000BB6A134420221A70BB6A0133BB62BB6ACF
:100E4000052BE2DD3B4B1B683C4A0721354805F08A
:100E5000BBF8404A0721344805F0B6F858E03E4B4D
:100E60002E4A07212E4805F0AFF800232B4A072110
:100E70002C4805F0A9F80023284A07212A4805F044
:100E8000A3F845E0354B254A0721254805F09CF895
:100E90000023224A0721234805F096F800231F4A21
:100EA0000721214805F090F832E02D4B1B6807F12F
:100EB0002000224A072105F087F807F12003294A7C
:100EC0000721174805F080F80023144A0721154828
:100ED00005F07AF80023114A0721134805F074F849
:100EE000214B4FF0FF321A6012E000230B4A07211A
:100EF0000B4805F069F80023084A0721094805F066
:100F000063F80023054A0721074805F05DF800BF94
:100F100000BF3037BD4680BDD5000020F469000811
:100F20001C000020230000202A0000203F420F0068
:100F300038000020D0000020CC000020FC69000810
:100F40005917B7D1046A0008106A0008340000205D
:100F5000186A0008206A0008151605001CC806005B
:100F6000C4000020286A00083C00002080B483B040
:100F700000AF0346FB71FB792F2B07D9FB79392B87
:100F800004D8FB79303B204AD35C36E0FB794C2B0C
:100F900002D11E4B1B7830E0FB792E2B02D11B4B6C
:100FA0005B782AE0FB79542B02D1184B9B7824E024
:100FB000FB794F2B02D1154BDB781EE0FB79412BDF
:100FC00002D1124B1B7918E0FB79532B02D10F4B46
:100FD0005B7912E0FB79482B02D10C4B9B790CE03A
:100FE000FB79492B02D1094BDB7906E0FB79462BD3
:100FF00002D1064B1B7A00E0FF2318460C37BD4692
:101000005DF8047B704700BF040000201000002042
:1010100080B584B000AF78600B46FB700023FB60A6
:1010200035E0FA681346DB009B1A7A6813441846C9
:10103000FFF7D6F80346BB60FB78052B1FD8FB787B
:10104000BA689A4215DDFA681346DB009B1A7A6883
:101050001A44BB68591EFB78CB1AD35C1846FFF7BD
:1010600085FF034619460E4AFB6813440A461A7068
:101070000AE00B4AFB681344FF221A7004E0084A96
:10108000FB681344FF221A70FB680133FB60FB68A6
:10109000022BC6DD024B18461037BD4680BD00BF8F
:1010A000E400002080B584B000AF78600B46FB7090
:1010B0001346BB70FB7819467868FFF7A9FFB86044
:1010C000FB78052B20D801A252F823F0E510000888
:1010D000EB100008F1100008F7100008FD100008E0
:1010E00003110008FE23FB7311E0FD23FB730EE0E8
:1010F000FB23FB730BE0F723FB7308E0EF23FB7389
:1011000005E0DF23FB7302E0FF23FB7300BF574BB7
:101110001B68002B72DB554B1B68052B6EDCFA78C5
:10112000524B1B689A4236D1BA78514913469B00FC
:1011300013440B44FF221A70BA78BB6898784C4964
:1011400013469B0013440B44013302461A70BA78CD
:10115000474913469B0013440B440233FA7B1A7031
:10116000BB6801331B78BA7803F07F03D8B24049DB
:1011700013469B0013440B44033302461A70BA789B
:10118000BB6818783A4913469B0013440B44043358
:1011900002461A7065E0BA78354913469B0013443D
:1011A0000B44FF221A70BA78BB689878304913460E
:1011B0009B0013440B44013302461A70BA782C4941
:1011C00013469B0013440B440233FA7B1A70BA781F
:1011D000BB685878264913469B0013440B440333DD
:1011E00002461A70BA78BB681878214913469B00EA
:1011F00013440B44043302461A7032E0BA781C4997
:1012000013469B0013440B44FF221A70BA78BB6844
:101210009878174913469B0013440B440133024648
:101220001A70BA78124913469B0013440B440233D8
:10123000FA7B1A70BA78BB6858780D4913469B0040
:1012400013440B44033302461A70BA78BB6818780B
:10125000074913469B0013440B44043302461A709B
:1012600000BF00BF1037BD4680BD00BF3C0000205E
:10127000D800002080B582B000AF1D4B1B78DBB2D8
:101280000133002B03F00103B8BF5B42FB71194B24
:101290001B78DBB2FA7919461748FFF703FF72B6DD
:1012A00000BF134B1B78DBB21A4613469B00134456
:1012B000124A13440521184600F024F80C4AFB7921
:1012C000137062B600BF0B4B1B78DBB25A1C0C4B81
:1012D00083FB0231D317C91A0B465B000B445B003A
:1012E000D11ACAB2034B1A7000BF0837BD4680BD81
:1012F000E2000020D60000201C000020D8000020C2
:10130000ABAAAA2A80B584B000AF78603960002209
:101310004FF48041234800F0ADFE01228021224895
:1013200000F0A8FE0023FB6003E000BFFB68013370
:10133000FB60FB68B3F57A7FF7DB00BF1B4801F069
:10134000F5FC0346012BF9D13B689AB24FF0FF330D
:101350007968164801F0A7FB0346002B01D000F086
:10136000E5F90023BB6003E000BFBB680133BB604D
:10137000BB68B3F57A7FF7DB00BF0C4801F0D6FC01
:101380000346012BF9D101224FF48041054800F0BA
:1013900071FE00228021044800F06CFE00BF10376F
:1013A000BD4680BD0004024000080240E800002065
:1013B00080B500AF00F09EFB00F028F800F0FAF8CE
:1013C00000F08CF800F0C0F802F052F8094A002151
:1013D000094802F097F80346084A1360084A0021BA
:1013E000084802F08FF80346074A136002F064F8D9
:1013F00000BFFDE7686A0008B916000898010020E0
:101400008C6A0008F51600089C01002080B594B095
:1014100000AF07F1200330220021184604F008FE37
:1014200007F10C0300221A605A609A60DA601A61B0
:101430000023BB60274B1B6C264A43F08053136488
:10144000244B1B6C03F08053BB60BB6800237B60A4
:10145000214B1B68204A43F4404313601E4B1B681A
:1014600003F440437B607B6802233B620123FB6201
:1014700010233B630223BB630023FB6308233B640D
:1014800064237B640223BB640423FB6407F1200311
:10149000184600F009FE0346002B01D000F046F983
:1014A0000F23FB6002233B6100237B614FF48053D9
:1014B000BB610023FB6107F10C030321184601F017
:1014C0006BF80346002B01D000F030F900BF503715
:1014D000BD4680BD003802400070004080B500AFBE
:1014E000174B184A1A60164B4FF482725A60144B0D
:1014F00000229A60124B0022DA60114B00221A611E
:101500000F4B00225A610E4B4FF400729A610C4B44
:101510002022DA610A4B00221A62094B00225A6229
:10152000074B00229A62064B0A22DA62044801F055
:1015300031FA0346002B01D000F0F8F800BF80BD5F
:10154000E80000200030014080B500AF174B184A7A
:101550001A60164B4FF482725A60144B00229A6044
:10156000124B0022DA60114B00221A610F4B00224D
:101570005A610E4B4FF400729A610C4B0022DA61F3
:101580000A4B00221A62094B00225A62074B0022C2
:101590009A62064B0A22DA62044801F0FBF903461C
:1015A000002B01D000F0C2F800BF80BD4001002038
:1015B0000038004080B58AB000AF07F11403002264
:1015C0001A605A609A60DA601A6100233B61374BF7
:1015D0001B6B364A43F080031363344B1B6B03F0E1
:1015E00080033B613B690023FB60304B1B6B2F4A40
:1015F00043F0040313632D4B1B6B03F00403FB60E8
:10160000FB680023BB60294B1B6B284A43F0010396
:101610001363264B1B6B03F00103BB60BB68002305
:101620007B60224B1B6B214A43F0020313631F4B69
:101630001B6B03F002037B607B68002244F2C03125
:101640001B4800F017FD002280211A4800F012FD0F
:101650001F237B610023BB610123FB6107F114039E
:101660001946134800F06AFB44F2C0337B61012342
:10167000BB610023FB6100233B6207F114031946A1
:101680000B4800F05BFB80237B610123BB610023DF
:10169000FB6100233B6207F114031946054800F083
:1016A0004DFB00BF2837BD4680BD00BF003802405B
:1016B000000402400008024080B584B000AF7860AA
:1016C0000B4A07F1080392E803001860043319700D
:1016D000FFF7D0FD012001F0A7FF07F10803052166
:1016E0001846FFF70FFE012001F09EFF00BFEFE755
:1016F000486A000880B582B000AF7860FFF700F953
:10170000FFF7D2FA012001F08FFF00BFF6E780B5A6
:1017100082B000AF78607B681B68B3F1804F01D165
:1017200000F00AFA00BF0837BD4680BD80B400AFA4
:1017300072B600BF00BFFDE780B582B000AF0023E6
:101740007B60124B5B6C114A43F4804353640F4B34
:101750005B6C03F480437B607B6800233B600B4B36
:101760001B6C0A4A43F080531364084B1B6C03F054
:1017700080533B603B6800220F216FF0010000F0B6
:10178000B3FA00BF0837BD4680BD00BF0038024035
:1017900080B58CB000AF786007F11C0300221A609E
:1017A0005A609A60DA601A617B681B68414A93420A
:1017B0002CD10023BB61404B5B6C3F4A43F4805308
:1017C00053643D4B5B6C03F48053BB61BB690023E6
:1017D0007B61394B1B6B384A43F001031363364B73
:1017E0001B6B03F001037B617B69A023FB61022378
:1017F0003B6200237B620323BB620523FB6207F18C
:101800001C0319462D4800F099FA4FE07B681B68CD
:101810002B4A93424AD100233B61274B1B6C264A3B
:1018200043F480431364244B1B6C03F480433B61FB
:101830003B690023FB60204B1B6B1F4A43F00403F2
:1018400013631D4B1B6B03F00403FB60FB68002359
:10185000BB60194B1B6B184A43F002031363164B12
:101860001B6B03F00203BB60BB680823FB61022310
:101870003B6200237B620323BB620523FB6207F10B
:101880001C0319460F4800F059FA4FF48063FB61BE
:1018900002233B6200237B620323BB620523FB62BE
:1018A00007F11C031946084800F048FA00BF30371A
:1018B000BD4680BD003001400038024000000240BB
:1018C00000380040000802400004024080B58EB09D
:1018D00000AF78600023FB620023BB620023FB6043
:1018E000344B1B6C334A43F001031364314B1B6CC4
:1018F00003F00103FB60FB6807F1100207F114031A
:101900001146184601F014F83B6AFB62FB6A002B93
:1019100003D100F0F9FF786304E000F0F5FF03461F
:101920005B007B637B6B244AA2FB03239B0C013B84
:10193000BB62224B4FF080421A60204B40F2E732EC
:10194000DA601E4ABB6A53601C4B00221A611B4BB3
:1019500000229A60194B00229A61184801F0D0FACF
:10196000034687F8333097F83330002B1BD11348E8
:1019700001F020FB034687F8333097F83330002B13
:1019800011D11C2000F0CCF97B680F2B08D8002265
:1019900079681C2000F0A8F9094A7B68136002E00E
:1019A000012387F8333097F8333018463837BD466F
:1019B00080BD00BF0038024083DE1B43A001002031
:1019C0004400002080B400AF00BFFDE780B400AF4A
:1019D00000BFFDE780B400AF00BFFDE780B400AFFB
:1019E00000BFFDE780B400AF00BFFDE780B400AFEB
:1019F00000BFBD465DF8047B7047000080B500AFB6
:101A0000024801F039FB00BF80BD00BFA0010020EB
:101A100080B586B000AF7860144A154BD31A7B614D
:101A20007B693B61134B1B68002B02D1114B124A9F
:101A30001A60104B1A687B6813443A699A4207D2BD
:101A400004F054FB03460C221A604FF0FF3309E008
:101A5000084B1B68FB60074B1A687B681344054AF8
:101A60001360FB6818461837BD4680BD0000022091
:101A700000040000E8010020204D002080B400AFE9
:101A8000064BD3F88830054A43F47003C2F8883017
:101A900000BFBD465DF8047B704700BF00ED00E06D
:101AA000DFF834D0FFF7EAFF0C480D490D4A002358
:101AB00002E0D458C4500433C4188C42F9D30A4A03
:101AC0000A4C002301E013600432A242FBD304F06D
:101AD00013FBFFF76DFC70470000022000000020A0
:101AE000A00000200C6B0008A0000020204D00206A
:101AF000FEE7000080B500AF0E4B1B680D4A43F4B3
:101B0000007313600B4B1B680A4A43F48063136035
:101B1000084B1B68074A43F480731360032000F0EE
:101B2000D8F80F20FFF7D2FEFFF706FE0023184675
:101B300080BD00BF003C024080B400AF064B1B7864
:101B40001A46064B1B681344044A136000BFBD4687
:101B50005DF8047B704700BF48000020EC010020C6
:101B600080B400AF034B1B681846BD465DF8047B8C
:101B7000704700BFEC01002080B485B000AF7860F2
:101B80007B6803F00703FB600C4BDB68BB60BA6843
:101B90004FF6FF031340BB60FB681A02BB68134398
:101BA00043F0BF6343F40033BB60044ABB68D360B7
:101BB00000BF1437BD465DF8047B704700ED00E0C0
:101BC00080B400AF044BDB681B0A03F00703184620
:101BD000BD465DF8047B704700ED00E080B483B043
:101BE00000AF0346FB7197F90730002B0BDBFB7945
:101BF00003F01F02074997F907305B09012000FA3B
:101C000002F241F8232000BF0C37BD465DF8047B8B
:101C1000704700BF00E100E080B483B000AF03462E
:101C20003960FB7197F90730002B0ADB3B68DAB2A9
:101C30000C4997F907301201D2B20B4483F8002304
:101C40000AE03B68DAB20849FB7903F00F03043B72
:101C50001201D2B20B441A7600BF0C37BD465DF8B4
:101C6000047B704700E100E000ED00E080B489B043
:101C700000AFF860B9607A60FB6803F00703FB61AE
:101C8000FB69C3F10703042B28BF0423BB61FB6975
:101C90000433062B02D9FB69033B00E000237B6180
:101CA0004FF0FF32BB6902FA03F3DA43BB681A4014
:101CB0007B699A404FF0FF317B6901FA03F3D94306
:101CC0007B680B40134318462437BD465DF8047B00
:101CD000704780B582B000AF78607868FFF74CFF3E
:101CE00000BF0837BD4680BD80B586B000AF034653
:101CF000B9607A60FB7300237B61FFF761FF786155
:101D00007A68B9687869FFF7B1FF024697F90F3032
:101D100011461846FFF780FF00BF1837BD4680BD4B
:101D200080B582B000AF0346FB7197F907301846C3
:101D3000FFF754FF00BF0837BD4680BD80B489B0AF
:101D400000AF7860396000237B6100233B61002392
:101D5000BB610023FB6159E10122FB6902FA03F335
:101D60007B613B681B687A6913403B613A697B6918
:101D70009A4240F048813B685B6803F00303012B03
:101D800005D03B685B6803F00303022B30D17B680E
:101D90009B68BB61FB695B00032202FA03F3DB4330
:101DA000BA691340BB613B68DA68FB695B0002FA01
:101DB00003F3BA691343BB617B68BA699A607B68B5
:101DC0005B68BB610122FB6902FA03F3DB43BA697A
:101DD0001340BB613B685B681B0903F00102FB69B0
:101DE00002FA03F3BA691343BB617B68BA695A60AC
:101DF0003B685B6803F00303032B17D07B68DB6849
:101E0000BB61FB695B00032202FA03F3DB43BA699F
:101E10001340BB613B689A68FB695B0002FA03F3FD
:101E2000BA691343BB617B68BA69DA603B685B6877
:101E300003F00303022B23D1FB69DA087B68083225
:101E400053F82230BB61FB6903F007039B000F22AC
:101E500002FA03F3DB43BA691340BB613B681A69BA
:101E6000FB6903F007039B0002FA03F3BA6913430B
:101E7000BB61FB69DA087B680832B96943F8221054
:101E80007B681B68BB61FB695B00032202FA03F3FA
:101E9000DB43BA691340BB613B685B6803F0030234
:101EA000FB695B0002FA03F3BA691343BB617B6809
:101EB000BA691A603B685B6803F44033002B00F09A
:101EC000A2800023FB60574B5B6C564A43F480436F
:101ED0005364544B5B6C03F48043FB60FB68524AD1
:101EE000FB699B08023352F82330BB61FB6903F0A6
:101EF00003039B000F2202FA03F3DB43BA6913408A
:101F0000BB617B68494A934219D07B68484A934237
:101F100013D07B68474A93420DD07B68464A934270
:101F200007D07B68454A934201D1042308E0072388
:101F300006E0032304E0022302E0012300E0002383
:101F4000FA6902F0030292009340BA691343BB613D
:101F50003549FB699B080233BA6941F82320384BA5
:101F60009B68BB613B69DB43BA691340BB613B685B
:101F70005B6803F48013002B03D0BA693B691343F9
:101F8000BB612F4ABB6993602D4BDB68BB613B692A
:101F9000DB43BA691340BB613B685B6803F4001321
:101FA000002B03D0BA693B691343BB61244ABB6968
:101FB000D360234B5B68BB613B69DB43BA69134069
:101FC000BB613B685B6803F40033002B03D0BA6944
:101FD0003B691343BB611A4ABB695360184B1B68CA
:101FE000BB613B69DB43BA691340BB613B685B681B
:101FF00003F48033002B03D0BA693B691343BB6100
:102000000F4ABB691360FB690133FB61FB690F2B4E
:102010007FF6A2AE00BF00BF2437BD465DF8047B4B
:10202000704700BF00380240003801400000024005
:102030000004024000080240000C02400010024070
:10204000003C014080B485B000AF78600B467B80D7
:102050007B681A697B881340002B02D00123FB7335
:1020600001E00023FB73FB7B18461437BD465DF887
:10207000047B704780B483B000AF78600B467B80F0
:1020800013467B707B78002B03D07A887B689A613B
:1020900003E07B881A047B689A6100BF0C37BD4659
:1020A0005DF8047B7047000080B586B000AF7860B3
:1020B0007B68002B01D1012367E27B681B6803F07A
:1020C0000103002B75D0884B9B6803F00C03042B95
:1020D0000CD0854B9B6803F00C03082B12D1824B6C
:1020E0005B6803F48003B3F5800F0BD17E4B1B6854
:1020F00003F40033002B5BD07B685B68002B57D167
:10210000012342E27B685B68B3F5803F06D1764BE2
:102110001B68754A43F4803313601DE07B685B687D
:10212000B3F5A02F0CD1704B1B686F4A43F480238A
:1021300013606D4B1B686C4A43F4803313600BE0F3
:10214000694B1B68684A23F480331360664B1B6835
:10215000654A23F4802313607B685B68002B13D0EF
:10216000FFF7FEFC386108E0FFF7FAFC02463B6926
:10217000D31A642B01D9032307E25B4B1B6803F4DA
:102180000033002BF0D014E0FFF7EAFC386108E0E0
:10219000FFF7E6FC02463B69D31A642B01D90323FF
:1021A000F3E1514B1B6803F40033002BF0D100E046
:1021B00000BF7B681B6803F00203002B63D04A4B0F
:1021C0009B6803F00C03002B0BD0474B9B6803F07C
:1021D0000C03082B1CD1444B5B6803F48003002BD9
:1021E00016D1414B1B6803F00203002B05D07B681E
:1021F000DB68012B01D00123C7E13B4B1B6823F0B7
:10220000F8027B681B69DB00374913430B603AE037
:102210007B68DB68002B20D0344B01221A60FFF76B
:102220009FFC386108E0FFF79BFC02463B69D31A2C
:10223000022B01D90323A8E12B4B1B6803F00203F7
:10224000002BF0D0284B1B6823F0F8027B681B6939
:10225000DB00254913430B6015E0244B00221A6074
:10226000FFF77EFC386108E0FFF77AFC02463B6925
:10227000D31A022B01D9032387E11B4B1B6803F000
:102280000203002BF0D17B681B6803F00803002BCE
:1022900036D07B685B69002B16D0154B01221A6083
:1022A000FFF75EFC386108E0FFF75AFC02463B6925
:1022B000D31A022B01D9032367E10B4B5B6F03F0A9
:1022C0000203002BF0D01BE0094B00221A60FFF73D
:1022D00047FC38610EE0FFF743FC02463B69D31A26
:1022E000022B07D9032350E1003802400000474287
:1022F000800E4742884B5B6F03F00203002BEAD14C
:102300007B681B6803F00403002B00F09780002318
:10231000FB75814B1B6C03F08053002B0FD1002306
:10232000BB607D4B1B6C7C4A43F0805313647A4B3B
:102330001B6C03F08053BB60BB680123FB75774BBC
:102340001B6803F48073002B18D1744B1B68734A0D
:1023500043F480731360FFF703FC386108E0FFF774
:10236000FFFB02463B69D31A022B01D903230CE180
:102370006A4B1B6803F48073002BF0D07B689B686A
:10238000012B06D1644B1B6F634A43F001031367B3
:102390001CE07B689B68052B0CD15F4B1B6F5E4A72
:1023A00043F0040313675C4B1B6F5B4A43F001036C
:1023B00013670BE0584B1B6F574A23F00103136759
:1023C000554B1B6F544A23F0040313677B689B68CB
:1023D000002B15D0FFF7C4FB38610AE0FFF7C0FB04
:1023E00002463B69D31A41F28832934201D9032352
:1023F000CBE0494B1B6F03F00203002BEED014E03F
:10240000FFF7AEFB38610AE0FFF7AAFB02463B6923
:10241000D31A41F28832934201D90323B5E03E4BEF
:102420001B6F03F00203002BEED1FB7D012B05D1C6
:10243000394B1B6C384A23F0805313647B689B69CB
:10244000002B00F0A180344B9B6803F00C03082B99
:102450005CD07B689B69022B41D1314B00221A6012
:10246000FFF77EFB386108E0FFF77AFB02463B6925
:10247000D31A022B01D9032387E0274B1B6803F0F3
:102480000073002BF0D17B68DA697B681B6A1A4302
:102490007B685B6A9B011A437B689B6A5B08013B14
:1024A0001B041A437B68DB6A1B061B4913434B6002
:1024B0001B4B01221A60FFF753FB386108E0FFF75E
:1024C0004FFB02463B69D31A022B01D903235CE080
:1024D000114B1B6803F00073002BF0D054E0104B3D
:1024E00000221A60FFF73CFB386108E0FFF738FB79
:1024F00002463B69D31A022B01D9032345E0064B60
:102500001B6803F00073002BF0D13DE07B689B69F2
:10251000012B07D1012338E0003802400070004051
:10252000600047421B4B5B68FB607B689B69012B2B
:1025300028D0FB6803F480027B68DB699A4221D1D2
:10254000FB6803F03F027B681B6A9A421AD1FA6863
:1025500047F6C07313407A68526A9201934211D1D0
:10256000FB6803F440327B689B6A5B08013B1B04F9
:102570009A4207D1FB6803F070627B68DB6A1B0636
:102580009A4201D0012300E0002318461837BD46C7
:1025900080BD00BF0038024080B584B000AF7860D5
:1025A00039607B68002B01D10123CCE0684B1B68AC
:1025B00003F007033A689A420CD9654B3A68D2B2E5
:1025C0001A70634B1B6803F007033A689A4201D004
:1025D0000123B8E07B681B6803F00203002B20D0C6
:1025E0007B681B6803F00403002B05D0594B9B68E4
:1025F000584A43F4E05393607B681B6803F0080378
:10260000002B05D0534B9B68524A43F460439360C0
:10261000504B9B6823F0F0027B689B684D49134345
:102620008B607B681B6803F00103002B44D07B6840
:102630005B68012B07D1474B1B6803F40033002B69
:1026400019D101237FE07B685B68022B03D07B6894
:102650005B68032B07D13F4B1B6803F00073002B13
:1026600009D101236FE03B4B1B6803F00203002BF1
:1026700001D1012367E0374B9B6823F003027B689D
:102680005B68344913438B60FFF76AFAF8600AE02D
:10269000FFF766FA0246FB68D31A41F2883293428A
:1026A00001D903234FE02B4B9B6803F00C027B689E
:1026B0005B689B009A42EBD1254B1B6803F0070334
:1026C0003A689A420CD2224B3A68D2B21A70204B26
:1026D0001B6803F007033A689A4201D0012332E0F5
:1026E0007B681B6803F00403002B08D0194B9B6820
:1026F00023F4E0527B68DB68164913438B607B68E8
:102700001B6803F00803002B09D0124B9B6823F4CD
:1027100060427B681B69DB000E4913438B6000F04D
:1027200021F802460B4B9B681B0903F00F030A4973
:10273000CB5C22FA03F3094A1360094B1B68184665
:10274000FFF7C4F8002318461037BD4680BD00BF10
:10275000003C024000380240B06A000840000020FF
:10276000440000202DE9B04F90B000AF00237B6300
:102770000023FB6300233B630023BB63594B9B682F
:1027800003F00C03082B0DD0082B00F2A180002BC6
:1027900002D0042B03D09BE0534BBB639BE0534B15
:1027A000BB6398E04F4B5B6803F03F037B634D4B8B
:1027B0005B6803F48003002B28D04A4B5B689B09BD
:1027C00000223B627A623B6AC3F308000021474B58
:1027D00003FB01F2002300FB03F31344434AA0FB75
:1027E0000212FA620A46BA62FA6A1344FB627B6B0F
:1027F0000022BB61FA61D7E90623D7E90A01FDF798
:1028000047FD02460B461346FB6353E0354B5B68BE
:102810009B0900223B617A613B69C3F3080A4FF0D0
:10282000000B52465B464FF000004FF0000159018B
:1028300041EAD261500102460B46B2EB0A0863EB53
:102840000B094FF000024FF000034FEA891343EAEF
:1028500098634FEA8812B2EB080463EB09054FF066
:1028600000024FF00003EB0043EA5473E200144609
:102870001D4614EB0A033B6045EB0B037B604FF0F6
:1028800000024FF00003D7E9004529468B0221469C
:1028900043EA915321468A02104619467B6B002277
:1028A000BB60FA60D7E90223FDF7F2FC02460B4653
:1028B0001346FB630B4B5B681B0C03F003030133F4
:1028C0005B003B63FA6B3B6BB2FBF3F3BB6302E071
:1028D000054BBB6300BFBB6B18464037BD46BDE828
:1028E000B08F00BF003802400024F40040787D0122
:1028F00080B400AF034B1B681846BD465DF8047BEF
:10290000704700BF4000002080B500AFFFF7F0FF28
:102910000246054B9B689B0A03F007030349CB5C07
:1029200022FA03F3184680BD00380240C06A00084E
:1029300080B483B000AF786039607B680F221A6082
:10294000124B9B6803F003027B685A600F4B9B6835
:1029500003F0F0027B689A600C4B9B6803F4E05232
:102960007B68DA60094B9B68DB0803F4E0527B6804
:102970001A61074B1B6803F007023B681A6000BF2F
:102980000C37BD465DF8047B704700BF003802403D
:10299000003C024080B582B000AF78607B68002BBD
:1029A00001D101237BE07B685B6A002B08D17B6847
:1029B0005B68B3F5827F09D07B680022DA6105E0AD
:1029C0007B6800221A617B6800225A617B680022C2
:1029D0009A627B6893F85130DBB2002B06D17B689A
:1029E000002283F850207868FEF7D2FE7B6802222E
:1029F00083F851207B681B681A687B681B6822F08B
:102A000040021A607B685B6803F482727B689B6893
:102A100003F404431A437B68DB6803F400631A433E
:102A20007B681B6903F002031A437B685B6903F050
:102A300001031A437B689B6903F400731A437B68A4
:102A4000DB6903F038031A437B681B6A03F08003D9
:102A500042EA03017B689B6A03F400527B681B68AF
:102A60000A431A607B689B691B0C03F004017B68B6
:102A70005B6A03F010027B681B680A435A607B683C
:102A80001B68DA697B681B6822F40062DA617B6884
:102A900000225A657B68012283F8512000231846E2
:102AA0000837BD4680BD80B588B000AFF860B9601A
:102AB0003B601346FB800023FB77FB6893F85030A4
:102AC000012B01D102232DE1FB68012283F8502064
:102AD000FFF746F8B861FB88FB82FB6893F851303A
:102AE000DBB2012B02D00223FB7716E1BB68002B7F
:102AF00002D0FB88002B02D10123FB770DE1FB689C
:102B0000032283F85120FB6800225A65FB68BA68EB
:102B10001A63FB68FA889A86FB68FA88DA86FB688B
:102B200000229A63FB6800229A87FB680022DA87FA
:102B3000FB6800225A64FB6800221A64FB689B68E9
:102B4000B3F5004F0FD1FB681B681A68FB681B6860
:102B500022F040021A60FB681B681A68FB681B6859
:102B600042F480421A60FB681B681B6803F0400354
:102B7000402B07D0FB681B681A68FB681B6842F093
:102B800040021A60FB68DB68B3F5006F4FD1FB6849
:102B90005B68002B02D0FB8A012B42D1FB681B6BC8
:102BA0001A88FB681B68DA60FB681B6B9A1CFB6861
:102BB0001A63FB68DB8E9BB2013B9AB2FB68DA8634
:102BC0002FE0FB681B689B6803F00203022B12D105
:102BD000FB681B6B1A88FB681B68DA60FB681B6B61
:102BE0009A1CFB681A63FB68DB8E9BB2013B9AB2AE
:102BF000FB68DA8615E0FEF7B3FF0246BB69D31A1D
:102C00003A689A4203D83B68B3F1FF3F02D13B6870
:102C1000002B06D10323FB77FB68012283F85120A8
:102C20007BE0FB68DB8E9BB2002BCAD150E0FB68D7
:102C30005B68002B02D0FB8A012B44D1FB681A6B26
:102C4000FB681B680C3312781A70FB681B6B5A1CEC
:102C5000FB681A63FB68DB8E9BB2013B9AB2FB6890
:102C6000DA8630E0FB681B689B6803F00203022BE6
:102C700013D1FB681A6BFB681B680C3312781A704F
:102C8000FB681B6B5A1CFB681A63FB68DB8E9BB2EC
:102C9000013B9AB2FB68DA8615E0FEF761FF024657
:102CA000BB69D31A3A689A4203D83B68B3F1FF3F35
:102CB00002D13B68002B06D10323FB77FB6801227E
:102CC00083F8512029E0FB68DB8E9BB2002BC9D131
:102CD000BA693968F86800F0BFF80346002B02D0E3
:102CE000FB6820225A65FB689B68002B0AD10023F1
:102CF0003B61FB681B68DB683B61FB681B689B688A
:102D00003B613B69FB685B6D002B02D00123FB77C5
:102D100003E0FB68012283F85120FB68002283F85E
:102D20005020FB7F18462037BD4680BD80B483B05D
:102D300000AF78607B6893F85130DBB218460C37EF
:102D4000BD465DF8047B704780B588B000AFF86081
:102D5000B9603B601346FB71FEF702FF0246BB6A97
:102D60009B1A3A681344FB61FEF7FAFEB861394BCF
:102D70001B685B011B0DFA6902FB03F37B6154E0E6
:102D80003B68B3F1FF3F50D0FEF7EAFE0246BB6955
:102D9000D31AFA699A4202D9FB69002B3DD1FB682C
:102DA0001B685A68FB681B6822F0E0025A60FB68E7
:102DB0005B68B3F5827F11D1FB689B68B3F5004F68
:102DC00004D0FB689B68B3F5806F07D1FB681B6874
:102DD0001A68FB681B6822F040021A60FB689B6A55
:102DE000B3F5005F0FD1FB681B681A68FB681B68AE
:102DF00022F400521A60FB681B681A68FB681B68A3
:102E000042F400521A60FB68012283F85120FB68EB
:102E1000002283F85020032317E07B69002B01D1A7
:102E20000023FB617B69013B7B61FB681B689A683F
:102E3000BB681340BA689A420CBF01230023DBB27F
:102E40001A46FB799A429BD1002318462037BD468B
:102E500080BD00BF4000002080B588B002AFF860A0
:102E6000B9607A607B680093BB6801220221F86830
:102E7000FFF76AFF0346002B07D0FB685B6D43F04A
:102E80002002FB685A65032332E01B4B1B681B4A78
:102E9000A2FB03235B0D4FF47A7202FB03F37B6109
:102EA000FB685B68B3F5827F12D17B680093BB68D7
:102EB00000228021F868FFF747FF0346002B16D059
:102EC000FB685B6D43F02002FB685A6503230FE04B
:102ED0007B69002B0AD07B69013B7B61FB681B6827
:102EE0009B6803F08003802BF2D000E000BF00233A
:102EF00018461837BD4680BD40000020819F5E16F1
:102F000080B582B000AF78607B68002B01D10123CF
:102F100041E07B6893F83D30DBB2002B06D17B6843
:102F2000002283F83C20786800F039F87B680222A0
:102F300083F83D207B681A687B6804331946104685
:102F400000F0B2F97B68012283F846207B680122F9
:102F500083F83E207B68012283F83F207B680122B2
:102F600083F840207B68012283F841207B6801229E
:102F700083F842207B68012283F843207B6801228A
:102F800083F844207B68012283F845207B68012276
:102F900083F83D20002318460837BD4680BD80B425
:102FA00083B000AF786000BF0C37BD465DF8047B8E
:102FB0007047000080B485B000AF78607B6893F8FC
:102FC0003D30DBB2012B01D0012344E07B680222BB
:102FD00083F83D207B681B68DA687B681B6842F0D9
:102FE0000102DA607B681B681E4A934218D07B6836
:102FF0001B68B3F1804F13D07B681B681A4A934259
:103000000ED07B681B68194A934209D07B681B6805
:10301000174A934204D07B681B68164A934211D129
:103020007B681B689B6803F00703FB60FB68062B4B
:1030300010D07B681B681A687B681B6842F001022D
:103040001A6007E07B681B681A687B681B6842F09F
:1030500001021A60002318461437BD465DF8047B50
:10306000704700BF0000014000040040000800401D
:10307000000C00400040014080B584B000AF786093
:103080007B681B68DB68FB607B681B681B69BB6037
:10309000BB6803F00203002B20D0FB6803F002039F
:1030A000002B1BD07B681B686FF002021A617B68E3
:1030B00001221A777B681B689B6903F00303002BCE
:1030C00003D0786800F0D2F805E0786800F0C4F822
:1030D000786800F0D5F87B6800221A77BB6803F0A7
:1030E0000403002B20D0FB6803F00403002B1BD04B
:1030F0007B681B686FF004021A617B6802221A77F2
:103100007B681B689B6903F44073002B03D07868CD
:1031100000F0ACF805E0786800F09EF8786800F000
:10312000AFF87B6800221A77BB6803F00803002B16
:1031300020D0FB6803F00803002B1BD07B681B68C2
:103140006FF008021A617B6804221A777B681B689B
:10315000DB6903F00303002B03D0786800F086F8E6
:1031600005E0786800F078F8786800F089F87B6806
:1031700000221A77BB6803F01003002B20D0FB68F5
:1031800003F01003002B1BD07B681B686FF010024C
:103190001A617B6808221A777B681B68DB6903F475
:1031A0004073002B03D0786800F060F805E0786881
:1031B00000F052F8786800F063F87B6800221A7714
:1031C000BB6803F00103002B0CD0FB6803F0010384
:1031D000002B07D07B681B686FF001021A617868CA
:1031E000FEF795FABB6803F08003002B0CD0FB6858
:1031F00003F08003002B07D07B681B686FF0800210
:103200001A61786800F0E6F8BB6803F04003002B11
:103210000CD0FB6803F04003002B07D07B681B68D1
:103220006FF040021A61786800F034F8BB6803F070
:103230002003002B0CD0FB6803F02003002B07D0E9
:103240007B681B686FF020021A61786800F0B8F89C
:1032500000BF1037BD4680BD80B483B000AF78603A
:1032600000BF0C37BD465DF8047B704780B483B067
:1032700000AF786000BF0C37BD465DF8047B704737
:1032800080B483B000AF786000BF0C37BD465DF8F6
:10329000047B704780B483B000AF786000BF0C3708
:1032A000BD465DF8047B704780B485B000AF7860A0
:1032B00039607B681B68FB607B683A4A93420FD099
:1032C0007B68B3F1804F0BD07B68374A934207D0BD
:1032D0007B68364A934203D07B68354A934208D1D3
:1032E000FB6823F07003FB603B685B68FA6813437C
:1032F000FB607B682B4A93421BD07B68B3F1804F05
:1033000017D07B68284A934213D07B68274A9342A0
:103310000FD07B68264A93420BD07B68254A9342A4
:1033200007D07B68244A934203D07B68234A9342A8
:1033300008D1FB6823F44073FB603B68DB68FA68E4
:103340001343FB60FB6823F080023B685B69134317
:10335000FB607B68FA681A603B689A687B68DA628F
:103360003B681A687B689A627B680E4A934203D175
:103370003B681A697B681A637B6801225A617B6823
:103380001B6903F00103012B05D17B681B6923F046
:1033900001027B681A6100BF1437BD465DF8047BEB
:1033A000704700BF000001400004004000080040DA
:1033B000000C004000400140004401400048014032
:1033C00080B483B000AF786000BF0C37BD465DF8B5
:1033D000047B704780B483B000AF786000BF0C37C7
:1033E000BD465DF8047B704780B483B000AF0346F0
:1033F0003960FB7197F90730002B0ADB3B68DAB2C2
:103400000C4997F907301201D2B20B4483F800231C
:103410000AE03B68DAB20849FB7903F00F03043B8A
:103420001201D2B20B441A7600BF0C37BD465DF8CC
:10343000047B704700E100E000ED00E080B500AFE4
:10344000054B1B6801F046FD0346012B01D002F03D
:103450003BFB00BF80BD00BF10E000E080B500AFC7
:1034600000216FF00400FFF7BFFF00BF80BD000028
:1034700080B483B000AFEFF305833B603B68002B63
:1034800003D06FF005037B600CE00A4B1B68002B38
:1034900005D1084B01221A6000237B6002E04FF047
:1034A000FF337B607B6818460C37BD465DF8047BB4
:1034B000704700BFF001002080B582B000AFEFF38D
:1034C00005833B603B68002B03D06FF005037B60F6
:1034D00010E00B4B1B68012B09D1FFF7BFFF084B16
:1034E00002221A6001F092F800237B6002E04FF0A4
:1034F000FF337B607B6818460837BD4680BD00BF40
:10350000F001002080B58EB004AFF860B9607A6039
:1035100000233B61EFF305837B617B69002B7ED148
:10352000FB68002B7BD080233B621823FB610023C8
:103530007B624FF0FF33BB617B68002B45D07B681B
:103540001B68002B02D07B681B687B627B689B69D1
:10355000002B02D07B689B69FB61FB69002B08D0C4
:10356000FB69382B05D87B685B6803F00103002BEF
:1035700001D0002354E07B685B69002B03D07B689B
:103580005B699B083B627B689B68002B0ED07B6865
:10359000DB68A72B0AD97B681B69002B06D07B68E8
:1035A0005B69002B02D00123BB6110E07B689B6844
:1035B000002B0CD17B68DB68002B08D17B681B6972
:1035C000002B04D10023BB6101E00023BB61BB6978
:1035D000012B10D17B681B697A6892680292019373
:1035E000FB690093BB683A6A796AF86800F01AFED2
:1035F00003463B6113E0BB69002B10D13B6A9AB2D2
:1036000007F110030193FB690093BB68796AF868BE
:1036100000F068FE0346012B01D000233B613B69AB
:1036200018462837BD4680BD80B584B000AF7860AD
:10363000EFF30583BB60BB68002B03D06FF005037D
:10364000FB6007E00023FB607B68002B02D07868FA
:1036500000F0A6FFFB6818461037BD4680BD00008D
:1036600080B485B000AFF860B9607A60FB68074A43
:103670001A60BB68064A1A607B6880221A6000BF25
:103680001437BD465DF8047B704700BFF40100208D
:103690009C02002080B485B000AFF860B9607A6009
:1036A000FB68074A1A60BB68064A1A607B684FF4D9
:1036B00080721A6000BF1437BD465DF8047B704706
:1036C0009C0400204405002080B483B000AF7860E3
:1036D0007B6803F108027B685A607B684FF0FF3219
:1036E0009A607B6803F108027B68DA607B6803F10B
:1036F00008027B681A617B6800221A6000BF0C37E1
:10370000BD465DF8047B704780B483B000AF78603D
:103710007B6800221A6100BF0C37BD465DF8047B50
:10372000704780B485B000AF786039607B685B68B3
:10373000FB603B68FA685A60FB689A683B689A606D
:10374000FB689B683A685A60FB683A689A603B6815
:103750007A681A617B681B685A1C7B681A6000BF14
:103760001437BD465DF8047B704780B485B000AF68
:10377000786039603B681B68BB60BB68B3F1FF3F92
:1037800003D17B681B69FB600CE07B680833FB603E
:1037900002E0FB685B68FB60FB685B681B68BA68FB
:1037A0009A42F6D2FB685A683B685A603B685B688D
:1037B0003A689A603B68FA689A60FB683A685A60AF
:1037C0003B687A681A617B681B685A1C7B681A60C0
:1037D00000BF1437BD465DF8047B704780B485B0E8
:1037E00000AF78607B681B69FB607B685B687A6808
:1037F00092689A607B689B687A6852685A60FB6836
:103800005B687A689A4203D17B689A68FB685A6061
:103810007B6800221A61FB681B685A1EFB681A60ED
:10382000FB681B6818461437BD465DF8047B70477B
:1038300080B584B000AF786039607B68FB60FB685E
:10384000002B0BD14FF0500383F31188BFF36F8F20
:10385000BFF34F8FBB6000BF00BFFDE702F0A4F8CD
:10386000FB681A68FB68DB6BF968096C01FB03F302
:103870001A44FB689A60FB6800229A63FB681A6826
:10388000FB685A60FB681A68FB68DB6B013BF968F0
:10389000096C01FB03F31A44FB68DA60FB68FF2242
:1038A00083F84420FB68FF2283F845203B68002B07
:1038B00014D1FB681B69002B1AD0FB681033184623
:1038C00001F042F90346002B12D00D4B4FF080520D
:1038D0001A60BFF34F8FBFF36F8F09E0FB6810339F
:1038E0001846FFF7F1FEFB6824331846FFF7ECFE9D
:1038F00002F08CF8012318461037BD4680BD00BF8A
:1039000004ED00E080B58EB002AFF860B9607A6077
:103910003B60FB68002B0BD14FF0500383F3118801
:10392000BFF36F8FBFF34F8FBB6200BF00BFFDE7D8
:103930003B68002B0BD14FF0500383F31188BFF38A
:103940006F8FBFF34F8F7B6200BF00BFFDE77B68C7
:10395000002B02D0BB68002B01D0012300E0002324
:10396000002B0BD14FF0500383F31188BFF36F8FFF
:10397000BFF34F8F3B6200BF00BFFDE77B68002BAA
:1039800002D1BB68002B01D1012300E00023002BF2
:103990000BD14FF0500383F31188BFF36F8FBFF348
:1039A0004F8FFB6100BF00BFFDE750237B617B6948
:1039B000502B0BD04FF0500383F31188BFF36F8F60
:1039C000BFF34F8FBB6100BF00BFFDE77B693B6862
:1039D000FB62FB6A002B0DD0FB6A012283F84620B4
:1039E00097F83820FB6A009313467A68B968F8683C
:1039F00000F005F8FB6A18463037BD4680BD80B53B
:103A000084B000AFF860B9607A60FB70BB68002BCF
:103A100003D1BB69BA691A6002E0BB697A681A60AF
:103A2000BB69FA68DA63BB69BA681A640121B869CC
:103A3000FFF7FEFEBB69FA7883F84C2000BF103711
:103A4000BD4680BD80B58EB000AFF860B9607A60C9
:103A50003B6000237B63FB683B633B6B002B0BD11C
:103A60004FF0500383F31188BFF36F8FBFF34F8F75
:103A7000BB6200BF00BFFDE7BB68002B03D13B6BFF
:103A80001B6C002B01D1012300E00023002B0BD184
:103A90004FF0500383F31188BFF36F8FBFF34F8F45
:103AA0007B6200BF00BFFDE73B68022B03D13B6B8D
:103AB000DB6B012B01D1012300E00023002B0BD194
:103AC0004FF0500383F31188BFF36F8FBFF34F8F15
:103AD0003B6200BF00BFFDE701F0FCF90346002B8D
:103AE00002D17B68002B01D1012300E00023002BD1
:103AF0000BD14FF0500383F31188BFF36F8FBFF3E7
:103B00004F8FFB6100BF00BFFDE701F04DFF3B6B36
:103B10009A6B3B6BDB6B9A4202D33B68022B29D139
:103B20003A68B968386B00F00FFAF8623B6B5B6A71
:103B3000002B10D03B6B2433184601F005F80346E8
:103B4000002B13D03F4B4FF080521A60BFF34F8FC2
:103B5000BFF36F8F0AE0FB6A002B07D0394B4FF0A1
:103B600080521A60BFF34F8FBFF36F8F01F04EFF8B
:103B7000012363E07B68002B03D101F047FF0023A2
:103B80005CE07B6B002B06D107F11403184601F0B3
:103B90003FF801237B6301F039FF00F0A7FD01F03E
:103BA00003FF3B6B93F844305BB2B3F1FF3F03D1AB
:103BB0003B6B002283F844203B6B93F845305BB2AB
:103BC000B3F1FF3F03D13B6B002283F8452001F0A6
:103BD0001DFF3A1D07F114031146184601F02EF897
:103BE0000346002B24D1386B00F0A6FA0346002BC5
:103BF00018D03B6B10337A681146184600F052FF1C
:103C0000386B00F031FA00F07FFD0346002B7FF4A3
:103C10007CAF0C4B4FF080521A60BFF34F8FBFF355
:103C20006F8F72E7386B00F01FFA00F06DFD6CE7E4
:103C3000386B00F019FA00F067FD0023184638379A
:103C4000BD4680BD04ED00E080B590B000AFF860E7
:103C5000B9607A603B60FB68BB63BB6B002B0BD128
:103C60004FF0500383F31188BFF36F8FBFF34F8F73
:103C7000BB6200BF00BFFDE7BB68002B03D1BB6B7D
:103C80001B6C002B01D1012300E00023002B0BD182
:103C90004FF0500383F31188BFF36F8FBFF34F8F43
:103CA0007B6200BF00BFFDE73B68022B03D1BB6B0B
:103CB000DB6B012B01D1012300E00023002B0BD192
:103CC0004FF0500383F31188BFF36F8FBFF34F8F13
:103CD0003B6200BF00BFFDE701F046FFEFF311823A
:103CE0004FF0500383F31188BFF36F8FBFF34F8FF3
:103CF000FA61BB61FB697B63BB6B9A6BBB6BDB6B74
:103D00009A4202D33B68022B2FD1BB6B93F845300C
:103D100087F83330BB6B9B6BFB623A68B968B86B52
:103D200000F012F997F93330B3F1FF3F12D1BB6BBA
:103D30005B6A002B16D0BB6B2433184600F004FFDF
:103D40000346002B0ED07B68002B0BD07B68012232
:103D50001A6007E097F833300133DBB25AB2BB6B1D
:103D600083F845200123FB6301E00023FB637B6BA9
:103D70007B617B6983F3118800BFFB6B184640377A
:103D8000BD4680BD80B58CB000AFF860B9607A6088
:103D90000023FB62FB68BB62BB6A002B0BD14FF0B8
:103DA000500383F31188BFF36F8FBFF34F8F3B62D4
:103DB00000BF00BFFDE7BB68002B03D1BB6A1B6CD3
:103DC000002B01D1012300E00023002B0BD14FF089
:103DD000500383F31188BFF36F8FBFF34F8FFB61E5
:103DE00000BF00BFFDE701F075F80346002B02D1CC
:103DF0007B68002B01D1012300E00023002B0BD1B5
:103E00004FF0500383F31188BFF36F8FBFF34F8FD1
:103E1000BB6100BF00BFFDE701F0C6FDBB6A9B6B45
:103E20007B627B6A002B1FD0B968B86A00F0F6F895
:103E30007B6A5A1EBB6A9A63BB6A1B69002B0FD050
:103E4000BB6A1033184600F07FFE0346002B07D0F4
:103E50003C4B4FF080521A60BFF34F8FBFF36F8F10
:103E600001F0D4FD012369E07B68002B03D101F050
:103E7000CDFD002362E0FB6A002B06D107F11003A1
:103E8000184600F0C5FE0123FB6201F0BFFD00F003
:103E90002DFC01F089FDBB6A93F844305BB2B3F1AD
:103EA000FF3F03D1BB6A002283F84420BB6A93F82A
:103EB00045305BB2B3F1FF3F03D1BB6A002283F808
:103EC000452001F0A3FD3A1D07F1100311461846E5
:103ED00000F0B4FE0346002B23D1B86A00F016F9B7
:103EE0000346002B17D0BB6A24337A681146184664
:103EF00000F0D8FDB86A00F0B7F800F005FC034602
:103F0000002B89D10F4B4FF080521A60BFF34F8FB7
:103F1000BFF36F8F80E7B86A00F0A6F800F0F4FBFB
:103F20007AE7B86A00F0A0F800F0EEFBB86A00F09B
:103F3000EDF80346002B3FF46FAF002318463037EF
:103F4000BD4680BD04ED00E080B586B000AFF860EE
:103F5000B9607A6000237B61FB689B6B3B61FB6807
:103F60001B6C002B0DD1FB681B68002B4DD1FB682F
:103F70009B68184600F0CCFF7861FB6800229A60CD
:103F800043E07B68002B19D1FB685868FB681B6C09
:103F90001A46B96802F0D6F8FB685A68FB681B6CD1
:103FA0001A44FB685A60FB685A68FB689B689A422F
:103FB0002BD3FB681A68FB685A6026E0FB68D86858
:103FC000FB681B6C1A46B96802F0BCF8FB68DA683B
:103FD000FB681B6C5B421A44FB68DA60FB68DA68BA
:103FE000FB681B689A4207D2FB689A68FB681B6CE7
:103FF0005B421A44FB68DA607B68022B05D13B699F
:10400000002B02D03B69013B3B613B695A1CFB68BA
:104010009A637B6918461837BD4680BD80B582B06B
:1040200000AF786039607B681B6C002B18D07B6810
:10403000DA687B681B6C1A447B68DA607B68DA6834
:104040007B689B689A4203D37B681A687B68DA6056
:104050007B68D9687B681B6C1A46386802F072F876
:1040600000BF0837BD4680BD80B584B000AF786022
:1040700001F09AFC7B6893F84530FB7311E07B6894
:104080005B6A002B12D07B682433184600F05CFD7D
:104090000346002B01D000F035FEFB7B013BDBB279
:1040A000FB7397F90F30002BE9DC00E000BF7B6861
:1040B000FF2283F8452001F0A9FC01F075FC7B6824
:1040C00093F84430BB7311E07B681B69002B12D05E
:1040D0007B681033184600F037FD0346002B01D0F3
:1040E00000F010FEBB7B013BDBB2BB7397F90E30D7
:1040F000002BE9DC00E000BF7B68FF2283F844204E
:1041000001F084FC00BF1037BD4680BD80B584B08F
:1041100000AF786001F048FC7B689B6B002B02D1FC
:104120000123FB6001E00023FB6001F06FFCFB68F2
:1041300018461037BD4680BD80B584B000AF7860AA
:1041400001F032FC7B689A6B7B68DB6B9A4202D190
:104150000123FB6001E00023FB6001F057FCFB68DA
:1041600018461037BD4680BD80B485B000AF78607A
:1041700039600023FB6014E00F4AFB6852F83330CB
:10418000002B0BD10C49FB683A6841F833200A4AEE
:10419000FB68DB0013447A685A6006E0FB68013371
:1041A000FB60FB68072BE7D900BF00BF1437BD4693
:1041B0005DF8047B704700BF4409002080B586B0DD
:1041C00000AFF860B9607A60FB687B6101F0ECFBDE
:1041D0007B6993F844305BB2B3F1FF3F03D17B6955
:1041E000002283F844207B6993F845305BB2B3F139
:1041F000FF3F03D17B69002283F8452001F006FCD4
:104200007B699B6B002B06D17B6924337A68B96884
:10421000184600F06DFC7869FFF726FF00BF1837DD
:10422000BD4680BD80B58EB004AFF860B9607A60DD
:104230003B607B6B002B0BD14FF0500383F3118855
:10424000BFF36F8FBFF34F8F3B6200BF00BFFDE72F
:10425000BB6B002B0BD14FF0500383F31188BFF3DE
:104260006F8FBFF34F8FFB6100BF00BFFDE7A82337
:104270003B613B69A82B0BD04FF0500383F31188AF
:10428000BFF36F8FBFF34F8FBB6100BF00BFFDE770
:104290003B69BB6B002B1ED07B6B002B1BD0BB6B19
:1042A0007B627B6A7A6B1A637B6A022283F8A520A1
:1042B000002303937B6A029307F1140301933B6B82
:1042C00000933B687A68B968F86800F051F8786A3A
:1042D00000F0F6F801E000237B617B69184628377F
:1042E000BD4680BD80B58CB004AFF860B9603B605E
:1042F0001346FB80FB889B00184601F077FC786131
:104300007B69002B0ED0A82001F070FCF861FB69DE
:10431000002B03D0FB697A691A6305E0786901F024
:1043200033FD01E00023FB61FB69002B17D0FB6923
:10433000002283F8A520FA8800230393FB690293E7
:10434000FB6A0193BB6A00933B68B968F86800F0A8
:104350000FF8F86900F0B4F80123BB6102E04FF0F8
:10436000FF33BB61BB6918462037BD4680BD0000E6
:1043700080B588B000AFF860B9607A603B603B6B95
:10438000186B7B689B001A46A52101F051FE3B6B20
:104390001A6B7B6803F18043013B9B001344BB61B4
:1043A000BB6923F00703BB61BB6903F00703002B64
:1043B0000BD04FF0500383F31188BFF36F8FBFF31F
:1043C0004F8F7B6100BF00BFFDE7BB68002B1FD094
:1043D0000023FB6112E0BA68FB69134419783A6B59
:1043E000FB69134434330A461A70BA68FB691344F4
:1043F0001B78002B06D0FB690133FB61FB690F2B97
:10440000E9D900E000BF3B6B002283F8432003E0C2
:104410003B6B002283F83420BB6A372B01D937234A
:10442000BB623B6BBA6ADA623B6BBA6ADA643B6BBB
:1044300000221A653B6B04331846FFF765F93B6BA6
:1044400018331846FFF760F93B6B3A6B1A61BB6A89
:10445000C3F138023B6B9A613B6B3A6B5A623B6B20
:104460000022C3F8A0203B6B002283F8A4203B6B02
:1044700054334C220021184601F0DAFD3B6B0D4A03
:104480009A653B6B0C4ADA653B6B0C4A1A663A68D4
:10449000F968B86901F05AF902463B6B1A60FB6A89
:1044A000002B02D0FB6A3A6B1A6000BF2037BD4672
:1044B00080BD00BFD84B0020404C0020A84C0020FD
:1044C00080B582B000AF786001F06EFA2D4B1B68AA
:1044D00001332C4A13602C4B1B68002B09D12A4A4C
:1044E0007B681360274B1B68012B10D100F02EFC5A
:1044F0000DE0264B1B68002B09D1234B1B68DA6AA1
:104500007B68DB6A9A4202D81F4A7B681360204BA3
:104510001B6801331E4A13601D4B1A687B685A647E
:104520007B68DA6A1B4B1B689A4203D97B68DB6A9B
:10453000184A13607B68DA6A13469B0013449B0099
:10454000154A1A447B68043319461046FFF7E9F808
:1045500001F05CFA0D4B1B68002B0ED00A4B1B6858
:10456000DA6A7B68DB6A9A4207D20C4B4FF08052C2
:104570001A60BFF34F8FBFF36F8F00BF0837BD4680
:1045800080BD00BF580E002084090020640E00206A
:10459000740E0020600E00208809002004ED00E069
:1045A00080B584B000AF78600023FB607B68002B8F
:1045B00018D0144B1B68002B0BD04FF0500383F323
:1045C0001188BFF36F8FBFF34F8FBB6000BF00BF79
:1045D000FDE700F08BF80021786800F009FD00F09D
:1045E00093F8F860FB68002B07D1074B4FF080521F
:1045F0001A60BFF34F8FBFF36F8F00BF1037BD46F8
:1046000080BD00BF800E002004ED00E080B58AB0C0
:1046100004AF0023BB6000237B603A46391D07F1DD
:1046200008031846FFF71CF839687B68BA680292DD
:1046300001930023009300230A4624492448FFF7EE
:10464000F1FD0346234A1360224B1B68002B02D066
:1046500001237B6101E000237B617B69012B02D197
:1046600000F01AFD78617B69012B1BD14FF05003DC
:1046700083F31188BFF36F8FBFF34F8F3B6100BF90
:10468000154B1B685433154A1360154B4FF0FF321E
:104690001A60144B01221A60134B00221A6001F0B9
:1046A000DFF80FE07B69B3F1FF3F0BD14FF0500310
:1046B00083F31188BFF36F8FBFF34F8FFB6000BF91
:1046C00000BFFDE700BF1837BD4680BD506A000837
:1046D0001D4D00087C0E00208409002050000020A1
:1046E000780E0020640E00205C0E002080B400AF25
:1046F000044B1B680133034A136000BFBD465DF8DD
:10470000047B7047800E002080B584B000AF00238A
:10471000FB600023BB60424B1B68002B0BD14FF0AA
:10472000500383F31188BFF36F8FBFF34F8F3B604C
:1047300000BF00BFFDE701F037F9394B1B68013BB3
:10474000374A1360364B1B68002B62D1354B1B6810
:10475000002B5ED02FE0344BDB68DB68FB60FB682E
:1047600018331846FFF73AF8FB6804331846FFF78A
:1047700035F8FB68DA6A2D4B1B689A4203D9FB684F
:10478000DB6A2A4A1360FB68DA6A13469B0013440B
:104790009B00274A1A44FB68043319461046FEF76B
:1047A000C0FFFB68DA6A234B1B68DB6A9A4202D3BC
:1047B000214B01221A601C4B1B68002BCBD1FB68DC
:1047C000002B01D000F066FB1C4B1B687B607B68F4
:1047D000002B10D000F046F80346002B02D0164BF9
:1047E00001221A607B68013B7B607B68002BF1D162
:1047F000124B00221A60104B1B68002B09D00123BA
:10480000BB600F4B4FF080521A60BFF34F8FBFF366
:104810006F8F01F0FBF8BB6818461037BD4680BDAE
:10482000800E0020580E0020180E0020600E002080
:1048300088090020840900206C0E0020680E0020EA
:1048400004ED00E080B483B000AF054B1B687B60D3
:104850007B6818460C37BD465DF8047B704700BF87
:104860005C0E002080B586B000AF00237B614F4B0B
:104870001B68002B40F090804D4B1B6801333B615F
:104880004B4A3B6913603B69002B21D1494B1B68A4
:104890001B68002B0BD04FF0500383F31188BFF33C
:1048A0006F8FBFF34F8F3B6000BF00BFFDE7414BF1
:1048B0001B68FB60404B1B683E4A13603E4AFB6826
:1048C00013603E4B1B6801333C4A136000F0E2FA70
:1048D0003B4B1B683A699A4249D3364B1B681B68AD
:1048E000002B04D1364B4FF0FF321A603FE0314BC2
:1048F0001B68DB68DB68BB60BB685B687B603A6930
:104900007B689A4203D22E4A7B6813602FE0BB6813
:1049100004331846FEF762FFBB689B6A002B04D085
:10492000BB6818331846FEF759FFBB68DA6A254B97
:104930001B689A4203D9BB68DB6A224A1360BB68D2
:10494000DA6A13469B0013449B001F4A1A44BB6853
:10495000043319461046FEF7E4FEBB68DA6A1B4BC7
:104960001B68DB6A9A42B8D301237B61B5E7174B1A
:104970001B68DA6A144913469B0013449B000B44DE
:104980001B68012B01D901237B61114B1B68002B94
:1049900007D001237B6104E00E4B1B6801330D4AF5
:1049A00013607B6918461837BD4680BD800E002015
:1049B0005C0E0020100E0020140E0020700E00204F
:1049C000780E0020600E0020880900208409002055
:1049D0006C0E0020680E002080B485B000AF2B4B19
:1049E0001B68002B03D02A4B01221A6047E0284B9A
:1049F00000221A60274B1B68FB6011E0FB68002B4C
:104A00000BD14FF0500383F31188BFF36F8FBFF3C7
:104A10004F8F7B6000BF00BFFDE7FB68013BFB6081
:104A20001D49FA6813469B0013449B000B441B6806
:104A3000002BE3D0FA6813469B0013449B00164AF0
:104A40001344BB60BB685B685A68BB685A60BB684C
:104A50005A68BB6808339A4204D1BB685B685A68DD
:104A6000BB685A60BB685B68DB680C4A1360094A24
:104A7000FB681360094B1B685433094A136000BF7D
:104A80001437BD465DF8047B704700BF800E0020E0
:104A90006C0E0020600E0020880900208409002090
:104AA0005000002080B584B000AF786039607B682A
:104AB000002B0BD14FF0500383F31188BFF36F8F9E
:104AC000BFF34F8FFB6000BF00BFFDE7074B1B68C4
:104AD000183319467868FEF748FE0121386800F05F
:104AE00087FA00BF1037BD4680BD00BF8409002093
:104AF00080B586B000AFF860B9607A60FB68002BC3
:104B00000BD14FF0500383F31188BFF36F8FBFF3C6
:104B10004F8F7B6100BF00BFFDE70A4B1B68183356
:104B20001946F868FEF7FDFD7B68002B02D04FF0B8
:104B3000FF33BB607968B86800F05AFA00BF1837D5
:104B4000BD4680BD8409002080B586B000AF786086
:104B50007B68DB68DB683B613B69002B0BD14FF066
:104B6000500383F31188BFF36F8FBFF34F8FFB6048
:104B700000BF00BFFDE73B6918331846FEF72EFE65
:104B80001D4B1B68002B1DD13B6904331846FEF7F3
:104B900025FE3B69DA6A194B1B689A4203D93B69C7
:104BA000DB6A164A13603B69DA6A13469B001344BA
:104BB0009B00134A1A443B69043319461046FEF71A
:104BC000B0FD05E03B69183319460E48FEF7A9FD14
:104BD0003B69DA6A0C4B1B68DB6A9A4205D90123F0
:104BE0007B610A4B01221A6001E000237B617B6933
:104BF00018461837BD4680BD800E0020600E00208C
:104C000088090020180E0020840900206C0E002066
:104C100080B483B000AF7860064B1A687B681A6076
:104C2000054B1A687B685A6000BF0C37BD465DF8BB
:104C3000047B7047700E00205C0E002080B588B0A9
:104C400000AF786039607B68002B0BD14FF05003C8
:104C500083F31188BFF36F8FBFF34F8F3B6100BFAA
:104C600000BFFDE73B68002B0BD14FF0500383F3EF
:104C70001188BFF36F8FBFF34F8FFB6000BF00BF82
:104C8000FDE700F091FE1D4B1B68BB617B685B6814
:104C9000BA69D31A7B613B681B68B3F1FF3F02D14D
:104CA0000023FB6123E07B681A68154B1B689A425E
:104CB00007D07B685B68BA699A4202D30123FB6123
:104CC00015E03B681B687A699A420BD23B681A6808
:104CD0007B69D21A3B681A607868FFF799FF002356
:104CE000FB6104E03B6800221A600123FB6100F0D5
:104CF0008DFEFB6918462037BD4680BD5C0E002046
:104D0000700E002080B400AF034B01221A6000BF78
:104D1000BD465DF8047B70476C0E002080B582B004
:104D200000AF786000F052F8064B1B68012BF9D9F0
:104D3000054B4FF080521A60BFF34F8FBFF36F8F58
:104D4000F0E700BF8809002004ED00E080B582B0E4
:104D500000AF00237B600CE07A6813469B0013448D
:104D60009B00124A13441846FEF7AEFC7B680133E1
:104D70007B607B68372BEFD90D48FEF7A5FC0D480B
:104D8000FEF7A2FC0C48FEF79FFC0C48FEF79CFCCB
:104D90000B48FEF799FC0B4B054A1A600A4B054A73
:104DA0001A6000BF0837BD4680BD00BF88090020DB
:104DB000E80D0020FC0D0020180E00202C0E002015
:104DC000440E0020100E0020140E002080B582B08A
:104DD00000AF19E000F0E8FD104BDB68DB687B609A
:104DE0007B6804331846FEF7F9FC0D4B1B68013B4A
:104DF0000B4A13600B4B1B68013B0A4A136000F01F
:104E000005FE786800F010F8064B1B68002BE1D116
:104E100000BF00BF0837BD4680BD00BF2C0E00207C
:104E2000580E0020400E002080B584B000AF78609E
:104E30007B685433184601F003F97B6893F8A5307A
:104E4000002B08D17B681B6B184600F09DFF78682B
:104E500000F09AFF19E07B6893F8A530012B03D18D
:104E6000786800F091FF10E07B6893F8A530022B82
:104E70000BD04FF0500383F31188BFF36F8FBFF354
:104E80004F8FFB6000BF00BFFDE700BF1037BD467E
:104E900080BD000080B483B000AF0C4B1B681B6862
:104EA000002B04D10A4B4FF0FF321A6008E0074B89
:104EB0001B68DB68DB687B607B685B68044A1360A7
:104EC00000BF0C37BD465DF8047B7047100E002014
:104ED000780E002080B483B000AF0B4B1B68002B12
:104EE00002D101237B6008E0084B1B68002B02D134
:104EF00002237B6001E000237B607B6818460C374F
:104F0000BD465DF8047B7047640E0020800E0020D3
:104F100080B586B000AF78607B683B6100237B6121
:104F20007B68002B58D02F4B1B683A699A420BD0F4
:104F30004FF0500383F31188BFF36F8FBFF34F8F90
:104F4000FB6000BF00BFFDE73B691B6D002B0BD171
:104F50004FF0500383F31188BFF36F8FBFF34F8F70
:104F6000BB6000BF00BFFDE73B691B6D5A1E3B697C
:104F70001A653B69DA6A3B69DB6C9A422CD03B6963
:104F80001B6D002B28D13B6904331846FEF726FC25
:104F90003B69DA6C3B69DA623B69DB6AC3F1380270
:104FA0003B699A613B69DA6A0F4B1B689A4203D9E5
:104FB0003B69DB6A0C4A13603B69DA6A13469B0063
:104FC00013449B00094A1A443B69043319461046AE
:104FD000FEF7A7FB01237B617B6918461837BD46A6
:104FE00080BD00BF84090020600E002088090020D9
:104FF00080B584B000AF78603960214B1B68FB60DE
:10500000204B1B6804331846FEF7E8FB7B68B3F1BE
:10501000FF3F0AD13B68002B07D01A4B1B680433B3
:1050200019461948FEF77DFB26E0FA687B681344B1
:10503000BB60144B1B68BA685A60BA68FB689A4236
:1050400009D2124B1A680F4B1B68043319461046DD
:10505000FEF78BFB10E00E4B1A680A4B1B680433FB
:1050600019461046FEF781FB0A4B1B68BA689A4244
:1050700002D2084ABB68136000BF1037BD4680BD2E
:105080005C0E002084090020440E0020140E002035
:10509000100E0020780E002080B58AB004AF0023E7
:1050A0007B6100F013FB1D4B1B68002B21D00023FC
:1050B000FB600023BB603A1D07F1080107F10C03F8
:1050C0001846FEF7E7FA7968BB68FA68029201931E
:1050D0000223009300230A4611491248FFF7A2F861
:1050E0000346114A1360104B1B68002B01D00123AB
:1050F0007B617B69002B0BD14FF0500383F3118848
:10510000BFF36F8FBFF34F8F3B6100BF00BFFDE761
:105110007B6918461837BD4680BD00BFB40E00201D
:10512000586A000865520008B80E002080B58AB0A1
:1051300000AFF860B9607A603B6000237B62FB6877
:10514000002B0BD14FF0500383F31188BFF36F8F07
:10515000BFF34F8F3B6200BF00BFFDE7194B1B68D9
:10516000002B2AD0BB683B617B687B61FB68BB611D
:10517000BB68052B18DCFFF7ADFE0346022B09D1F7
:10518000104B186807F1100100233A6BFEF75AFC28
:10519000786212E00B4B186807F11001002300221F
:1051A000FEF750FC786208E0064B186807F1100122
:1051B00000233A68FEF748FD78627B6A1846283774
:1051C000BD4680BDB40E002080B588B002AF7860C7
:1051D0003960234B1B68DB68DB687B617B690433C8
:1051E0001846FEF7FBFA7B6993F8283003F00403B6
:1051F000002B23D07B699A697B68D1187B683A6859
:10520000786900F0D5F80346002B20D000230093E6
:1052100000237A6800217869FFF788FF38613B69CD
:10522000002B14D14FF0500383F31188BFF36F8F1D
:10523000BFF34F8FFB6000BF00BFFDE77B6993F8B2
:10524000283023F00103DAB27B6983F828207B69D8
:105250001B6A7869984700BF1837BD4680BD00BFFC
:10526000AC0E002080B584B000AF786007F1080371
:10527000184600F059F8F860BB681946F86800F065
:1052800005F800F0D7F800BFF0E7000080B584B063
:1052900000AF78603960FFF729FA07F10803184674
:1052A00000F066F8F860BB68002B30D13B68002B3B
:1052B0000AD17A68FB689A4206D8FFF725FAF9689E
:1052C0007868FFF781FF24E03B68002B08D0134B80
:1052D0001B681B68002B01D1012300E000233B6009
:1052E0000F4B18687A68FB68D31A3A681946FEF7BC
:1052F00065FFFFF709FA0346002B0AD1094B4FF06F
:1053000080521A60BFF34F8FBFF36F8F01E0FFF73A
:10531000FBF900BF1037BD4680BD00BFB00E0020B6
:10532000B40E002004ED00E080B485B000AF7860DA
:105330000E4B1B681B68002B01D1012200E00022EC
:105340007B681A607B681B68002B05D1074B1B68C4
:10535000DB681B68FB6001E00023FB60FB6818460C
:105360001437BD465DF8047B704700BFAC0E0020CB
:1053700080B584B000AF7860FFF764FAF8600B4B3B
:105380001B68FA689A4205D200F03AF97B6801225C
:105390001A6002E07B6800221A60044AFB6813600E
:1053A000FB6818461037BD4680BD00BFBC0E00200C
:1053B00080B586B000AFF860B9607A603B600023CA
:1053C0007B61FB68BA685A60FB68FA681A61BA6860
:1053D0007B689A4212D87A683B68D21AFB689B694C
:1053E0009A4202D301237B611BE0104B1A68FB68D1
:1053F000043319461046FEF7B8F912E07A683B68A4
:105400009A4206D2BA683B689A4202D301237B6172
:1054100007E0074B1A68FB68043319461046FEF78D
:10542000A4F97B6918461837BD4680BDB00E002030
:10543000AC0E002080B58EB002AFCEE07B68002BB2
:1054400019DA3B1D0433FB62FB6A002B0BD14FF0D2
:10545000500383F31188BFF36F8FBFF34F8FFB614E
:1054600000BF00BFFDE7FB6A1B68FA6A5068FA6A72
:105470009268114698477B68002BC0F2AE80FB68AB
:10548000BB62BB6A5B69002B04D0BB6A043318465D
:10549000FEF7A4F93B461846FFF76AFF78627B687F
:1054A000092B00F2978001A252F823F0D55400088E
:1054B000D5540008D55400084B5500085F55000826
:1054C000AB550008D5540008D55400084B550008CA
:1054D0005F550008BB6A93F8283043F00103DAB245
:1054E000BB6A83F82820BA68BB6A9B69D118BB687D
:1054F0007A6AB86AFFF75CFF0346002B6CD0BB6A80
:105500001B6AB86A9847BB6A93F8283003F0040313
:10551000002B61D0BA68BB6A9B691A4400230093D0
:1055200000230021B86AFFF701FE38623B6A002BB6
:1055300052D14FF0500383F31188BFF36F8FBFF345
:105540004F8FBB6100BF00BFFDE7BB6A93F82830F7
:1055500023F00103DAB2BB6A83F828203DE0BB6A7E
:1055600093F8283043F00103DAB2BB6A83F82820AD
:10557000BA68BB6A9A61BB6A9B69002B0BD14FF07A
:10558000500383F31188BFF36F8FBFF34F8F7B619D
:1055900000BF00BFFDE7BB6A9A697B6AD1187B6ACE
:1055A0007A6AB86AFFF704FF17E0BB6A93F82830FD
:1055B00003F00203002B03D1B86A00F0E5FB0CE016
:1055C000BB6A93F8283023F00103DAB2BB6A83F890
:1055D000282002E000BF00E000BF084B1B68391D17
:1055E00000221846FEF7CEFB0346002B7FF426AFC1
:1055F00000BF00BF3037BD4680BD00BFB40E0020E5
:1056000080B588B002AF49E02E4B1B68DB681B6891
:105610003B612C4B1B68DB68DB68FB60FB68043379
:105620001846FEF7DBF8FB681B6AF8689847FB68CA
:1056300093F8283003F00403002B2FD0FB689B69FC
:105640003A691344BB60BA683B699A420ED9FB6859
:10565000BA685A60FB68FA681A611A4B1A68FB68E4
:10566000043319461046FEF780F817E00023009334
:1056700000233A690021F868FFF758FD78607B68DD
:10568000002B0BD14FF0500383F31188BFF36F8FC2
:10569000BFF34F8F3B6000BF00BFFDE7094B1B68A6
:1056A0001B68002BB0D1074B1B687B61064B1B6846
:1056B000044A1360044A7B69136000BF1837BD4673
:1056C00080BD00BFAC0E0020B00E002080B582B0BF
:1056D00002AF00F069F9154B1B68002B20D114486C
:1056E000FDF7F2FF1348FDF7EFFF134B104A1A6066
:1056F000124B104A1A6000230093114B114A1021DB
:105700000A20FEF7FFF80346084A1360074B1B68A0
:10571000002B05D0054B1B680B491846FEF724FDEE
:1057200000F074F900BFBD4680BD00BFB40E00207C
:10573000840E0020980E0020AC0E0020B00E002039
:10574000600F0020C00E0020606A000880B485B0A1
:1057500000AFF860B9607A60FB68043BFB60FB68EF
:105760004FF080721A60FB68043BFB60BB6823F05B
:105770000102FB681A60FB68043BFB600C4AFB6893
:105780001A60FB68143BFB607A68FB681A60FB6870
:10579000043BFB60FB686FF002021A60FB68203B71
:1057A000FB60FB6818461437BD465DF8047B704704
:1057B000B557000880B485B000AF00237B60134B61
:1057C0001B68B3F1FF3F0BD04FF0500383F31188F8
:1057D000BFF36F8FBFF34F8FFB6000BF00BFFDE7CC
:1057E0004FF0500383F31188BFF36F8FBFF34F8FD8
:1057F000BB6000BF00BF7B68002BFCD000BF00BFB8
:105800001437BD465DF8047B704700BF4C00002094
:10581000074B19680868B0E8F04F80F30988BFF3B8
:105820006F8F4FF0000080F311887047AFF3008056
:105830008409002000BF00BF08480068006880F3AA
:1058400008884FF0000080F3148862B661B6BFF399
:105850004F8FBFF36F8F00DF00BF00BF08ED00E088
:1058600080B586B000AF474B1B68474A93420BD1C7
:105870004FF0500383F31188BFF36F8FBFF34F8F47
:105880003B6100BF00BFFDE73E4B1B683F4A9342B0
:105890000BD14FF0500383F31188BFF36F8FBFF329
:1058A0004F8FFB6000BF00BFFDE7394B7B617B6919
:1058B0001B78DBB27B607B69FF221A707B691B78E7
:1058C000DBB2FB70FB78DBB203F05003DAB2314B92
:1058D0001A70314B07221A6009E02F4B1B68013BFD
:1058E0002D4A1360FB78DBB25B00DBB2FB70FB7808
:1058F000DBB203F08003802BEFD0274B1B68C3F192
:105900000703042B0BD04FF0500383F31188BFF330
:105910006F8FBFF34F8FBB6000BF00BFFDE71E4B13
:105920001B681B021C4A13601B4B1B6803F4E063DB
:10593000194A13607B68DAB27B691A70174B1B68CF
:10594000164A43F470031360144B1B68134A43F068
:105950007043136000F0DAF8114B00221A6000F077
:10596000F9F8104B1B680F4A43F040431360FFF7F0
:1059700063FFFFF731F8FFF71DFF002318461837C4
:10598000BD4680BD00ED00E071C20F4170C20F4105
:1059900000E400E0B00F0020B40F002020ED00E094
:1059A0004C00002034EF00E080B483B000AF4FF033
:1059B000500383F31188BFF36F8FBFF34F8F7B606A
:1059C00000BF104B1B6801330E4A13600D4B1B6860
:1059D000012B10D10C4B1B68DBB2002B0BD04FF00E
:1059E000500383F31188BFF36F8FBFF34F8F3B607A
:1059F00000BF00BFFDE700BF0C37BD465DF8047B6C
:105A0000704700BF4C00002004ED00E080B483B07C
:105A100000AF124B1B68002B0BD14FF0500383F3E8
:105A20001188BFF36F8FBFF34F8F7B6000BF00BF44
:105A3000FDE70A4B1B68013B084A1360074B1B68D4
:105A4000002B05D100233B603B6883F3118800BF26
:105A500000BF0C37BD465DF8047B70474C0000204A
:105A6000EFF30980BFF36F8F154B1A681EF0100F0C
:105A700008BF20ED108A20E9F04F10602DE90900E1
:105A80004FF0500080F31188BFF34F8FBFF36F8F3B
:105A9000FEF7A2FF4FF0000080F3118809BC1968DF
:105AA0000868B0E8F04F1EF0100F08BFB0EC108A85
:105AB00080F30988BFF36F8F704700BFAFF300809A
:105AC0008409002000BF00BF80B582B000AF4FF056
:105AD000500383F31188BFF36F8FBFF34F8F7B6049
