:020000040800F2
:1000000000000220C5310008D5300008DD300008AE
:10001000E5300008ED300008F53000080000000071
:10002000000000000000000000000000D173000884
:10003000FD3000080000000021760008754D000822
:100040001532000815320008153200081532000874
:100050001532000815320008153200081532000864
:100060001532000815320008153200081532000854
:100070001532000815320008153200081532000844
:100080001532000815320008153200080000000083
:100090000000000000000000000000001532000811
:1000A0001532000815320008153200081532000814
:1000B0000D3100081532000815320008153200080D
:1000C00015320008153200081532000815320008F4
:1000D0001532000815320008153200080000000033
:1000E0001532000815320008153200080000000023
:1000F00000000000000000000000000015320008B1
:1001000000000000153200082131000815320008F7
:1001100000000000000000000000000000000000DF
:100120001532000815320008153200081532000893
:100130001532000800000000000000000000000070
:100140000000000000000000000000001532000860
:100150001532000815320008153200081532000863
:1001600015320008153200080000000000000000F1
:10017000000000000000000000000000000000007F
:100180000000000015320008000000000000000020
:080190001532000815320008C9
:1001A00010B5054C237833B9044B13B10448AFF3B1
:1001B00000800123237010BDD40000200000000047
:1001C0009C85000808B5034B1BB103490348AFF3F6
:1001D000008008BD00000000D80000209C850008B9
:1001E000034613F8012B002AFBD1181A0138704777
:1001F00001F0FF01102A2BDB10F0070F08D010F8D8
:10020000013B013A8B422DD010F0070F42B3F6D1DB
:10021000F0B441EA012141EA014122F007047FF0F4
:1002200000070023F0E80256083C85EA010586EA4B
:10023000010685FA47F5A3FA87F586FA47F6A5FA87
:1002400087F68EB9EED1F0BC01F0FF0102F0070293
:1002500032B110F8013B013A83EA010313B1F8D13E
:100260000020704701387047002D06BF354603381F
:10027000073815F0010F07D1013015F4807F02BF58
:10028000013015F4C03F0130F0BC0138704700BFA9
:1002900081F0004102E000BF83F0004330B54FEA37
:1002A00041044FEA430594EA050F08BF90EA020FA4
:1002B0001FBF54EA000C55EA020C7FEA645C7FEA37
:1002C000655C00F0E2804FEA5454D4EB5555B8BF5A
:1002D0006D420CDD2C4480EA020281EA030382EACB
:1002E000000083EA010180EA020281EA0303362D5D
:1002F00088BF30BD11F0004F4FEA01314FF4801C30
:100300004CEA113102D0404261EB410113F0004F41
:100310004FEA03334CEA133302D0524263EB4303F8
:1003200094EA050F00F0A780A4F10104D5F1200E96
:100330000DDB02FA0EFC22FA05F2801841F10001F1
:1003400003FA0EF2801843FA05F359410EE0A5F1C5
:1003500020050EF1200E012A03FA0EFC28BF4CF0F6
:10036000020C43FA05F3C01851EBE37101F00045AC
:1003700007D54FF0000EDCF1000C7EEB00006EEBB9
:100380000101B1F5801F1BD3B1F5001F0CD3490843
:100390005FEA30004FEA3C0C04F101044FEA44529A
:1003A00012F5800F80F09A80BCF1004F08BF5FEA21
:1003B000500C50F1000041EB045141EA050130BD01
:1003C0005FEA4C0C404141EB0101013C28BFB1F513
:1003D000801FE9D291F0000F04BF01460020B1FA5E
:1003E00081F308BF2033A3F10B03B3F120020CDA31
:1003F0000C3208DD02F1140CC2F10C0201FA0CF00F
:1004000021FA02F10CE002F11402D8BFC2F1200C73
:1004100001FA02F120FA0CFCDCBF41EA0C01904029
:10042000E41AA2BF01EB0451294330BD6FEA040472
:100430001F3C1CDA0C340EDC04F11404C4F120025D
:1004400020FA04F001FA02F340EA030021FA04F36F
:1004500045EA030130BDC4F10C04C4F1200220FAC6
:1004600002F001FA04F340EA0300294630BD21FA04
:1004700004F0294630BD94F0000F83F4801306BFCA
:1004800081F480110134013D4EE77FEA645C18BFBE
:100490007FEA655C29D094EA050F08BF90EA020F55
:1004A00005D054EA000C04BF1946104630BD91EA4D
:1004B000030F1EBF0021002030BD5FEA545C05D150
:1004C0004000494128BF41F0004130BD14F580048F
:1004D0003CBF01F5801130BD01F0004545F0FE4103
:1004E00041F470014FF0000030BD7FEA645C1ABF38
:1004F000194610467FEA655C1CBF0B46024650EA6F
:10050000013406BF52EA033591EA030F41F400219A
:1005100030BD00BF90F0000F04BF0021704730B520
:100520004FF4806404F132044FF000054FF00001F5
:1005300050E700BF90F0000F04BF0021704730B5B6
:100540004FF4806404F1320410F0004548BF40428B
:100550004FF000013EE700BF42004FEAE2014FEAE0
:1005600031014FEA02701FBF12F07F4393F07F4FBB
:1005700081F06051704732F07F4208BF704793F0BE
:100580007F4F04BF41F40021704730B54FF46074D1
:1005900001F0004521F000411CE700BF50EA0102D4
:1005A00008BF704730B54FF000050AE050EA01027D
:1005B00008BF704730B511F0004502D5404261EBED
:1005C00041014FF4806404F132045FEA915C3FF42E
:1005D000D8AE4FF003025FEADC0C18BF03325FEACB
:1005E000DC0C18BF033202EBDC02C2F1200300FA7C
:1005F00003FC20FA02F001FA03FE40EA0E0021FAA1
:1006000002F11444BDE600BF70B54FF0FF0C4CF48E
:10061000E06C1CEA11541DBF1CEA135594EA0C0F40
:1006200095EA0C0F00F0DEF82C4481EA030621EA7B
:100630004C5123EA4C5350EA013518BF52EA0335B6
:1006400041F4801143F4801338D0A0FB02CE4FF068
:100650000005E1FB02E506F00042E0FB03E54FF098
:100660000006E1FB03569CF0000F18BF4EF0010E90
:10067000A4F1FF04B6F5007F64F5407404D25FEA8C
:100680004E0E6D4146EB060642EAC62141EA55513F
:100690004FEAC52040EA5E504FEACE2EB4F1FD0C81
:1006A00088BFBCF5E06F1ED8BEF1004F08BF5FEAFF
:1006B000500E50F1000041EB045170BD06F00046B1
:1006C00046EA010140EA020081EA0301B4EB5C045E
:1006D000C2BFD4EB0C0541EA045170BD41F4801156
:1006E0004FF0000E013C00F3AB8014F1360FDEBF7B
:1006F000002001F0004170BDC4F10004203C35DA57
:100700000C341BDC04F11404C4F1200500FA05F3D9
:1007100020FA04F001FA05F240EA020001F000427A
:1007200021F0004110EBD37021FA04F642EB0601F0
:100730005EEA430E08BF20EAD37070BDC4F10C041A
:10074000C4F1200500FA04F320FA05F001FA04F2DE
:1007500040EA020001F0004110EBD37041F10001CA
:100760005EEA430E08BF20EAD37070BDC4F12005D5
:1007700000FA05F24EEA020E20FA04F301FA05F23D
:1007800043EA020321FA04F001F0004121FA04F2E5
:1007900020EA020000EBD3705EEA430E08BF20EAB5
:1007A000D37070BD94F0000F0FD101F000464000EF
:1007B00041EB010111F4801F08BF013CF7D041EA71
:1007C000060195F0000F18BF704703F00046520075
:1007D00043EB030313F4801F08BF013DF7D043EA46
:1007E0000603704794EA0C0F0CEA135518BF95EAFC
:1007F0000C0F0CD050EA410618BF52EA4306D1D183
:1008000081EA030101F000414FF0000070BD50EAA1
:10081000410606BF1046194652EA430619D094EA2B
:100820000C0F02D150EA013613D195EA0C0F05D115
:1008300052EA03361CBF104619460AD181EA030169
:1008400001F0004141F0FE4141F470014FF0000021
:1008500070BD41F0FE4141F4780170BD70B54FF0BC
:10086000FF0C4CF4E06C1CEA11541DBF1CEA13553C
:1008700094EA0C0F95EA0C0F00F0A7F8A4EB05041E
:1008800081EA030E52EA03354FEA013100F0888015
:100890004FEA03334FF0805545EA131343EA1263DE
:1008A0004FEA022245EA111545EA10654FEA002693
:1008B0000EF000419D4208BF964244F1FD0404F54C
:1008C000407402D25B084FEA3202B61A65EB0305A8
:1008D0005B084FEA32024FF480104FF4002CB6EB65
:1008E000020E75EB030E22BFB61A754640EA0C00E5
:1008F0005B084FEA3202B6EB020E75EB030E22BF25
:10090000B61A754640EA5C005B084FEA3202B6EB65
:10091000020E75EB030E22BFB61A754640EA9C0024
:100920005B084FEA3202B6EB020E75EB030E22BFF4
:10093000B61A754640EADC0055EA060E18D04FEAB2
:10094000051545EA16754FEA06164FEAC30343EA52
:1009500052734FEAC2025FEA1C1CC0D111F4801F1F
:100960000BD141EA00014FF000004FF0004CB6E718
:1009700011F4801F04BF01430020B4F1FD0C88BFB7
:10098000BCF5E06F3FF6AFAEB5EB030C04BFB6EBC2
:10099000020C5FEA500C50F1000041EB045170BDB5
:1009A0000EF0004E4EEA113114EB5C04C2BFD4EBE2
:1009B0000C0541EA045170BD41F480114FF0000E66
:1009C000013C90E645EA060E8DE60CEA135594EAE2
:1009D0000C0F08BF95EA0C0F3FF43BAF94EA0C0FE5
:1009E0000AD150EA01347FF434AF95EA0C0F7FF45A
:1009F00025AF104619462CE795EA0C0F06D152EAAE
:100A000003353FF4FDAE1046194622E750EA410691
:100A100018BF52EA43067FF4C5AE50EA41047FF4A2
:100A20000DAF52EA43057FF4EBAE12E74FEA410205
:100A3000B2F1E04324BFB3F5001CDCF1FE5C0DD93C
:100A400001F0004C4FEAC0024CEA5070B2F1004F86
:100A500040EB830008BF20F00100704711F0804F89
:100A600021D113F13872BCBF01F00040704741F44E
:100A700080114FEA5252C2F11802C2F1200C10FA52
:100A80000CF320FA02F018BF40F001004FEAC12336
:100A90004FEAD32303FA0CFC40EA0C0023FA02F3DA
:100AA0004FEA4303CCE77FEA625307D150EA0133B0
:100AB0001EBF4FF0FE4040F44000704701F0004080
:100AC00040F0FE4040F40000704700BF53B94AB9FF
:100AD000002908BF00281CBF4FF0FF314FF0FF3046
:100AE00000F06AB9ADF1080C6DE904CE00F006F82B
:100AF000DDF804E0DDE9022304B070472DE9F0479A
:100B0000089D0C46002B4ED194468C458646B2FA81
:100B100082F262D94AB1C2F12003914020FA03F374
:100B20000CFA02FC194300FA02FE4FEA1C471FFAB6
:100B30008CF6B1FBF7F44FEA1E4307FB141143EAAE
:100B4000014304FB06F199420AD91CEB030304F1AB
:100B5000FF3080F01281994240F20F81023C6344E1
:100B6000591A1FFA8EF3B1FBF7F007FB101143EA95
:100B7000014300FB06F69E420AD91CEB030300F179
:100B8000FF3180F0FC809E4240F2F98063440238DD
:100B90009B1B40EA044000211DB1D3400022C5E95F
:100BA0000032BDE8F0878B4205D90DB1C5E90001DF
:100BB00000210846F5E7B3FA83F1002946D1A342A4
:100BC00002D39042C0F0F080861A64EB0303012048
:100BD000002DE6D0C5E90063E3E7002A40F09080ED
:100BE000A1EB0C044FEA1C481FFA8CF70121B4FB5F
:100BF000F8F64FEA1E4308FB164443EA044307FB9A
:100C000006F0984208D91CEB030306F1FF3402D228
:100C1000984200F2CD8026461C1A1FFA8EF3B4FBD0
:100C2000F8F008FB104443EA044300FB07F79F4237
:100C300008D91CEB030300F1FF3402D29F4200F2FB
:100C4000B0802046DB1B40EA0640A5E7C1F1200644
:100C50008B4022FA06F71F4320FA06FC04FA01F340
:100C600043EA0C03F44000FA01F8380C4FEA134948
:100C7000B4FBF0FE1FFA87FC00FB1E4449EA044463
:100C80000EFB0CF9A14502FA01F20AD93C190EF14A
:100C9000FF3A80F08480A14540F28180AEF1020EDF
:100CA0003C44A4EB09041FFA83F9B4FBF0F300FB06
:100CB000134449EA044403FB0CFCA44507D93C193E
:100CC00003F1FF3067D2A44565D9023B3C4443EAB7
:100CD0000E40A0FB0293A4EB0C049C42CE469C4623
:100CE00051D34ED055B1B8EB0E0364EB0C0404FAAB
:100CF00006F6CB401E43CC40C5E90064002150E716
:100D0000C2F1200320FA03F10CFA02FC24FA03F3E7
:100D100094400C434FEA1C4800FA02FE1FFA8CF77D
:100D2000B3FBF8F008FB1031230C43EA014300FB4E
:100D300007F1994208D91CEB030300F1FF362CD2CE
:100D400099422AD9023863445B1AA4B2B3FBF8F182
:100D500008FB113344EA034401FB07F3A34208D91B
:100D60001CEB040401F1FF3613D2A34211D902395E
:100D70006444E41A41EA004139E70446F0E60846D3
:100D800006E7C845AED2B9EB020E63EB070C01389B
:100D9000A8E73146EDE7034699E73046D4E7D64663
:100DA0007FE7634402384DE70646234608460FE7CF
:100DB000023E634430E700BF704700BF80B582B099
:100DC00000AF7860214B1B68002B0CBF0123002370
:100DD000DBB21A461D4B1A601C4B1B68002B18D047
:100DE0001B4B1B68012B05D11A4A07211A4806F034
:100DF000CBFE26E0164B1B68022B22D1154A072199
:100E0000154806F0C1FE154A0721154806F0BCFE3C
:100E100017E00F4B1B68012B05D1124A07210E4822
:100E200006F0B2FE0DE00A4B1B68022B09D10D4AF9
:100E30000721094806F0A8FE0A4A0721084806F0DB
:100E4000A3FE00BF0837BD4680BD00BF20010020C3
:100E500004000020100100203600002018010020AE
:100E60002F000020B485000880B582B000AF034693
:100E7000FB71FB79032B00F2C08001A252F823F032
:100E8000910E0008ED0E0008470F0008A10F0008A2
:100E90000121614802F068FC0346002B01D1432385
:100EA000B5E002215C4802F05FFC0346002B01D153
:100EB0003723ACE00421584802F056FC0346002BCF
:100EC00001D13423A3E00821534802F04DFC03462E
:100ED000002B01D131239AE010214F4802F044FC4D
:100EE0000346002B40F08B80412390E001214A48CB
:100EF00002F03AFC0346002B01D1302387E00221A7
:100F0000454802F031FC0346002B01D138237EE036
:100F10000421414802F028FC0346002B01D135236F
:100F200075E008213C4802F01FFC0346002B01D16C
:100F300032236CE01021384802F016FC0346002BE7
:100F40005FD1422363E00121334802F00DFC0346E8
:100F5000002B01D145235AE002212F4802F004FC66
:100F60000346002B01D1392351E004212A4802F025
:100F7000FBFB0346002B01D1362348E0082126481D
:100F800002F0F2FB0346002B01D133233FE0102196
:100F9000214802F0E9FB0346002B34D1442336E01C
:100FA00001211D4802F0E0FB0346002B01D1542330
:100FB0002DE00221184802F0D7FB0346002B01D197
:100FC000502324E00421144802F0CEFB0346002BFA
:100FD00001D124231BE008210F4802F0C5FB034682
:100FE000002B01D14C2312E010210B4802F0BCFB76
:100FF0000346002B09D1462309E0FF2307E000BF89
:1010000004E000BF02E000BF00E000BFFF2318467D
:101010000837BD4680BD00BF0004024080B582B0E5
:1010200000AF002240212C4802F0B6FB01224FF411
:101030006071294802F0B0FB0020FFF715FF03465E
:10104000FB71FB79FF2B01D0FB7941E0002280216D
:10105000214802F0A1FB01224FF450711E4802F01A
:101060009BFB0120FFF700FF0346FB71FB79FF2B81
:1010700001D0FB792CE000224FF48071164802F079
:101080008BFB01224FF43071134802F085FB0220E4
:10109000FFF7EAFE0346FB71FB79FF2B01D0FB79DA
:1010A00016E000224FF400710B4802F075FB01229C
:1010B0004FF4E071084802F06FFB0320FFF7D4FE05
:1010C0000346FB71FB79FF2B01D0FB7900E0FF2386
:1010D00018460837BD4680BD0004024080B485B084
:1010E00000AFF860B9607A60FB681C4A934215D87B
:1010F000FB681B4AA2FB03239A0CBB681A60FA68C0
:10110000174BA3FB02139B0C164901FB03F3D31AE5
:101110007A681360144B03221A6018E0FB68134AC4
:10112000A2FB03235A0EBB681A60FA680F4BA3FB9D
:1011300002135B0E0E4901FB03F3D31A0D4AA2FB07
:1011400003235A097B681A60074B01221A6000BF0B
:101150001437BD465DF8047B704700BFFFE0F5051E
:1011600083DE1B4340420F006C000020893BE655A4
:1011700000E1F5051F85EB5180B485B000AFF86044
:10118000B9607A60FB68144A934215D8FB68134A29
:10119000A2FB03239A0CBB681A60FA680F4BA3FBEF
:1011A00002139B0C0E4901FB03F3D31A7A681360F8
:1011B0000C4B03221A6009E0BB6800221A607B68AE
:1011C00000221A60074B4FF0FF321A6000BF14373D
:1011D000BD465DF8047B7047FFC99A3B83DE1B4325
:1011E00040420F006C00002080B586B002AF87ED52
:1011F000010A3860D7ED017AFDEEE77A17EE903AF2
:10120000FB60FB6807EE903AF8EEE77A97ED017A1B
:1012100077EE677A9FED0A7A67EE877AFDEEE77AD6
:1012200017EE903ABB60BB680093FB68054A072144
:10123000386806F0A9FC00BF1037BD4680BD00BF6E
:101240000000C842B8850008B0B582B000AF786031
:10125000104A7B6813600F4B1B681846FFF75AF95A
:1012600004460D460C4B1B681846FFF753F902461F
:101270000B4620462946FFF7F1FA02460B46104678
:101280001946FFF7D3FB0346044A136000BF083733
:10129000BD46B0BD3C02002064000020400200209A
:1012A00080B483B000AF78607B6807EE903AF8EEC8
:1012B000677A0D4BC3ED007A0C4B1B6807EE903A32
:1012C000B8EE677A084BD3ED007A67EE277AFCEE2A
:1012D000E77A17EE902A064B1A6000BF0C37BD461E
:1012E0005DF8047B704700BF4002002064000020CE
:1012F0003C02002080B400AF054B00221A70054B61
:1013000000221A6000BFBD465DF8047B704700BF35
:10131000FC000020F800002080B500AF034B002245
:101320001A70FFF7E7FF00BF80BD00BF0A01002071
:1013300080B582B000AF04F021FF7860FFF76EFE49
:101340000346FB70AE4B1B78032B5AD801A252F810
:1013500023F000BF651300087F130008AB130008DB
:10136000DB130008FB78FF2B44D0A64AFB781370F0
:10137000A54A7B681360A24B01221A703AE0A24B87
:101380001B687A68D31A312B36D99E4B1B78FA78B2
:101390009A4206D19A4B02221A709C4A7B681360CB
:1013A0002AE0974B00221A7026E0964B1B78FA78B9
:1013B0009A420AD1954B1B687A68D31AB3F5967F87
:1013C0001CD38F4B03221A7018E08E4B1A78904B67
:1013D0001A708B4B00221A7010E08A4B1B78FA7837
:1013E0009A420DD0874B1A78894B1A70844B002291
:1013F0001A7005E000BF04E000BF02E000BF00E09B
:1014000000BF834B1B78FF2B00F08483804B1B783D
:10141000243B302B00F2E68201A252F823F000BFF9
:1014200099190008E5190008E5190008E5190008F0
:10143000E5190008E5190008E5190008E519000894
:10144000E5190008E5190008E5190008E519000884
:10145000E5190008E5190008E5190008E519000874
:10146000E5190008E5190008E5190008E519000864
:10147000E5190008E5190008E5190008E519000854
:10148000E5190008E5190008E5190008E519000844
:10149000E5190008E514000811150008C915000831
:1014A0004D150008EF1500088D150008E519000816
:1014B000E5190008E5190008E5190008E519000814
:1014C000BF190008E5190008E5190008E51900082A
:1014D0006D190008E5190008E5190008E51900086C
:1014E000831900084B4B1B78002B04D142F210707B
:1014F000FFF7AAFE0EE3474B1B78122B05D1012004
:10150000FFF7CEFEFFF708FF04E3FFF705FF01E357
:10151000404B1B78002B04D143F69820FFF794FE34
:10152000F8E23C4B1B78122B05D10220FFF7B8FEE6
:10153000FFF7F2FEEEE2374B1B78052B03D1354B5C
:1015400006221A70E6E2FFF7E7FEE3E2314B1B7872
:10155000002B04D144F62060FFF776FEDAE22D4B33
:101560001B78122B05D10520FFF79AFEFFF7D4FE5A
:10157000D0E2284B1B780C2B05D1264B02221A7087
:10158000FFF7B8FEC6E2FFF7C7FEC3E2214B1B78A8
:10159000002B04D14CF25030FFF756FEBAE21D4B3F
:1015A0001B78122B05D10A20FFF77AFEFFF7B4FE55
:1015B000B0E2184B1B780C2B03D1164B10221A707B
:1015C000A8E2FFF7A9FEA5E20023134A072113486A
:1015D00006F0DAFA0023104A0721114806F0D4FA7F
:1015E00001230D4A07210F4806F0CEFA92E2094B7B
:1015F0001B78002B18D1074B01221A708AE200BF1A
:101600000901002001000020F0000020F40000206B
:10161000000000200A010020C485000828000020E6
:101620002F000020360000209D4B1B78132B07D184
:101630009C4B1B681846FFF707FEFFF76DFE69E23B
:10164000974B1B78122B07D1964B1B681846FFF758
:1016500027FEFFF761FE5DE2914B1B78082B0AD154
:10166000904B1B68904A934205D18D4B09221A700A
:10167000FFF740FE79E18A4B1B78082B0AD1894B92
:101680001B688A4A934205D1854B0A221A70FFF7DC
:1016900031FE6AE1824B1B780A2B12D1814B1B6809
:1016A0000A2B08D97F4B1B682F2B04D87D4B1B6856
:1016B000DAB27F4B1A707A4B00221A70FFF71AFECB
:1016C00028E2774B1B78082B0BD1764B1A68794BA5
:1016D0001B689A4205D1724B0B221A70FFF70AFE63
:1016E00043E16F4B1B780B2B6CD16E4B1B68724A1E
:1016F0001360724B1B78002B02D0012B2DD059E0C8
:101700006D4B1A686E4BA3FB02131B09322101FBC0
:1017100003F3D31A182B0FD8674B1968664B1A6856
:10172000674BA3FB02031B09322000FB03F3D31A10
:10173000CB1A644A136042E05F4B19685E4B1A682B
:101740005F4BA3FB02031B09322000FB03F3D31AF8
:10175000CB1A32335B4A136031E0574B1A68584B4F
:10176000A3FB02135B09642101FB03F3D31A312BA2
:101770000FD8514B1968504B1A68514BA3FB020309
:101780005B09642000FB03F3D31ACB1A4D4A1360A4
:1017900015E0494B1968484B1A68494BA3FB0203F3
:1017A0005B09642000FB03F3D31ACB1A6433454A68
:1017B000136004E0404B1B68424A136000BFFFF710
:1017C000ABFDA7E1364B1B78062B0BD1354B1A68C6
:1017D000384B1B689A4205D1314B07221A70FFF72C
:1017E00089FDC2E02E4B1B78072B40F08D802D4BDE
:1017F0001B68022B7CD0022B00F28280002B02D0CF
:10180000012B30D07CE02C4B1A682D4BA3FB02132C
:101810001B09322101FB03F3D31A182B0FD8264BD7
:101820001968254B1A68264BA3FB02031B093220BB
:1018300000FB03F3D31ACB1A224A13600FE01E4BAE
:1018400019681D4B1A681E4BA3FB02031B093220AB
:1018500000FB03F3D31ACB1A32331A4A1360174B27
:1018600000221A704DE0144B1A68154BA3FB0213AB
:101870005B09642101FB03F3D31A312B24D80E4BEF
:1018800019680D4B1A680E4BA3FB02035B09642019
:1018900000FB03F3D31ACB1A0A4A136024E000BFFB
:1018A0000A010020F80000205B3A0F00783E0F008C
:1018B0006800002040000020600000200801002097
:1018C0001F85EB5164000020964B1968954B1A68F0
:1018D000954BA3FB02035B09642000FB03F3D31ABF
:1018E000CB1A6433914A1360914B01221A7008E0BD
:1018F0008C4B1B688D4A13608D4B02221A7000E0DE
:1019000000BFFFF709FD05E18A4B1B78102B0ED1B4
:10191000894B1A68894B1B689A4208D1854B112262
:101920001A70FFF7E7FC864B00221A601DE0814B1E
:101930001B78022B0BD1804B1A68804B1B689A4294
:1019400005D17C4B03221A70FFF7D4FC0DE0794BD4
:101950001B78032B06D1784B1B68784A1360FFF77E
:10196000DBFCD7E0FFF7D8FCD4E0D3E0714B1B7869
:10197000002B03D16F4B05221A70CBE0FFF7CCFC94
:10198000C8E06C4B1B78002B03D16A4B0C221A70F9
:10199000C0E0FFF7C1FCBDE0664B1B78002B03D114
:1019A000644B13221A70B5E0624B1B780C2B03D1E9
:1019B000604B0E221A70ADE0FFF7AEFCAAE05D4B63
:1019C0001B78002B03D15B4B12221A70A2E0594BFB
:1019D0001B780C2B03D1574B0D221A709AE0FFF79E
:1019E0009BFC97E0574B1B782F2B40F28E80554B7A
:1019F0001B78392B00F289804E4B1B78052B0CD1BC
:101A00004C4B08221A704F4B1B78303B1A464A4BFE
:101A10001A604D4B01221A707AE0464B1B78082B56
:101A200023D0444B1B78062B1FD0424B1B780B2B2B
:101A30001BD0404B1B780A2B17D03E4B1B78102B2A
:101A400013D03C4B1B78022B0FD03A4B1B78032B47
:101A50000BD0384B1B78042B07D0364B1B78132B3D
:101A600003D0344B1B78122B17D1374B1B78052B27
:101A70004AD8314B1A6813469B0013445B001A4640
:101A8000304B1B781344303B2B4A13602E4B1B7892
:101A90000133DAB22C4B1A7036E0264B1B78072B39
:101AA00017D1294B1B78002B32D1234B1A681346D0
:101AB0009B0013445B001A46224B1B781344303BB7
:101AC0001D4A1360204B1B780133DAB21E4B1A708B
:101AD0001EE0184B1B78092B09D11A4B1B78303BA1
:101AE0001A46154B1A60184B01221A7010E0114B60
:101AF00004221A70134B1B78303B1A460E4B1A60A7
:101B0000114B01221A7003E002E0FFF705FC00E030
:101B100000BF00BF0B4BFF221A7000BF0837BD4645
:101B200080BD00BF600000201F85EB5164000020D5
:101B3000080100200A010020F800002040000020D9
:101B40004800002000000020FC00002090B595B067
:101B500002AFB14B1B78132B00F2F68301A252F8AF
:101B600023F000BFB51B0008E91B00080F1C00088C
:101B70004D1C0008052200088B1C0008B11C000841
:101B8000D71C0008F71C00088B1D00081D1D00084D
:101B90001F1F0008451F0008532000086B1F000886
:101BA00099210008BF210008E5210008C72200088C
:101BB00045220008994B4FF0FF321A600023984AE3
:101BC0000721984805F0E0FF974B1B68974A0721CB
:101BD000974805F0D9FF974BD3ED007A9648B0EEC1
:101BE000670AFFF701FBCFE3944A07218D4805F010
:101BF000CBFF934B1B788A4A07218D4805F0C4FF21
:101C00000023874A07218C4805F0BEFFBCE38D4BBB
:101C10001B6807F13400854A072105F0B5FF07F17D
:101C20003403894A07217F4805F0AEFF874A072120
:101C30007F4805F0A9FF0023794A07217E4805F077
:101C4000A3FF764B4FF0FF321A609DE37D4B1B687C
:101C500007F13400754A072105F096FF07F13403B8
:101C6000794A07216F4805F08FFF00236C4A07214E
:101C70006F4805F089FF764A07216F4805F084FF19
:101C8000664B4FF0FF321A607EE36E4B1B68674A6B
:101C90000721644805F078FF0023614A0721644862
:101CA00005F072FF6B4A0721634805F06DFF6BE397
:101CB000644B1B685D4A07215A4805F065FF002305
:101CC000574A07215A4805F05FFF634A07215A48DF
:101CD00005F05AFF58E3614A0721524805F054FFC6
:101CE0005F4A0721524805F04FFF5E4A07215248DC
:101CF00005F04AFF48E3534B1B684C4A072149480B
:101D000005F042FF0023464A0721494805F03CFF01
:101D1000554A0721484805F037FF35E3494B1B6812
:101D2000424A07213F4805F02FFF504A072140480B
:101D300005F02AFF4E4B01221A604E4A07214E48F9
:101D400005F022FF4D4B1B68002B40F014834C4BD9
:101D50000093002301224FF496714A4804F064FF77
:101D60000346464A1360454B1B68002B00F0038373
:101D7000424B1C6804F002FA024600230093002341
:101D80000121204604F0AEFFF5E2244B4FF0FF3274
:101D90001A602C4B1B68002B00F0BB80294B1B6882
:101DA000052B00F2B680274B1B68013B364A52F8E0
:101DB0002330364A36491846FFF790F9344B1B68F2
:101DC00007F10C00194A072105F0DEFE304B1A68B6
:101DD000304BA3FB02135B0B42F2107101FB03F3C8
:101DE000D31A381D2C4A082105F0CEFE00237B644F
:101DF0005CE03B1D1846FEF7F3F902467B6C9A4205
:101E00004CD93A1D7B6C13441978064A7B6C1344F9
:101E10000A461A7047E000BF0A0100206C0000204B
:101E2000C4850008280000203C020020CC85000862
:101E30002F0000204002002036000020D48500083A
:101E400068000020F8000020DC850008E08500081C
:101E5000E8850008F0850008F8850008008600087D
:101E600008860008108600081886000820860008EA
:101E70000400002028860008100100200C0100202A
:101E8000BD0D0008308600084C0000200401002031
:101E9000000100205917B7D13C860008A74A7B6C87
:101EA000134420221A707B6C01337B647B6C052BFE
:101EB0009FDDA34B1B68A34A0721A34805F064FEDE
:101EC000A24B01221A60A24A0721A24805F05CFE3B
:101ED000A14B1B68002B20D1A04B009300230122B3
:101EE0004FF496719E4804F09FFE03469A4A136091
:101EF000994B1B68002B10D0974B1C6804F03EF9DF
:101F000002460023009300230121204604F0EAFE4C
:101F100003E0944B01221A6036E200BF34E2914B99
:101F20001B68884A0721854805F02EFE00238E4A4B
:101F30000721854805F028FE8C4A07218C4805F0CA
:101F400023FE21E20023884A07217C4805F01CFE7D
:101F50000023854A07217C4805F016FE854B824AFE
:101F60000721834805F010FE0EE2834B1B68744A7C
:101F700082491846FFF700F9804B1B6807F12C00D7
:101F8000704A072105F000FE7C4B1A687C4BA3FBCE
:101F900002135B0B42F2107101FB03F3D31A07F13A
:101FA0002400784A082105F0EFFD00233B641BE084
:101FB00007F124031846FEF713F902463B6C9A42D8
:101FC0000AD907F124023B6C134419785B4A3B6C35
:101FD00013440A461A7004E0584A3B6C134420220A
:101FE0001A703B6C01333B643B6C052BE0DD544BBA
:101FF0001B68544A0721544805F0C6FD534B012283
:102000001A60614A0721534805F0BEFD524B1B6818
:10201000002B40F0B281514B0093002301224FF47A
:1020200096714F4804F000FE03464B4A13604A4B3A
:102030001B68002B00F0A181474B1C6804F09EF840
:1020400002460023009300230121204604F04AFEAB
:1020500093E14E4B1B683A4A48491846FFF73EF851
:10206000464B1B6807F11C00364A072105F08CFD22
:10207000424B1A68424BA3FB02135B0B42F21071F6
:1020800001FB03F3D31A07F11400414A082105F0BC
:102090007BFD0023FB631BE007F114031846FEF7EA
:1020A0009FF80246FB6B9A420AD907F11402FB6BB8
:1020B00013441978214AFB6B13440A461A7004E052
:1020C0001E4AFB6B134420221A70FB6B0133FB6327
:1020D000FB6B052BE0DD1A4B1B681A4A07211A48D7
:1020E00005F052FD194B01221A602A4A07211948AE
:1020F00005F04AFD184B1B68002B40F04081174B40
:102100000093002301224FF49671154804F08CFDD2
:102110000346114A1360104B1B68002B00F02F81FF
:102120000D4B1C6804F02AF802460023009300239C
:102130000121204604F0D6FD21E100BF2800002047
:1021400004010020CC8500082F000020040000209E
:1021500044860008100100200C010020BD0D00087D
:1021600030860008F8000020C4850008D4850008E7
:10217000360000203F420F004800002000010020F0
:102180005917B7D14C860008588600084400002033
:1021900060860008688600087D4B7E4A07217E48DD
:1021A00005F0F2FC00237B4A07217C4805F0ECFC9B
:1021B0000023784A07217A4805F0E6FCE4E0794BF1
:1021C0001B68794A0721744805F0DEFC0023714A38
:1021D0000721724805F0D8FC744A0721704805F0C1
:1021E000D3FCD1E0724A07216B4805F0CDFC704A60
:1021F00007216A4805F0C8FC6E4A0721684805F0C7
:10220000C3FCC1E0674B1B6807F13400664A072135
:1022100005F0BAFC07F13403674A07215E4805F070
:10222000B3FC00235B4A07215C4805F0ADFC0023AA
:10223000584A07215A4805F0A7FC604B4FF0FF327F
:102240001A60A1E0574B1B6807F13400564A07217A
:1022500005F09AFC07F13403574A07214E4805F070
:1022600093FC564B4FF0FF321A60554B02221A6016
:10227000544A0721544805F087FC544A0721544822
:1022800005F082FC534B1B68002B7AD1524B009314
:10229000002301224FF49671504804F0C5FC034618
:1022A0004C4A13604B4B1B68002B6AD0494B1C688F
:1022B00003F064FF0246002300930023012120461F
:1022C00004F010FD5DE0374B1B6807F13400364A1F
:1022D000072105F059FC07F13403374A07212E483E
:1022E00005F052FC354B4FF0FF321A60344B02229E
:1022F0001A60344A0721344805F046FC384A072161
:10230000334805F041FC334B1B68002B3BD1324B6B
:102310000093002301224FF49671304804F084FCAE
:1023200003462C4A13602B4B1B68002B2BD0294BE8
:102330001C6803F023FF02460023009300230121C1
:10234000204604F0CFFC1EE01C4B4FF0FF321A6019
:102350000023104A0721104805F016FC00230D4AFF
:1023600007210E4805F010FC00230A4A07210C48FB
:1023700005F00AFC08E000BF06E000BF04E000BF73
:1023800002E000BF00E000BF00BF4C37BD4690BD7B
:1023900015160500C4850008280000202F00002025
:1023A00036000020F8000020CC8500087086000868
:1023B000B485000878860008DC8500086C000020E1
:1023C000040000208086000818010020D485000841
:1023D000100100200C010020BD0D0008308600080F
:1023E0008886000880B483B000AF0346FB71FB7998
:1023F0002F2B07D9FB79392B04D8FB79303B384A8E
:10240000D35C66E0FB794C2B02D1364B1B7860E045
:10241000FB792E2B02D1334B5B785AE0FB79542B9E
:1024200002D1304B9B7854E0FB794F2B02D12D4BDE
:10243000DB784EE0FB79412B02D12A4B1B7948E037
:10244000FB79532B02D1274B5B7942E0FB79482B78
:1024500002D1244B9B793CE0FB79492B02D1214BE3
:10246000DB7936E0FB79462B02D11E4B1B7A30E03C
:10247000FB79472B02D11B4B5B7A2AE0FB79502B6F
:1024800002D1184B9B7A24E0FB79432B02D1154BE8
:10249000DB7A1EE0FB79452B02D1124B1B7B18E047
:1024A000FB79552B02D10F4B5B7B12E0FB794E2B56
:1024B00002D10C4B9B7B0CE0FB79522B02D1094BD8
:1024C000DB7B06E0FB79442B02D1064B1B7C00E052
:1024D000FF2318460C37BD465DF8047B704700BFEC
:1024E000080000201400002080B584B000AF7860A0
:1024F0000B46FB700023FB6035E0FA681346DB00F7
:102500009B1A7A6813441846FDF76AFE0346BB60BF
:10251000FB78052B1FD8FB78BA689A4215DDFA685C
:102520001346DB009B1A7A681A44BB68591EFB7875
:10253000CB1AD35C1846FFF755FF034619460E4ADF
:10254000FB6813440A461A700AE00B4AFB681344FE
:10255000FF221A7004E0084AFB681344FF221A7035
:10256000FB680133FB60FB68022BC6DD024B18469B
:102570001037BD4680BD00BF3401002080B584B057
:1025800000AF78600B46FB701346BB70FB781946B2
:102590007868FFF7A9FFB860FB78052B20D801A267
:1025A00052F823F0BD250008C3250008C9250008FE
:1025B000CF250008D5250008DB250008FE23FB7386
:1025C00011E0FD23FB730EE0FB23FB730BE0F7230D
:1025D000FB7308E0EF23FB7305E0DF23FB7302E0EE
:1025E000FF23FB7300BF574B1B68002B72DB554B5F
:1025F0001B68052B6EDCFA78524B1B689A4236D169
:10260000BA78514913469B0013440B44FF221A70B9
:10261000BA78BB6898784C4913469B0013440B4426
:10262000013302461A70BA78474913469B00134497
:102630000B440233FA7B1A70BB6801331B78BA78FB
:1026400003F07F03D8B2404913469B0013440B4468
:10265000033302461A70BA78BB6818783A491346B1
:102660009B0013440B44043302461A7065E0BA78A9
:10267000354913469B0013440B44FF221A70BA7865
:10268000BB689878304913469B0013440B440133D0
:1026900002461A70BA782C4913469B0013440B4427
:1026A0000233FA7B1A70BA78BB6858782649134609
:1026B0009B0013440B44033302461A70BA78BB687C
:1026C0001878214913469B0013440B4404330246F7
:1026D0001A7032E0BA781C4913469B0013440B442D
:1026E000FF221A70BA78BB689878174913469B0086
:1026F00013440B44013302461A70BA781249134648
:102700009B0013440B440233FA7B1A70BA78BB68FF
:1027100058780D4913469B0013440B44033302467B
:102720001A70BA78BB681878074913469B0013449F
:102730000B44043302461A7000BF00BF1037BD4679
:1027400080BD00BF6C0000202801002080B582B051
:1027500000AF1D4B1B78DBB20133002B03F00103EC
:10276000B8BF5B42FB71194B1B78DBB2FA79194693
:102770001748FFF703FF72B600BF134B1B78DBB29D
:102780001A4613469B001344124A13440521184667
:1027900000F024F80C4AFB79137062B600BF0B4BB3
:1027A0001B78DBB25A1C0C4B83FB0231D317C91ABE
:1027B0000B465B000B445B00D11ACAB2034B1A7084
:1027C00000BF0837BD4680BD320100202401002033
:1027D0002800002028010020ABAAAA2A80B584B0D6
:1027E00000AF7860396000224FF48041234800F048
:1027F000D3FF01228021224800F0CEFF0023FB609E
:1028000003E000BFFB680133FB60FB68B3F57A7F30
:10281000F7DB00BF1B4801F01BFE0346012BF9D17B
:102820003B689AB24FF0FF337968164801F0CDFC4F
:102830000346002B01D000F0B1FA0023BB6003E097
:1028400000BFBB680133BB60BB68B3F57A7FF7DBC1
:1028500000BF0C4801F0FCFD0346012BF9D1012219
:102860004FF48041054800F097FF00228021044882
:1028700000F092FF00BF1037BD4680BD000402404B
:10288000000802403801002080B500AF00F0C4FC11
:1028900000F038F800F066F900F09CF800F0D0F88D
:1028A00000F004F902F080FA0D4A00210D4802F010
:1028B000C5FA03460C4A13600C4A00210C4802F08A
:1028C000BDFA03460B4A13600B4A00210B4802F085
:1028D000B5FA03460A4A136002F08AFA00BFFDE720
:1028E000D8860008692C000830020020FC86000809
:1028F000A52C00083402002020870008C12C000805
:102900003802002080B594B000AF07F120033022D8
:102910000021184605F06CF907F10C0300221A603B
:102920005A609A60DA601A610023BB60274B1B6C07
:10293000264A43F080531364244B1B6C03F08053EE
:10294000BB60BB6800237B60214B1B68204A43F4BB
:10295000404313601E4B1B6803F440437B607B685D
:1029600002233B620123FB6210233B630223BB6310
:102970000023FB6308233B6464237B640223BB6462
:102980000423FB6407F12003184600F01FFF0346F1
:10299000002B01D000F002FA0F23FB6002233B6101
:1029A00000237B614FF48053BB610023FB6107F17F
:1029B0000C030321184601F081F90346002B01D0D6
:1029C00000F0ECF900BF5037BD4680BD0038024032
:1029D0000070004080B500AF174B184A1A60164BC4
:1029E0004FF482725A60144B00229A60124B0022FC
:1029F000DA60114B00221A610F4B00225A610E4B14
:102A00004FF400729A610C4B2022DA610A4B0022CB
:102A10001A62094B00225A62074B00229A62064B47
:102A20000A22DA62044801F047FB0346002B01D07A
:102A300000F0B4F900BF80BD380100200030014033
:102A400080B500AF174B184A1A60164B4FF48272CC
:102A50005A60144B00229A60124B0022DA60114B2C
:102A600000221A610F4B00225A610E4B4FF4007284
:102A70009A610C4B0022DA610A4B00221A62094B60
:102A800000225A62074B00229A62064B0A22DA623F
:102A9000044801F011FB0346002B01D000F07EF941
:102AA00000BF80BD900100200038004080B58CB090
:102AB00000AF07F10C0324220021184605F098F816
:102AC0003B1D00221A605A60244B254A1A60234B92
:102AD00000225A60214B00229A60204B4FF0FF32B7
:102AE000DA601E4B00221A611C4B00229A610323FC
:102AF000FB6002233B6101237B610023BB61002358
:102B0000FB6102233B6201237B620023BB62002343
:102B1000FB6207F10C031946104801F03FFE034623
:102B2000002B01D000F03AF900237B600023BB604A
:102B30003B1D1946094802F071F80346002B01D0ED
:102B400000F02CF900220521322000F05FFC322039
:102B500000F078FC00BF3037BD4680BDE8010020A2
:102B6000000C004080B58AB000AF07F114030022CA
:102B70001A605A609A60DA601A6100233B61374B31
:102B80001B6B364A43F080031363344B1B6B03F01B
:102B900080033B613B690023FB60304B1B6B2F4A7A
:102BA00043F0040313632D4B1B6B03F00403FB6022
:102BB000FB680023BB60294B1B6B284A43F00103D1
:102BC0001363264B1B6B03F00103BB60BB68002340
:102BD0007B60224B1B6B214A43F0020313631F4BA4
:102BE0001B6B03F002037B607B68002244F2C03160
:102BF0001B4800F0D1FD002280211A4800F0CCFDD6
:102C00001F237B610023BB610123FB6107F11403D8
:102C10001946134800F024FC44F2C0337B610123C1
:102C2000BB610023FB6100233B6207F114031946DB
:102C30000B4800F015FC80237B610123BB6100235E
:102C4000FB6100233B6207F114031946054800F0BD
:102C500007FC00BF2837BD4680BD00BF00380240DA
:102C6000000402400008024080B584B000AF7860E4
:102C70000B4A07F1080392E8030018600433197047
:102C8000FFF764FD012002F06BF907F1080305214D
:102C90001846FFF7A3FD012002F062F900BFEFE73D
:102CA000B886000880B582B000AF7860FEF740FBC0
:102CB000FEF74CFF012002F053F900BFF6E70000D9
:102CC00080B584B000AF78604FF0FF31012003F091
:102CD0002BFE124B1B685B6AFB60114B1B68FA688A
:102CE0009A4210D10F4B1B6801330E4A13600D4BF3
:102CF0001B680522934209D30B4AFB681360094BFA
:102D000000221A6002E0074B00221A60044AFB68A6
:102D10001360012002F024F9D6E700BFE80100208B
:102D200044020020480200207000002080B582B0DC
:102D300000AF78607B681B68B3F1804F01D100F071
:102D40008DFA00BF0837BD4680BD000080B584B055
:102D500000AF78607B681B680D4A934214D1002352
:102D6000FB600C4B1B6807F10C021146184603F080
:102D700027FEFB68002B07D0074B4FF080521A60EC
:102D8000BFF34F8FBFF36F8F00BF1037BD4680BDBD
:102D9000000C00403802002004ED00E080B400AFD9
:102DA00072B600BF00BFFDE780B582B000AF002360
:102DB0007B60124B5B6C114A43F4804353640F4BAE
:102DC0005B6C03F480437B607B6800233B600B4BB0
:102DD0001B6C0A4A43F080531364084B1B6C03F0CE
:102DE00080533B603B6800220F216FF0010000F030
:102DF0000DFB00BF0837BD4680BD00BF0038024054
:102E000080B58CB000AF786007F11C0300221A6017
:102E10005A609A60DA601A617B681B68414A934283
:102E20002CD10023BB61404B5B6C3F4A43F4805381
:102E300053643D4B5B6C03F48053BB61BB6900235F
:102E40007B61394B1B6B384A43F001031363364BEC
:102E50001B6B03F001037B617B69A023FB610223F1
:102E60003B6200237B620323BB620523FB6207F105
:102E70001C0319462D4800F0F3FA4FE07B681B68ED
:102E80002B4A93424AD100233B61274B1B6C264AB5
:102E900043F480431364244B1B6C03F480433B6175
:102EA0003B690023FB60204B1B6B1F4A43F004036C
:102EB00013631D4B1B6B03F00403FB60FB680023D3
:102EC000BB60194B1B6B184A43F002031363164B8C
:102ED0001B6B03F00203BB60BB680823FB6102238A
:102EE0003B6200237B620323BB620523FB6207F185
:102EF0001C0319460F4800F0B3FA4FF48063FB61DE
:102F000002233B6200237B620323BB620523FB6237
:102F100007F11C031946084800F0A2FA00BF303739
:102F2000BD4680BD00300140003802400000024034
:102F300000380040000802400004024080B58AB01A
:102F400000AF786007F1140300221A605A609A609B
:102F5000DA601A617B681B681D4A934233D10023F3
:102F60003B611C4B1B6C1B4A43F008031364194B59
:102F70001B6C03F008033B613B690023FB60154BAE
:102F80001B6B144A43F001031363124B1B6B03F0DA
:102F90000103FB60FB6803237B610223BB61002309
:102FA000FB6100233B6202237B6207F11403194695
:102FB000094800F055FA00220521322000F026FAD7
:102FC000322000F03FFA00BF2837BD4680BD00BF69
:102FD000000C0040003802400000024080B58EB076
:102FE00000AF78600023FB620023BB620023FB601C
:102FF000344B1B6C334A43F001031364314B1B6C9D
:1030000003F00103FB60FB6807F1100207F11403F2
:103010001146184601F01EF83B6AFB62FB6A002B62
:1030200003D101F003F8786304E000F0FFFF0346EA
:103030005B007B637B6B244AA2FB03239B0C013B5D
:10304000BB62224B4FF080421A60204B40F2E732C5
:10305000DA601E4ABB6A53601C4B00221A611B4B8C
:1030600000229A60194B00229A61184801F0DAFA9E
:10307000034687F8333097F83330002B1BD11348C1
:1030800001F02AFB034687F8333097F83330002BE2
:1030900011D11C2000F0D6F97B680F2B08D8002234
:1030A00079681C2000F0B2F9094A7B68136002E0DD
:1030B000012387F8333097F8333018463837BD4648
:1030C00080BD00BF0038024083DE1B434C0200205D
:1030D0007800002080B400AF00BFFDE780B400AFEF
:1030E00000BFFDE780B400AF00BFFDE780B400AFD4
:1030F00000BFFDE780B400AF00BFFDE780B400AFC4
:1031000000BFBD465DF8047B7047000080B500AF8E
:10311000024801F0E9FB00BF80BD00BF4C02002067
:1031200080B500AF024801F0DFFB00BF80BD00BFEB
:10313000E801002080B586B000AF7860144A154BD6
:10314000D31A7B617B693B61134B1B68002B02D157
:10315000114B124A1A60104B1A687B6813443A6983
:103160009A4207D204F0A2FD03460C221A604FF0E7
:10317000FF3309E0084B1B68FB60074B1A687B684C
:103180001344054A1360FB6818461837BD4680BDD6
:10319000000002200004000094020020D04D002016
:1031A00080B400AF064BD3F88830054A43F470036F
:1031B000C2F8883000BFBD465DF8047B704700BF91
:1031C00000ED00E0DFF834D0FFF7EAFF0C480D49CE
:1031D0000D4A002302E0D458C4500433C4188C4272
:1031E000F9D30A4A0A4C002301E013600432A242D8
:1031F000FBD304F061FDFFF747FB7047000002209E
:1032000000000020D4000020A0870008D400002087
:10321000CC4D0020FEE7000080B500AF0E4B1B68D0
:103220000D4A43F4007313600B4B1B680A4A43F4C6
:1032300080631360084B1B68074A43F48073136074
:10324000032000F0D8F80F20FFF7C8FEFFF7ACFD11
:103250000023184680BD00BF003C024080B400AF90
:10326000064B1B781A46064B1B681344044A13602E
:1032700000BFBD465DF8047B704700BF7C000020A6
:103280009802002080B400AF034B1B681846BD466F
:103290005DF8047B704700BF9802002080B485B0C1
:1032A00000AF78607B6803F00703FB600C4BDB68C2
:1032B000BB60BA684FF6FF031340BB60FB681A029D
:1032C000BB68134343F0BF6343F40033BB60044A5D
:1032D000BB68D36000BF1437BD465DF8047B704700
:1032E00000ED00E080B400AF044BDB681B0A03F084
:1032F00007031846BD465DF8047B704700ED00E00B
:1033000080B483B000AF0346FB7197F90730002B00
:103310000BDBFB7903F01F02074997F907305B09C4
:10332000012000FA02F241F8232000BF0C37BD460D
:103330005DF8047B704700BF00E100E080B483B01B
:1033400000AF03463960FB7197F90730002B0ADBA9
:103350003B68DAB20C4997F907301201D2B20B443C
:1033600083F800230AE03B68DAB20849FB7903F0EE
:103370000F03043B1201D2B20B441A7600BF0C3784
:10338000BD465DF8047B704700E100E000ED00E021
:1033900080B489B000AFF860B9607A60FB6803F070
:1033A0000703FB61FB69C3F10703042B28BF042358
:1033B000BB61FB690433062B02D9FB69033B00E0C8
:1033C00000237B614FF0FF32BB6902FA03F3DA435B
:1033D000BB681A407B699A404FF0FF317B6901FA64
:1033E00003F3D9437B680B40134318462437BD468B
:1033F0005DF8047B704780B582B000AF7860786874
:10340000FFF74CFF00BF0837BD4680BD80B586B0D2
:1034100000AF0346B9607A60FB7300237B61FFF75E
:1034200061FF78617A68B9687869FFF7B1FF024691
:1034300097F90F3011461846FFF780FF00BF183785
:10344000BD4680BD80B582B000AF0346FB7197F9E1
:1034500007301846FFF754FF00BF0837BD4680BD50
:1034600080B489B000AF7860396000237B610023AD
:103470003B610023BB610023FB6159E10122FB6931
:1034800002FA03F37B613B681B687A6913403B6176
:103490003A697B699A4240F048813B685B6803F077
:1034A0000303012B05D03B685B6803F00303022B89
:1034B00030D17B689B68BB61FB695B00032202FA29
:1034C00003F3DB43BA691340BB613B68DA68FB690D
:1034D0005B0002FA03F3BA691343BB617B68BA6904
:1034E0009A607B685B68BB610122FB6902FA03F3A7
:1034F000DB43BA691340BB613B685B681B0903F09F
:103500000102FB6902FA03F3BA691343BB617B68EA
:10351000BA695A603B685B6803F00303032B17D05A
:103520007B68DB68BB61FB695B00032202FA03F383
:10353000DB43BA691340BB613B689A68FB695B0077
:1035400002FA03F3BA691343BB617B68BA69DA60B4
:103550003B685B6803F00303022B23D1FB69DA08A5
:103560007B68083253F82230BB61FB6903F0070324
:103570009B000F2202FA03F3DB43BA691340BB61DD
:103580003B681A69FB6903F007039B0002FA03F327
:10359000BA691343BB61FB69DA087B680832B96911
:1035A00043F822107B681B68BB61FB695B00032248
:1035B00002FA03F3DB43BA691340BB613B685B6803
:1035C00003F00302FB695B0002FA03F3BA691343D9
:1035D000BB617B68BA691A603B685B6803F440337F
:1035E000002B00F0A2800023FB60574B5B6C564A17
:1035F00043F480435364544B5B6C03F48043FB609F
:10360000FB68524AFB699B08023352F82330BB61C6
:10361000FB6903F003039B000F2202FA03F3DB4371
:10362000BA691340BB617B68494A934219D07B68F1
:10363000484A934213D07B68474A93420DD07B6837
:10364000464A934207D07B68454A934201D10423FE
:1036500008E0072306E0032304E0022302E001233D
:1036600000E00023FA6902F0030292009340BA6975
:103670001343BB613549FB699B080233BA6941F8C2
:103680002320384B9B68BB613B69DB43BA6913401D
:10369000BB613B685B6803F48013002B03D0BA69FD
:1036A0003B691343BB612F4ABB6993602D4BDB68B9
:1036B000BB613B69DB43BA691340BB613B685B6834
:1036C00003F40013002B03D0BA693B691343BB61B9
:1036D000244ABB69D360234B5B68BB613B69DB4316
:1036E000BA691340BB613B685B6803F40033002B8D
:1036F00003D0BA693B691343BB611A4ABB69536083
:10370000184B1B68BB613B69DB43BA691340BB6163
:103710003B685B6803F48033002B03D0BA693B69D4
:103720001343BB610F4ABB691360FB690133FB6143
:10373000FB690F2B7FF6A2AE00BF00BF2437BD464A
:103740005DF8047B704700BF00380240003801403C
:10375000000002400004024000080240000C024049
:1037600000100240003C014080B485B000AF78609A
:103770000B467B807B681A697B881340002B02D044
:103780000123FB7301E00023FB73FB7B1846143716
:10379000BD465DF8047B704780B483B000AF7860AD
:1037A0000B467B8013467B707B78002B03D07A8896
:1037B0007B689A6103E07B881A047B689A6100BF8A
:1037C0000C37BD465DF8047B7047000080B586B0BD
:1037D00000AF78607B68002B01D1012367E27B6832
:1037E0001B6803F00103002B75D0884B9B6803F026
:1037F0000C03042B0CD0854B9B6803F00C03082BA7
:1038000012D1824B5B6803F48003B3F5800F0BD1B8
:103810007E4B1B6803F40033002B5BD07B685B6836
:10382000002B57D1012342E27B685B68B3F5803FF0
:1038300006D1764B1B68754A43F4803313601DE054
:103840007B685B68B3F5A02F0CD1704B1B686F4A87
:1038500043F4802313606D4B1B686C4A43F4803340
:1038600013600BE0694B1B68684A23F480331360D4
:10387000664B1B68654A23F4802313607B685B6892
:10388000002B13D0FFF7FEFC386108E0FFF7FAFCCD
:1038900002463B69D31A642B01D9032307E25B4B31
:1038A0001B6803F40033002BF0D014E0FFF7EAFCB0
:1038B000386108E0FFF7E6FC02463B69D31A642B47
:1038C00001D90323F3E1514B1B6803F40033002BB0
:1038D000F0D100E000BF7B681B6803F00203002BFF
:1038E00063D04A4B9B6803F00C03002B0BD0474B73
:1038F0009B6803F00C03082B1CD1444B5B6803F45A
:103900008003002B16D1414B1B6803F00203002BF0
:1039100005D07B68DB68012B01D00123C7E13B4B5D
:103920001B6823F0F8027B681B69DB0037491343EF
:103930000B603AE07B68DB68002B20D0344B01221F
:103940001A60FFF79FFC386108E0FFF79BFC024616
:103950003B69D31A022B01D90323A8E12B4B1B6827
:1039600003F00203002BF0D0284B1B6823F0F80271
:103970007B681B69DB00254913430B6015E0244B72
:1039800000221A60FFF77EFC386108E0FFF77AFC3E
:1039900002463B69D31A022B01D9032387E11B4B53
:1039A0001B6803F00203002BF0D17B681B6803F057
:1039B0000803002B36D07B685B69002B16D0154BB3
:1039C00001221A60FFF75EFC386108E0FFF75AFC3D
:1039D00002463B69D31A022B01D9032367E10B4B43
:1039E0005B6F03F00203002BF0D01BE0094B0022B9
:1039F0001A60FFF747FC38610EE0FFF743FC024610
:103A00003B69D31A022B07D9032350E10038024047
:103A100000004742800E4742884B5B6F03F0020371
:103A2000002BEAD17B681B6803F00403002B00F035
:103A300097800023FB75814B1B6C03F08053002B98
:103A40000FD10023BB607D4B1B6C7C4A43F080533D
:103A500013647A4B1B6C03F08053BB60BB6801237B
:103A6000FB75774B1B6803F48073002B18D1744BE4
:103A70001B68734A43F480731360FFF703FC3861DB
:103A800008E0FFF7FFFB02463B69D31A022B01D97E
:103A900003230CE16A4B1B6803F48073002BF0D006
:103AA0007B689B68012B06D1644B1B6F634A43F014
:103AB000010313671CE07B689B68052B0CD15F4BEF
:103AC0001B6F5E4A43F0040313675C4B1B6F5B4A3A
:103AD00043F0010313670BE0584B1B6F574A23F069
:103AE00001031367554B1B6F544A23F004031367FC
:103AF0007B689B68002B15D0FFF7C4FB38610AE098
:103B0000FFF7C0FB02463B69D31A41F28832934269
:103B100001D90323CBE0494B1B6F03F00203002BB9
:103B2000EED014E0FFF7AEFB38610AE0FFF7AAFB26
:103B300002463B69D31A41F28832934201D90323EA
:103B4000B5E03E4B1B6F03F00203002BEED1FB7D73
:103B5000012B05D1394B1B6C384A23F08053136479
:103B60007B689B69002B00F0A180344B9B6803F0BD
:103B70000C03082B5CD07B689B69022B41D1314B35
:103B800000221A60FFF77EFB386108E0FFF77AFB3E
:103B900002463B69D31A022B01D9032387E0274B46
:103BA0001B6803F00073002BF0D17B68DA697B6837
:103BB0001B6A1A437B685B6A9B011A437B689B6A9A
:103BC0005B08013B1B041A437B68DB6A1B061B492D
:103BD00013434B601B4B01221A60FFF753FB386104
:103BE00008E0FFF74FFB02463B69D31A022B01D9CD
:103BF00003235CE0114B1B6803F00073002BF0D033
:103C000054E0104B00221A60FFF73CFB386108E0DB
:103C1000FFF738FB02463B69D31A022B01D9032375
:103C200045E0064B1B6803F00073002BF0D13DE02C
:103C30007B689B69012B07D1012338E000380240E3
:103C400000700040600047421B4B5B68FB607B6874
:103C50009B69012B28D0FB6803F480027B68DB6939
:103C60009A4221D1FB6803F03F027B681B6A9A42AB
:103C70001AD1FA6847F6C07313407A68526A920103
:103C8000934211D1FB6803F440327B689B6A5B0866
:103C9000013B1B049A4207D1FB6803F070627B680A
:103CA000DB6A1B069A4201D0012300E0002318467C
:103CB0001837BD4680BD00BF0038024080B584B0D3
:103CC00000AF786039607B68002B01D10123CCE024
:103CD000684B1B6803F007033A689A420CD9654B9E
:103CE0003A68D2B21A70634B1B6803F007033A6854
:103CF0009A4201D00123B8E07B681B6803F00203FD
:103D0000002B20D07B681B6803F00403002B05D038
:103D1000594B9B68584A43F4E05393607B681B6897
:103D200003F00803002B05D0534B9B68524A43F421
:103D300060439360504B9B6823F0F0027B689B6864
:103D40004D4913438B607B681B6803F00103002B14
:103D500044D07B685B68012B07D1474B1B6803F499
:103D60000033002B19D101237FE07B685B68022BB5
:103D700003D07B685B68032B07D13F4B1B6803F0C4
:103D80000073002B09D101236FE03B4B1B6803F04C
:103D90000203002B01D1012367E0374B9B6823F01E
:103DA00003027B685B68344913438B60FFF76AFA50
:103DB000F8600AE0FFF766FA0246FB68D31A41F2A0
:103DC0008832934201D903234FE02B4B9B6803F0C9
:103DD0000C027B685B689B009A42EBD1254B1B6809
:103DE00003F007033A689A420CD2224B3A68D2B2E7
:103DF0001A70204B1B6803F007033A689A4201D0FF
:103E0000012332E07B681B6803F00403002B08D019
:103E1000194B9B6823F4E0527B68DB681649134317
:103E20008B607B681B6803F00803002B09D0124BE2
:103E30009B6823F460427B681B69DB000E491343D7
:103E40008B6000F021F802460B4B9B681B0903F0C6
:103E50000F030A49CB5C22FA03F3094A1360094BAA
:103E60001B681846FFF7BAF8002318461037BD46FE
:103E700080BD00BF003C024000380240448700087B
:103E800074000020780000202DE9B04F90B000AF02
:103E900000237B630023FB6300233B630023BB639E
:103EA000594B9B6803F00C03082B0DD0082B00F234
:103EB000A180002B02D0042B03D09BE0534BBB63AB
:103EC0009BE0534BBB6398E04F4B5B6803F03F03B1
:103ED0007B634D4B5B6803F48003002B28D04A4B77
:103EE0005B689B0900223B627A623B6AC3F308006D
:103EF0000021474B03FB01F2002300FB03F31344B3
:103F0000434AA0FB0212FA620A46BA62FA6A1344F2
:103F1000FB627B6B0022BB61FA61D7E90623D7E91C
:103F20000A01FCF7D3FD02460B461346FB6353E040
:103F3000354B5B689B0900223B617A613B69C3F3A7
:103F4000080A4FF0000B52465B464FF000004FF05E
:103F50000001590141EAD261500102460B46B2EB21
:103F60000A0863EB0B094FF000024FF000034FEA21
:103F7000891343EA98634FEA8812B2EB080463EBB3
:103F800009054FF000024FF00003EB0043EA5473C1
:103F9000E20014461D4614EB0A033B6045EB0B039D
:103FA0007B604FF000024FF00003D7E9004529463F
:103FB0008B02214643EA915321468A021046194654
:103FC0007B6B0022BB60FA60D7E90223FCF77EFD21
:103FD00002460B461346FB630B4B5B681B0C03F05E
:103FE000030301335B003B63FA6B3B6BB2FBF3F300
:103FF000BB6302E0054BBB6300BFBB6B1846403799
:10400000BD46BDE8B08F00BF003802400024F40078
:1040100040787D0180B400AF034B1B681846BD4655
:104020005DF8047B704700BF7400002080B500AFCE
:10403000FFF7F0FF0246054B9B689B0A03F007035E
:104040000349CB5C22FA03F3184680BD00380240D6
:104050005487000880B483B000AF786039607B6813
:104060000F221A60124B9B6803F003027B685A60B0
:104070000F4B9B6803F0F0027B689A600C4B9B68C7
:1040800003F4E0527B68DA60094B9B68DB0803F4B9
:10409000E0527B681A61074B1B6803F007023B681C
:1040A0001A6000BF0C37BD465DF8047B704700BF47
:1040B00000380240003C024080B582B000AF78601A
:1040C0007B68002B01D101237BE07B685B6A002BBE
:1040D00008D17B685B68B3F5827F09D07B680022DA
:1040E000DA6105E07B6800221A617B6800225A6170
:1040F0007B6800229A627B6893F85130DBB2002B18
:1041000006D17B68002283F850207868FEF778FE9D
:104110007B68022283F851207B681B681A687B68E1
:104120001B6822F040021A607B685B6803F48272AD
:104130007B689B6803F404431A437B68DB6803F4E1
:1041400000631A437B681B6903F002031A437B6810
:104150005B6903F001031A437B689B6903F40073F6
:104160001A437B68DB6903F038031A437B681B6AD8
:1041700003F0800342EA03017B689B6A03F4005268
:104180007B681B680A431A607B689B691B0C03F001
:1041900004017B685B6A03F010027B681B680A43BA
:1041A0005A607B681B68DA697B681B6822F40062CE
:1041B000DA617B6800225A657B68012283F851200E
:1041C000002318460837BD4680BD80B588B000AFD3
:1041D000F860B9603B601346FB800023FB77FB6807
:1041E00093F85030012B01D102232DE1FB6801220D
:1041F00083F85020FFF746F8B861FB88FB82FB6824
:1042000093F85130DBB2012B02D00223FB7716E189
:10421000BB68002B02D0FB88002B02D10123FB7767
:104220000DE1FB68032283F85120FB6800225A65E8
:10423000FB68BA681A63FB68FA889A86FB68FA8892
:10424000DA86FB6800229A63FB6800229A87FB6883
:104250000022DA87FB6800225A64FB6800221A6495
:10426000FB689B68B3F5004F0FD1FB681B681A68A9
:10427000FB681B6822F040021A60FB681B681A6822
:10428000FB681B6842F480421A60FB681B681B686D
:1042900003F04003402B07D0FB681B681A68FB68DB
:1042A0001B6842F040021A60FB68DB68B3F5006FE0
:1042B0004FD1FB685B68002B02D0FB8A012B42D1F7
:1042C000FB681B6B1A88FB681B68DA60FB681B6B5A
:1042D0009A1CFB681A63FB68DB8E9BB2013B9AB2A7
:1042E000FB68DA862FE0FB681B689B6803F002031B
:1042F000022B12D1FB681B6B1A88FB681B68DA6003
:10430000FB681B6B9A1CFB681A63FB68DB8E9BB215
:10431000013B9AB2FB68DA8615E0FEF7B3FF02466E
:10432000BB69D31A3A689A4203D83B68B3F1FF3F9E
:1043300002D13B68002B06D10323FB77FB680122E7
:1043400083F851207BE0FB68DB8E9BB2002BCAD147
:1043500050E0FB685B68002B02D0FB8A012B44D144
:10436000FB681A6BFB681B680C3312781A70FB68C9
:104370001B6B5A1CFB681A63FB68DB8E9BB2013B0C
:104380009AB2FB68DA8630E0FB681B689B6803F032
:104390000203022B13D1FB681A6BFB681B680C33FA
:1043A00012781A70FB681B6B5A1CFB681A63FB6857
:1043B000DB8E9BB2013B9AB2FB68DA8615E0FEF712
:1043C00061FF0246BB69D31A3A689A4203D83B6838
:1043D000B3F1FF3F02D13B68002B06D10323FB77EB
:1043E000FB68012283F8512029E0FB68DB8E9BB239
:1043F000002BC9D1BA693968F86800F0BFF80346E4
:10440000002B02D0FB6820225A65FB689B68002BBA
:104410000AD100233B61FB681B68DB683B61FB68DA
:104420001B689B683B613B69FB685B6D002B02D09E
:104430000123FB7703E0FB68012283F85120FB682E
:10444000002283F85020FB7F18462037BD4680BDF0
:1044500080B483B000AF78607B6893F85130DBB2F2
:1044600018460C37BD465DF8047B704780B588B0B0
:1044700000AFF860B9603B601346FB71FEF702FFC6
:104480000246BB6A9B1A3A681344FB61FEF7FAFEC8
:10449000B861394B1B685B011B0DFA6902FB03F322
:1044A0007B6154E03B68B3F1FF3F50D0FEF7EAFE7A
:1044B0000246BB69D31AFA699A4202D9FB69002BFA
:1044C0003DD1FB681B685A68FB681B6822F0E0025C
:1044D0005A60FB685B68B3F5827F11D1FB689B680B
:1044E000B3F5004F04D0FB689B68B3F5806F07D12C
:1044F000FB681B681A68FB681B6822F040021A60A0
:10450000FB689B6AB3F5005F0FD1FB681B681A68F4
:10451000FB681B6822F400521A60FB681B681A686B
:10452000FB681B6842F400521A60FB68012283F8A2
:104530005120FB68002283F85020032317E07B6999
:10454000002B01D10023FB617B69013B7B61FB6890
:104550001B689A68BB681340BA689A420CBF012373
:104560000023DBB21A46FB799A429BD100231846FE
:104570002037BD4680BD00BF7400002080B588B0E4
:1045800002AFF860B9607A607B680093BB68012273
:104590000221F868FFF76AFF0346002B07D0FB688B
:1045A0005B6D43F02002FB685A65032332E01B4B2E
:1045B0001B681B4AA2FB03235B0D4FF47A7202FBBC
:1045C00003F37B61FB685B68B3F5827F12D17B6884
:1045D0000093BB6800228021F868FFF747FF03467D
:1045E000002B16D0FB685B6D43F02002FB685A6518
:1045F00003230FE07B69002B0AD07B69013B7B61C1
:10460000FB681B689B6803F08003802BF2D000E0FE
:1046100000BF002318461837BD4680BD7400002037
:10462000819F5E1680B582B000AF78607B68002BFA
:1046300001D1012341E07B6893F83D30DBB2002BD0
:1046400006D17B68002283F83C20786800F039F8B6
:104650007B68022283F83D207B681A687B680433FC
:104660001946104600F04EFA7B68012283F8462076
:104670007B68012283F83E207B68012283F83F207B
:104680007B68012283F840207B68012283F8412067
:104690007B68012283F842207B68012283F8432053
:1046A0007B68012283F844207B68012283F845203F
:1046B0007B68012283F83D20002318460837BD4659
:1046C00080BD80B483B000AF786000BF0C37BD46BA
:1046D0005DF8047B7047000080B485B000AF78605F
:1046E0007B6893F83D30DBB2012B01D0012344E01D
:1046F0007B68022283F83D207B681B68DA687B6850
:104700001B6842F00102DA607B681B681E4A934214
:1047100018D07B681B68B3F1804F13D07B681B688F
:104720001A4A93420ED07B681B68194A934209D0FB
:104730007B681B68174A934204D07B681B68164A43
:10474000934211D17B681B689B6803F00703FB60F1
:10475000FB68062B10D07B681B681A687B681B6897
:1047600042F001021A6007E07B681B681A687B68E8
:104770001B6842F001021A60002318461437BD4638
:104780005DF8047B704700BF00000140000400405A
:1047900000080040000C00400040014080B586B099
:1047A00000AF786039607B68002B01D1012397E06E
:1047B0007B6893F83D30DBB2002B06D17B6800228A
:1047C00083F83C207868FEF7B9FB7B68022283F807
:1047D0003D207B681B689B687A68126823F48043DD
:1047E00023F0070393607B681A687B6804331946DB
:1047F000104600F087F97B681B689B687B617B68CB
:104800001B689B693B617B681B681B6AFB603B689C
:104810001B687A6913437B613B6923F4407323F07F
:1048200003033B613B689A683B689B691B02134327
:104830003A6913433B613B6923F4406323F00C0363
:104840003B613B6923F4704323F0F0033B613B6819
:10485000DA683B68DB691B0213433A6913433B6127
:104860003B681B691A013B681B6A1B0313433A69C7
:1048700013433B61FB6823F02203FB60FB6823F0DA
:104880008803FB603B685A683B685B691B01134304
:10489000FA681343FB607B681B687A699A607B68DF
:1048A0001B683A699A617B681B68FA681A627B68C0
:1048B000012283F846207B68012283F83E207B6832
:1048C000012283F83F207B68012283F842207B6825
:1048D000012283F843207B68012283F83D200023D6
:1048E00018461837BD4680BD80B584B000AF7860EB
:1048F0007B681B68DB68FB607B681B681B69BB60AF
:10490000BB6803F00203002B20D0FB6803F0020316
:10491000002B1BD07B681B686FF002021A617B685A
:1049200001221A777B681B689B6903F00303002B45
:1049300003D07868FEF70AFA05E0786800F0C4F85A
:10494000786800F0CBF87B6800221A77BB6803F028
:104950000403002B20D0FB6803F00403002B1BD0C2
:104960007B681B686FF004021A617B6802221A7769
:104970007B681B689B6903F44073002B03D0786845
:10498000FEF7E4F905E0786800F09EF8786800F03A
:10499000A5F87B6800221A77BB6803F00803002B98
:1049A00020D0FB6803F00803002B1BD07B681B683A
:1049B0006FF008021A617B6804221A777B681B6813
:1049C000DB6903F00303002B03D07868FEF7BEF920
:1049D00005E0786800F078F8786800F07FF87B6888
:1049E00000221A77BB6803F01003002B20D0FB686D
:1049F00003F01003002B1BD07B681B686FF01002C4
:104A00001A617B6808221A777B681B68DB6903F4EC
:104A10004073002B03D07868FEF798F905E07868BA
:104A200000F052F8786800F059F87B6800221A7795
:104A3000BB6803F00103002B0CD0FB6803F00103FB
:104A4000002B07D07B681B686FF001021A61786841
:104A5000FEF76CF9BB6803F08003002B0CD0FB68F9
:104A600003F08003002B07D07B681B686FF0800287
:104A70001A61786800F04AF9BB6803F04003002B24
:104A80000CD0FB6803F04003002B07D07B681B6849
:104A90006FF040021A61786800F02AF8BB6803F0F2
:104AA0002003002B0CD0FB6803F02003002B07D061
:104AB0007B681B686FF020021A61786800F01CF9AF
:104AC00000BF1037BD4680BD80B483B000AF7860B2
:104AD00000BF0C37BD465DF8047B704780B483B0DF
:104AE00000AF786000BF0C37BD465DF8047B7047AF
:104AF00080B483B000AF786000BF0C37BD465DF86E
:104B0000047B704780B485B000AF786039607B6803
:104B10001B68FB607B683A4A93420FD07B68B3F115
:104B2000804F0BD07B68374A934207D07B68364A68
:104B3000934203D07B68354A934208D1FB6823F047
:104B40007003FB603B685B68FA681343FB607B683B
:104B50002B4A93421BD07B68B3F1804F17D07B6800
:104B6000284A934213D07B68274A93420FD07B6830
:104B7000264A93420BD07B68254A934207D07B6834
:104B8000244A934203D07B68234A934208D1FB68AE
:104B900023F44073FB603B68DB68FA681343FB60F7
:104BA000FB6823F080023B685B691343FB607B6812
:104BB000FA681A603B689A687B68DA623B681A6830
:104BC0007B689A627B680E4A934203D13B681A69FC
:104BD0007B681A637B6801225A617B681B6903F05A
:104BE0000103012B05D17B681B6923F001027B685F
:104BF0001A6100BF1437BD465DF8047B704700BFE3
:104C0000000001400004004000080040000C00408B
:104C100000400140004401400048014080B485B09C
:104C200000AF786039607B6893F83C30012B01D18C
:104C3000022350E07B68012283F83C207B6802223B
:104C400083F83D207B681B685B68FB607B681B68A2
:104C50009B68BB60FB6823F07003FB603B681B68CC
:104C6000FA681343FB607B681B68FA685A607B68CC
:104C70001B681C4A934218D07B681B68B3F1804FB5
:104C800013D07B681B68184A93420ED07B681B6860
:104C9000164A934209D07B681B68154A934204D098
:104CA0007B681B68134A93420CD1BB6823F08003D6
:104CB000BB603B685B68BA681343BB607B681B687A
:104CC000BA689A607B68012283F83D207B680022E5
:104CD00083F83C20002318461437BD465DF8047B5A
:104CE000704700BF00000140000400400008004081
:104CF000000C00400040014080B483B000AF7860F9
:104D000000BF0C37BD465DF8047B704780B483B0AC
:104D100000AF786000BF0C37BD465DF8047B70477C
:104D200080B483B000AF03463960FB7197F9073058
:104D3000002B0ADB3B68DAB20C4997F90730120105
:104D4000D2B20B4483F800230AE03B68DAB2084988
:104D5000FB7903F00F03043B1201D2B20B441A7625
:104D600000BF0C37BD465DF8047B704700E100E0F2
:104D700000ED00E080B500AF054B1B6801F046FD7B
:104D80000346012B01D002F07FFC00BF80BD00BFB5
:104D900010E000E080B500AF00216FF00400FFF7E5
:104DA000BFFF00BF80BD000080B483B000AFEFF351
:104DB00005833B603B68002B03D06FF005037B60ED
:104DC0000CE00A4B1B68002B05D1084B01221A602E
:104DD00000237B6002E04FF0FF337B607B68184666
:104DE0000C37BD465DF8047B704700BF9C02002075
:104DF00080B582B000AFEFF305833B603B68002BCA
:104E000003D06FF005037B6010E00B4B1B68012B98
:104E100009D1FFF7BFFF084B02221A6001F092F898
:104E200000237B6002E04FF0FF337B607B68184615
:104E30000837BD4680BD00BF9C02002080B58EB003
:104E400004AFF860B9607A6000233B61EFF305833B
:104E50007B617B69002B7ED1FB68002B7BD080239C
:104E60003B621823FB6100237B624FF0FF33BB6181
:104E70007B68002B45D07B681B68002B02D07B68C9
:104E80001B687B627B689B69002B02D07B689B69F7
:104E9000FB61FB69002B08D0FB69382B05D87B68C8
:104EA0005B6803F00103002B01D0002354E07B6812
:104EB0005B69002B03D07B685B699B083B627B6866
:104EC0009B68002B0ED07B68DB68A72B0AD97B6818
:104ED0001B69002B06D07B685B69002B02D0012385
:104EE000BB6110E07B689B68002B0CD17B68DB68A2
:104EF000002B08D17B681B69002B04D10023BB6108
:104F000001E00023BB61BB69012B10D17B681B69E9
:104F10007A68926802920193FB690093BB683A6ACF
:104F2000796AF86800F01AFE03463B6113E0BB693A
:104F3000002B10D13B6A9AB207F110030193FB6971
:104F40000093BB68796AF86800F068FE0346012B9D
:104F500001D000233B613B6918462837BD4680BD20
:104F600080B584B000AF7860EFF30583BB60BB68A9
:104F7000002B03D06FF00503FB6007E00023FB600C
:104F80007B68002B02D0786800F0A6FFFB6818460B
:104F90001037BD4680BD000080B485B000AFF8601A
:104FA000B9607A60FB68074A1A60BB68064A1A60F3
:104FB0007B6880221A6000BF1437BD465DF8047B11
:104FC000704700BFA00200204803002080B485B0D5
:104FD00000AFF860B9607A60FB68074A1A60BB6886
:104FE000064A1A607B684FF480721A6000BF14375B
:104FF000BD465DF8047B704748050020F0050020A1
:1050000080B483B000AF78607B6803F108027B68EE
:105010005A607B684FF0FF329A607B6803F10802A8
:105020007B68DA607B6803F108027B681A617B6841
:1050300000221A6000BF0C37BD465DF8047B704744
:1050400080B483B000AF78607B6800221A6100BF33
:105050000C37BD465DF8047B704780B485B000AF67
:10506000786039607B685B68FB603B68FA685A600F
:10507000FB689A683B689A60FB689B683A685A606C
:10508000FB683A689A603B687A681A617B681B68BB
:105090005A1C7B681A6000BF1437BD465DF8047B5C
:1050A000704780B485B000AF786039603B681B689A
:1050B000BB60BB68B3F1FF3F03D17B681B69FB603A
:1050C0000CE07B680833FB6002E0FB685B68FB6018
:1050D000FB685B681B68BA689A42F6D2FB685A683C
:1050E0003B685A603B685B683A689A603B68FA685C
:1050F0009A60FB683A685A603B687A681A617B6814
:105100001B685A1C7B681A6000BF1437BD465DF8E7
:10511000047B704780B485B000AF78607B681B6902
:10512000FB607B685B687A6892689A607B689B68C2
:105130007A6852685A60FB685B687A689A4203D161
:105140007B689A68FB685A607B6800221A61FB687A
:105150001B685A1EFB681A60FB681B6818461437E8
:10516000BD465DF8047B704780B584B000AF7860C1
:1051700039607B68FB60FB68002B0BD14FF050035C
:1051800083F31188BFF36F8FBFF34F8FBB6000BFF6
:1051900000BFFDE702F0E8F9FB681A68FB68DB6B0B
:1051A000F968096C01FB03F31A44FB689A60FB6819
:1051B00000229A63FB681A68FB685A60FB681A68E9
:1051C000FB68DB6B013BF968096C01FB03F31A44D4
:1051D000FB68DA60FB68FF2283F84420FB68FF224B
:1051E00083F845203B68002B14D1FB681B69002B1A
:1051F0001AD0FB681033184601F042F90346002B21
:1052000012D00D4B4FF080521A60BFF34F8FBFF397
:105210006F8F09E0FB6810331846FFF7F1FEFB685B
:1052200024331846FFF7ECFE02F0D0F901231846AC
:105230001037BD4680BD00BF04ED00E080B58EB0E4
:1052400002AFF860B9607A603B60FB68002B0BD15D
:105250004FF0500383F31188BFF36F8FBFF34F8F6D
:10526000BB6200BF00BFFDE73B68002B0BD14FF0D6
:10527000500383F31188BFF36F8FBFF34F8F7B62AF
:1052800000BF00BFFDE77B68002B02D0BB68002B8E
:1052900001D0012300E00023002B0BD14FF050037D
:1052A00083F31188BFF36F8FBFF34F8F3B6200BF53
:1052B00000BFFDE77B68002B02D1BB68002B01D14A
:1052C000012300E00023002B0BD14FF0500383F3A8
:1052D0001188BFF36F8FBFF34F8FFB6100BF00BF1B
:1052E000FDE750237B617B69502B0BD04FF05003BF
:1052F00083F31188BFF36F8FBFF34F8FBB6100BF84
:1053000000BFFDE77B693B68FB62FB6A002B0DD0A9
:10531000FB6A012283F8462097F83820FB6A009345
:1053200013467A68B968F86800F005F8FB6A184611
:105330003037BD4680BD80B584B000AFF860B9603D
:105340007A60FB70BB68002B03D1BB69BA691A6035
:1053500002E0BB697A681A60BB69FA68DA63BB6904
:10536000BA681A640121B869FFF7FEFEBB69FA78D2
:1053700083F84C2000BF1037BD4680BD80B58EB08D
:1053800000AFF860B9607A603B6000237B63FB6824
:105390003B633B6B002B0BD14FF0500383F3118821
:1053A000BFF36F8FBFF34F8FBB6200BF00BFFDE73E
:1053B000BB68002B03D13B6B1B6C002B01D101237D
:1053C00000E00023002B0BD14FF0500383F3118832
:1053D000BFF36F8FBFF34F8F7B6200BF00BFFDE74E
:1053E0003B68022B03D13B6BDB6B012B01D101230B
:1053F00000E00023002B0BD14FF0500383F3118802
:10540000BFF36F8FBFF34F8F3B6200BF00BFFDE75D
:1054100001F0FCF90346002B02D17B68002B01D17F
:10542000012300E00023002B0BD14FF0500383F346
:105430001188BFF36F8FBFF34F8FFB6100BF00BFB9
:10544000FDE702F091F83B6B9A6B3B6BDB6B9A428A
:1054500002D33B68022B29D13A68B968386B00F057
:105460000FFAF8623B6B5B6A002B10D03B6B243366
:10547000184601F005F80346002B13D03F4B4FF0C0
:1054800080521A60BFF34F8FBFF36F8F0AE0FB6A41
:10549000002B07D0394B4FF080521A60BFF34F8F6B
:1054A000BFF36F8F02F092F8012363E07B68002B5B
:1054B00003D102F08BF800235CE07B6B002B06D15C
:1054C00007F11403184601F03FF801237B6302F053
:1054D0007DF800F0A7FD02F047F83B6B93F84430ED
:1054E0005BB2B3F1FF3F03D13B6B002283F8442052
:1054F0003B6B93F845305BB2B3F1FF3F03D13B6B9D
:10550000002283F8452002F061F83A1D07F11403E8
:105510001146184601F02EF80346002B24D1386BB3
:1055200000F0A6FA0346002B18D03B6B10337A68C4
:105530001146184600F052FF386B00F031FA00F0C7
:105540007FFD0346002B7FF47CAF0C4B4FF0805265
:105550001A60BFF34F8FBFF36F8F72E7386B00F0A5
:105560001FFA00F06DFD6CE7386B00F019FA00F0DF
:1055700067FD002318463837BD4680BD04ED00E0C6
:1055800080B590B000AFF860B9607A603B60FB68AE
:10559000BB63BB6B002B0BD14FF0500383F311881F
:1055A000BFF36F8FBFF34F8FBB6200BF00BFFDE73C
:1055B000BB68002B03D1BB6B1B6C002B01D10123FB
:1055C00000E00023002B0BD14FF0500383F3118830
:1055D000BFF36F8FBFF34F8F7B6200BF00BFFDE74C
:1055E0003B68022B03D1BB6BDB6B012B01D1012389
:1055F00000E00023002B0BD14FF0500383F3118800
:10560000BFF36F8FBFF34F8F3B6200BF00BFFDE75B
:1056100002F08AF8EFF311824FF0500383F3118800
:10562000BFF36F8FBFF34F8FFA61BB61FB697B6381
:10563000BB6B9A6BBB6BDB6B9A4202D33B68022B52
:105640002FD1BB6B93F8453087F83330BB6B9B6B26
:10565000FB623A68B968B86B00F012F997F9333019
:10566000B3F1FF3F12D1BB6B5B6A002B16D0BB6B53
:105670002433184600F004FF0346002B0ED07B684D
:10568000002B0BD07B6801221A6007E097F83330BB
:105690000133DBB25AB2BB6B83F845200123FB63B5
:1056A00001E00023FB637B6B7B617B6983F31188E3
:1056B00000BFFB6B18464037BD4680BD80B58CB03F
:1056C00000AFF860B9607A600023FB62FB68BB62E0
:1056D000BB6A002B0BD14FF0500383F31188BFF34B
:1056E0006F8FBFF34F8F3B6200BF00BFFDE7BB680A
:1056F000002B03D1BB6A1B6C002B01D1012300E0FE
:105700000023002B0BD14FF0500383F31188BFF31C
:105710006F8FBFF34F8FFB6100BF00BFFDE701F04C
:1057200075F80346002B02D17B68002B01D10123C1
:1057300000E00023002B0BD14FF0500383F31188BE
:10574000BFF36F8FBFF34F8FBB6100BF00BFFDE79B
:1057500001F00AFFBB6A9B6B7B627B6A002B1FD048
:10576000B968B86A00F0F6F87B6A5A1EBB6A9A6399
:10577000BB6A1B69002B0FD0BB6A1033184600F0C0
:105780007FFE0346002B07D03C4B4FF080521A603F
:10579000BFF34F8FBFF36F8F01F018FF012369E054
:1057A0007B68002B03D101F011FF002362E0FB6A4C
:1057B000002B06D107F11003184600F0C5FE0123A7
:1057C000FB6201F003FF00F02DFC01F0CDFEBB6A8F
:1057D00093F844305BB2B3F1FF3F03D1BB6A0022C0
:1057E00083F84420BB6A93F845305BB2B3F1FF3FC6
:1057F00003D1BB6A002283F8452001F0E7FE3A1D81
:1058000007F110031146184600F0B4FE0346002BC2
:1058100023D1B86A00F016F90346002B17D0BB6AF3
:1058200024337A681146184600F0D8FDB86A00F0B3
:10583000B7F800F005FC0346002B89D10F4B4FF061
:1058400080521A60BFF34F8FBFF36F8F80E7B86A43
:1058500000F0A6F800F0F4FB7AE7B86A00F0A0F8D0
:1058600000F0EEFBB86A00F0EDF80346002B3FF4C1
:105870006FAF002318463037BD4680BD04ED00E011
:1058800080B586B000AFF860B9607A6000237B61B4
:10589000FB689B6B3B61FB681B6C002B0DD1FB68AD
:1058A0001B68002B4DD1FB689B68184600F0CCFFAD
:1058B0007861FB6800229A6043E07B68002B19D175
:1058C000FB685868FB681B6C1A46B96802F01AFA44
:1058D000FB685A68FB681B6C1A44FB685A60FB68DB
:1058E0005A68FB689B689A422BD3FB681A68FB686E
:1058F0005A6026E0FB68D868FB681B6C1A46B968DA
:1059000002F000FAFB68DA68FB681B6C5B421A4421
:10591000FB68DA60FB68DA68FB681B689A4207D2AA
:10592000FB689A68FB681B6C5B421A44FB68DA6090
:105930007B68022B05D13B69002B02D03B69013B00
:105940003B613B695A1CFB689A637B6918461837B0
:10595000BD4680BD80B582B000AF786039607B689D
:105960001B6C002B18D07B68DA687B681B6C1A44B0
:105970007B68DA607B68DA687B689B689A4203D34D
:105980007B681A687B68DA607B68D9687B681B6C07
:105990001A46386802F0B6F900BF0837BD4680BD28
:1059A00080B584B000AF786001F0DEFD7B6893F8CD
:1059B0004530FB7311E07B685B6A002B12D07B687B
:1059C0002433184600F05CFD0346002B01D000F0A4
:1059D00035FEFB7B013BDBB2FB7397F90F30002BED
:1059E000E9DC00E000BF7B68FF2283F8452001F07E
:1059F000EDFD01F0B9FD7B6893F84430BB7311E015
:105A00007B681B69002B12D07B681033184600F0AE
:105A100037FD0346002B01D000F010FEBB7B013B9D
:105A2000DBB2BB7397F90E30002BE9DC00E000BF5E
:105A30007B68FF2283F8442001F0C8FD00BF1037C7
:105A4000BD4680BD80B584B000AF786001F08CFDAC
:105A50007B689B6B002B02D10123FB6001E00023DC
:105A6000FB6001F0B3FDFB6818461037BD4680BDF2
:105A700080B584B000AF786001F076FD7B689A6BEA
:105A80007B68DB6B9A4202D10123FB6001E00023BB
:105A9000FB6001F09BFDFB6818461037BD4680BDDA
:105AA00080B485B000AF786039600023FB6014E0FB
:105AB0000F4AFB6852F83330002B0BD10C49FB68BE
:105AC0003A6841F833200A4AFB68DB0013447A68DD
:105AD0005A6006E0FB680133FB60FB68072BE7D9DF
