:020000040800F2
:10000000000002206D2C0008912B0008992B00089D
:10001000A12B0008A92B0008B12B0008000000004C
:10002000000000000000000000000000E16900087E
:10003000B92B000800000000316C000809460008D8
:10004000BD2C0008BD2C0008BD2C0008BD2C0008EC
:10005000BD2C0008BD2C0008BD2C0008BD2C0008DC
:10006000BD2C0008BD2C0008BD2C0008BD2C0008CC
:10007000BD2C0008BD2C0008BD2C0008BD2C0008BC
:10008000BD2C0008BD2C0008BD2C0008000000009D
:10009000000000000000000000000000BD2C00086F
:1000A000BD2C0008BD2C0008BD2C0008BD2C00088C
:1000B000C92B0008BD2C0008BD2C0008BD2C000871
:1000C000BD2C0008BD2C0008BD2C0008BD2C00086C
:1000D000BD2C0008BD2C0008BD2C0008000000004D
:1000E000BD2C0008BD2C0008BD2C0008000000003D
:1000F000000000000000000000000000BD2C00080F
:1001000000000000BD2C0008BD2C0008BD2C00081C
:1001100000000000000000000000000000000000DF
:10012000BD2C0008BD2C0008BD2C0008BD2C00080B
:10013000BD2C0008000000000000000000000000CE
:10014000000000000000000000000000BD2C0008BE
:10015000BD2C0008BD2C0008BD2C0008BD2C0008DB
:10016000BD2C0008BD2C00080000000000000000AD
:10017000000000000000000000000000000000007F
:1001800000000000BD2C000800000000000000007E
:08019000BD2C0008BD2C000885
:1001A00010B5054C237833B9044B13B10448AFF3B1
:1001B00000800123237010BDB80000200000000063
:1001C000AC7B000808B5034B1BB103490348AFF3F0
:1001D000008008BD00000000BC000020AC7B0008CF
:1001E000034613F8012B002AFBD1181A0138704777
:1001F00001F0FF01102A2BDB10F0070F08D010F8D8
:10020000013B013A8B422DD010F0070F42B3F6D1DB
:10021000F0B441EA012141EA014122F007047FF0F4
:1002200000070023F0E80256083C85EA010586EA4B
:10023000010685FA47F5A3FA87F586FA47F6A5FA87
:1002400087F68EB9EED1F0BC01F0FF0102F0070293
:1002500032B110F8013B013A83EA010313B1F8D13E
:100260000020704701387047002D06BF354603381F
:10027000073815F0010F07D1013015F4807F02BF58
:10028000013015F4C03F0130F0BC0138704700BFA9
:1002900081F0004102E000BF83F0004330B54FEA37
:1002A00041044FEA430594EA050F08BF90EA020FA4
:1002B0001FBF54EA000C55EA020C7FEA645C7FEA37
:1002C000655C00F0E2804FEA5454D4EB5555B8BF5A
:1002D0006D420CDD2C4480EA020281EA030382EACB
:1002E000000083EA010180EA020281EA0303362D5D
:1002F00088BF30BD11F0004F4FEA01314FF4801C30
:100300004CEA113102D0404261EB410113F0004F41
:100310004FEA03334CEA133302D0524263EB4303F8
:1003200094EA050F00F0A780A4F10104D5F1200E96
:100330000DDB02FA0EFC22FA05F2801841F10001F1
:1003400003FA0EF2801843FA05F359410EE0A5F1C5
:1003500020050EF1200E012A03FA0EFC28BF4CF0F6
:10036000020C43FA05F3C01851EBE37101F00045AC
:1003700007D54FF0000EDCF1000C7EEB00006EEBB9
:100380000101B1F5801F1BD3B1F5001F0CD3490843
:100390005FEA30004FEA3C0C04F101044FEA44529A
:1003A00012F5800F80F09A80BCF1004F08BF5FEA21
:1003B000500C50F1000041EB045141EA050130BD01
:1003C0005FEA4C0C404141EB0101013C28BFB1F513
:1003D000801FE9D291F0000F04BF01460020B1FA5E
:1003E00081F308BF2033A3F10B03B3F120020CDA31
:1003F0000C3208DD02F1140CC2F10C0201FA0CF00F
:1004000021FA02F10CE002F11402D8BFC2F1200C73
:1004100001FA02F120FA0CFCDCBF41EA0C01904029
:10042000E41AA2BF01EB0451294330BD6FEA040472
:100430001F3C1CDA0C340EDC04F11404C4F120025D
:1004400020FA04F001FA02F340EA030021FA04F36F
:1004500045EA030130BDC4F10C04C4F1200220FAC6
:1004600002F001FA04F340EA0300294630BD21FA04
:1004700004F0294630BD94F0000F83F4801306BFCA
:1004800081F480110134013D4EE77FEA645C18BFBE
:100490007FEA655C29D094EA050F08BF90EA020F55
:1004A00005D054EA000C04BF1946104630BD91EA4D
:1004B000030F1EBF0021002030BD5FEA545C05D150
:1004C0004000494128BF41F0004130BD14F580048F
:1004D0003CBF01F5801130BD01F0004545F0FE4103
:1004E00041F470014FF0000030BD7FEA645C1ABF38
:1004F000194610467FEA655C1CBF0B46024650EA6F
:10050000013406BF52EA033591EA030F41F400219A
:1005100030BD00BF90F0000F04BF0021704730B520
:100520004FF4806404F132044FF000054FF00001F5
:1005300050E700BF90F0000F04BF0021704730B5B6
:100540004FF4806404F1320410F0004548BF40428B
:100550004FF000013EE700BF42004FEAE2014FEAE0
:1005600031014FEA02701FBF12F07F4393F07F4FBB
:1005700081F06051704732F07F4208BF704793F0BE
:100580007F4F04BF41F40021704730B54FF46074D1
:1005900001F0004521F000411CE700BF50EA0102D4
:1005A00008BF704730B54FF000050AE050EA01027D
:1005B00008BF704730B511F0004502D5404261EBED
:1005C00041014FF4806404F132045FEA915C3FF42E
:1005D000D8AE4FF003025FEADC0C18BF03325FEACB
:1005E000DC0C18BF033202EBDC02C2F1200300FA7C
:1005F00003FC20FA02F001FA03FE40EA0E0021FAA1
:1006000002F11444BDE600BF70B54FF0FF0C4CF48E
:10061000E06C1CEA11541DBF1CEA135594EA0C0F40
:1006200095EA0C0F00F0DEF82C4481EA030621EA7B
:100630004C5123EA4C5350EA013518BF52EA0335B6
:1006400041F4801143F4801338D0A0FB02CE4FF068
:100650000005E1FB02E506F00042E0FB03E54FF098
:100660000006E1FB03569CF0000F18BF4EF0010E90
:10067000A4F1FF04B6F5007F64F5407404D25FEA8C
:100680004E0E6D4146EB060642EAC62141EA55513F
:100690004FEAC52040EA5E504FEACE2EB4F1FD0C81
:1006A00088BFBCF5E06F1ED8BEF1004F08BF5FEAFF
:1006B000500E50F1000041EB045170BD06F00046B1
:1006C00046EA010140EA020081EA0301B4EB5C045E
:1006D000C2BFD4EB0C0541EA045170BD41F4801156
:1006E0004FF0000E013C00F3AB8014F1360FDEBF7B
:1006F000002001F0004170BDC4F10004203C35DA57
:100700000C341BDC04F11404C4F1200500FA05F3D9
:1007100020FA04F001FA05F240EA020001F000427A
:1007200021F0004110EBD37021FA04F642EB0601F0
:100730005EEA430E08BF20EAD37070BDC4F10C041A
:10074000C4F1200500FA04F320FA05F001FA04F2DE
:1007500040EA020001F0004110EBD37041F10001CA
:100760005EEA430E08BF20EAD37070BDC4F12005D5
:1007700000FA05F24EEA020E20FA04F301FA05F23D
:1007800043EA020321FA04F001F0004121FA04F2E5
:1007900020EA020000EBD3705EEA430E08BF20EAB5
:1007A000D37070BD94F0000F0FD101F000464000EF
:1007B00041EB010111F4801F08BF013CF7D041EA71
:1007C000060195F0000F18BF704703F00046520075
:1007D00043EB030313F4801F08BF013DF7D043EA46
:1007E0000603704794EA0C0F0CEA135518BF95EAFC
:1007F0000C0F0CD050EA410618BF52EA4306D1D183
:1008000081EA030101F000414FF0000070BD50EAA1
:10081000410606BF1046194652EA430619D094EA2B
:100820000C0F02D150EA013613D195EA0C0F05D115
:1008300052EA03361CBF104619460AD181EA030169
:1008400001F0004141F0FE4141F470014FF0000021
:1008500070BD41F0FE4141F4780170BD70B54FF0BC
:10086000FF0C4CF4E06C1CEA11541DBF1CEA13553C
:1008700094EA0C0F95EA0C0F00F0A7F8A4EB05041E
:1008800081EA030E52EA03354FEA013100F0888015
:100890004FEA03334FF0805545EA131343EA1263DE
:1008A0004FEA022245EA111545EA10654FEA002693
:1008B0000EF000419D4208BF964244F1FD0404F54C
:1008C000407402D25B084FEA3202B61A65EB0305A8
:1008D0005B084FEA32024FF480104FF4002CB6EB65
:1008E000020E75EB030E22BFB61A754640EA0C00E5
:1008F0005B084FEA3202B6EB020E75EB030E22BF25
:10090000B61A754640EA5C005B084FEA3202B6EB65
:10091000020E75EB030E22BFB61A754640EA9C0024
:100920005B084FEA3202B6EB020E75EB030E22BFF4
:10093000B61A754640EADC0055EA060E18D04FEAB2
:10094000051545EA16754FEA06164FEAC30343EA52
:1009500052734FEAC2025FEA1C1CC0D111F4801F1F
:100960000BD141EA00014FF000004FF0004CB6E718
:1009700011F4801F04BF01430020B4F1FD0C88BFB7
:10098000BCF5E06F3FF6AFAEB5EB030C04BFB6EBC2
:10099000020C5FEA500C50F1000041EB045170BDB5
:1009A0000EF0004E4EEA113114EB5C04C2BFD4EBE2
:1009B0000C0541EA045170BD41F480114FF0000E66
:1009C000013C90E645EA060E8DE60CEA135594EAE2
:1009D0000C0F08BF95EA0C0F3FF43BAF94EA0C0FE5
:1009E0000AD150EA01347FF434AF95EA0C0F7FF45A
:1009F00025AF104619462CE795EA0C0F06D152EAAE
:100A000003353FF4FDAE1046194622E750EA410691
:100A100018BF52EA43067FF4C5AE50EA41047FF4A2
:100A20000DAF52EA43057FF4EBAE12E74A0011D254
:100A300012F5001211D20DD56FF47873B3EB625238
:100A40000ED44FEAC12343F0004343EA505323FA44
:100A500002F070474FF00000704750EA013002D1B9
:100A60004FF0FF3070474FF00000704753B94AB95C
:100A7000002908BF00281CBF4FF0FF314FF0FF30A6
:100A800000F06AB9ADF1080C6DE904CE00F006F88B
:100A9000DDF804E0DDE9022304B070472DE9F047FA
:100AA000089D0C46002B4ED194468C458646B2FAE2
:100AB00082F262D94AB1C2F12003914020FA03F3D5
:100AC0000CFA02FC194300FA02FE4FEA1C471FFA17
:100AD0008CF6B1FBF7F44FEA1E4307FB141143EA0F
:100AE000014304FB06F199420AD91CEB030304F10C
:100AF000FF3080F01281994240F20F81023C634442
:100B0000591A1FFA8EF3B1FBF7F007FB101143EAF5
:100B1000014300FB06F69E420AD91CEB030300F1D9
:100B2000FF3180F0FC809E4240F2F980634402383D
:100B30009B1B40EA044000211DB1D3400022C5E9BF
:100B40000032BDE8F0878B4205D90DB1C5E900013F
:100B500000210846F5E7B3FA83F1002946D1A34204
:100B600002D39042C0F0F080861A64EB03030120A8
:100B7000002DE6D0C5E90063E3E7002A40F090804D
:100B8000A1EB0C044FEA1C481FFA8CF70121B4FBBF
:100B9000F8F64FEA1E4308FB164443EA044307FBFA
:100BA00006F0984208D91CEB030306F1FF3402D289
:100BB000984200F2CD8026461C1A1FFA8EF3B4FB31
:100BC000F8F008FB104443EA044300FB07F79F4298
:100BD00008D91CEB030300F1FF3402D29F4200F25C
:100BE000B0802046DB1B40EA0640A5E7C1F12006A5
:100BF0008B4022FA06F71F4320FA06FC04FA01F3A1
:100C000043EA0C03F44000FA01F8380C4FEA1349A8
:100C1000B4FBF0FE1FFA87FC00FB1E4449EA0444C3
:100C20000EFB0CF9A14502FA01F20AD93C190EF1AA
:100C3000FF3A80F08480A14540F28180AEF1020E3F
:100C40003C44A4EB09041FFA83F9B4FBF0F300FB66
:100C5000134449EA044403FB0CFCA44507D93C199E
:100C600003F1FF3067D2A44565D9023B3C4443EA17
:100C70000E40A0FB0293A4EB0C049C42CE469C4683
:100C800051D34ED055B1B8EB0E0364EB0C0404FA0B
:100C900006F6CB401E43CC40C5E90064002150E776
:100CA000C2F1200320FA03F10CFA02FC24FA03F348
:100CB00094400C434FEA1C4800FA02FE1FFA8CF7DE
:100CC000B3FBF8F008FB1031230C43EA014300FBAF
:100CD00007F1994208D91CEB030300F1FF362CD22F
:100CE00099422AD9023863445B1AA4B2B3FBF8F1E3
:100CF00008FB113344EA034401FB07F3A34208D97C
:100D00001CEB040401F1FF3613D2A34211D90239BE
:100D10006444E41A41EA004139E70446F0E6084633
:100D200006E7C845AED2B9EB020E63EB070C0138FB
:100D3000A8E73146EDE7034699E73046D4E7D646C3
:100D40007FE7634402384DE70646234608460FE72F
:100D5000023E634430E700BF704700BF80B582B0F9
:100D600000AF0346FB71FB79032B00F2C08001A2A8
:100D700052F823F0850D0008E10D00083B0E000835
:100D8000950E00080121614802F042FA0346002B4B
:100D900001D14323B5E002215C4802F039FA034651
:100DA000002B01D13723ACE00421584802F030FA7F
:100DB0000346002B01D13423A3E00821534802F05D
:100DC00027FA0346002B01D131239AE010214F4826
:100DD00002F01EFA0346002B40F08B80412390E086
:100DE00001214A4802F014FA0346002B01D13023B6
:100DF00087E00221454802F00BFA0346002B01D19F
:100E000038237EE00421414802F002FA0346002B19
:100E100001D1352375E008213C4802F0F9F9034679
:100E2000002B01D132236CE01021384802F0F0F998
:100E30000346002B5FD1422363E00121334802F0D7
:100E4000E7F90346002B01D145235AE002212F4840
:100E500002F0DEF90346002B01D1392351E00421D1
:100E60002A4802F0D5F90346002B01D1362348E089
:100E70000821264802F0CCF90346002B01D1332388
:100E80003FE01021214802F0C3F90346002B34D182
:100E9000442336E001211D4802F0BAF90346002B35
:100EA00001D154232DE00221184802F0B1F9034684
:100EB000002B01D1502324E00421144802F0A8F9AA
:100EC0000346002B01D124231BE008210F4802F028
:100ED0009FF90346002B01D14C2312E010210B484F
:100EE00002F096F90346002B09D1462309E0FF23BF
:100EF00007E000BF04E000BF02E000BF00E000BF69
:100F0000FF2318460837BD4680BD00BF00040240DD
:100F100080B582B000AF002240212C4802F090F949
:100F200001224FF46071294802F08AF90020FFF78E
:100F300015FF0346FB71FB79FF2B01D0FB7941E0E4
:100F400000228021214802F07BF901224FF45071E8
:100F50001E4802F075F90120FFF700FF0346FB7100
:100F6000FB79FF2B01D0FB792CE000224FF480713C
:100F7000164802F065F901224FF43071134802F06F
:100F80005FF90220FFF7EAFE0346FB71FB79FF2BB6
:100F900001D0FB7916E000224FF400710B4802F0FB
:100FA0004FF901224FF4E071084802F049F903209B
:100FB000FFF7D4FE0346FB71FB79FF2B01D0FB79D1
:100FC00000E0FF2318460837BD4680BD00040240FC
:100FD00080B485B000AFF860B9607A60FB681C4AE5
:100FE000934215D8FB681B4AA2FB03239A0CBB68EB
:100FF0001A60FA68174BA3FB02139B0C164901FBFE
:1010000003F3D31A7A681360144B03221A6018E0B2
:10101000FB68134AA2FB03235A0EBB681A60FA68E6
:101020000F4BA3FB02135B0E0E4901FB03F3D31A14
:101030000D4AA2FB03235A097B681A60074B012261
:101040001A6000BF1437BD465DF8047B704700BFCF
:10105000FFE0F50583DE1B4340420F0050000020F7
:10106000893BE65500E1F5051F85EB5180B485B05D
:1010700000AFF860B9607A60FB68144A934215D8F3
:10108000FB68134AA2FB03239A0CBB681A60FA6838
:101090000F4BA3FB02139B0C0E4901FB03F3D31A66
:1010A0007A6813600C4B03221A6009E0BB680022C7
:1010B0001A607B6800221A60074B4FF0FF321A60FB
:1010C00000BF1437BD465DF8047B7047FFC99A3BEB
:1010D00083DE1B4340420F0050000020B0B582B0B9
:1010E00000AF04F095FC7860FFF712FF0346FB7039
:1010F000B54B1B78032B5AD801A252F823F000BF3E
:10110000111100082B110008571100088711000861
:10111000FB78FF2B44D0AD4AFB781370AC4A7B6858
:101120001360A94B01221A703AE0A94B1B687A6838
:10113000D31A312B36D9A54B1B78FA789A4206D1AF
:10114000A14B02221A70A34A7B6813602AE09E4BCF
:1011500000221A7026E09D4B1B78FA789A420AD139
:101160009C4B1B687A68D31AB3F5967F1CD3964BB9
:1011700003221A7018E0954B1A78974B1A70924B0D
:1011800000221A7010E0914B1B78FA789A420DD029
:101190008E4B1A78904B1A708B4B00221A7005E018
:1011A00000BF04E000BF02E000BF00E000BF8A4BC8
:1011B0001B78FF2B00F0D484874B1B78243B302B0B
:1011C00000F2438401A252F823F000BFE3190008A3
:1011D0004B1A00084B1A00084B1A00084B1A00085B
:1011E0004B1A00084B1A00084B1A00084B1A00084B
:1011F0004B1A00084B1A00084B1A00084B1A00083B
:101200004B1A00084B1A00084B1A00084B1A00082A
:101210004B1A00084B1A00084B1A00084B1A00081A
:101220004B1A00084B1A00084B1A00084B1A00080A
:101230004B1A00084B1A00084B1A00084B1A0008FA
:1012400091120008391300088D1500081D140008BC
:10125000B3150008DB1400084B1A00084B1A0008ED
:101260004B1A00084B1A00084B1A0008171A0008FE
:101270004B1A00084B1A00084B1A00089B1900086B
:101280004B1A00084B1A00084B1A0008BF19000837
:10129000524B1B78002B1CD1514B42F210721A603A
:1012A0004F4B1B681846FFF735F904460D464D4B6A
:1012B0001B681846FFF72EF902460B4620462946C2
:1012C000FFF7CCFA02460B464749C1E9002300F07C
:1012D00047BC424B1B78102B23D143494FF00002EF
:1012E000424BC1E900233F4B1B681846FFF712F938
:1012F0003D4BD3E90023FFF787F902460B46104622
:101300001946FFF793FB0346354A1360334B00221F
:101310001A70374B00221A70364B00221A6000F008
:101320001FBC2E4B00221A70314B00221A70314B19
:1013300000221A6000F014BC284B1B78002B1BD134
:10134000274B43F698221A60254B1B681846FFF777
:10135000E1F804460D46234B1B681846FFF7DAF800
:1013600002460B4620462946FFF778FA02460B460E
:101370001D49C1E90023F3E3184B1B78102B3BD127
:1013800019494FF000024FF08043C1E90023154B8B
:101390001B681846FFF7BEF8134BD3E90023FFF78D
:1013A00033F902460B4610461946FFF73FFB03464A
:1013B0000B4A1360094B00221A700D4B00221A7061
:1013C0000C4B00221A60CBE3ED000020010000204E
:1013D000D4000020D800002000000020EE000020F3
:1013E000B00100204C000020B80100200000F03FB8
:1013F000E0000020DC000020A64B1B78052B03D169
:10140000A44B06221A70ABE3A24B00221A70A24B27
:1014100000221A70A14B00221A60A1E39D4B1B7899
:10142000002B1BD19E4B44F620621A609C4B1B681C
:101430001846FFF76FF804460D469A4B1B6818468E
:10144000FFF768F802460B4620462946FFF706FAE2
:1014500002460B469449C1E9002381E38D4B1B787A
:10146000102B22D190494FF00002904BC1E900238C
:101470008C4B1B681846FFF74DF88B4BD3E90023C4
:10148000FFF7C2F802460B4610461946FFF7CEFAA0
:101490000346834A13607F4B00221A707E4B002262
:1014A0001A707E4B00221A605AE37A4B1B780A2B83
:1014B00009D1784B02221A70774B00221A70774BB1
:1014C00000221A604CE3734B00221A70724B002208
:1014D0001A70724B00221A6042E36E4B1B78002B8D
:1014E0001BD16F4B4CF250321A606D4B1B68184683
:1014F000FFF710F804460D466A4B1B681846FFF7C5
:1015000009F802460B4620462946FFF7A7F902468E
:101510000B466549C1E9002322E35E4B1B78102B83
:1015200022D161494FF00002614BC1E900235D4BBC
:101530001B681846FEF7EEFF5B4BD3E90023FFF76D
:1015400063F802460B4610461946FFF76FFA03464A
:10155000534A13604F4B00221A704F4B00221A70EF
:101560004E4B00221A60FBE24A4B1B780A2B03D138
:10157000484B0E221A70F3E2464B00221A70464B7B
:1015800000221A70454B00221A60E9E20023494A02
:101590000721494805F000FE0023464A0721474835
:1015A00005F0FAFD0123434A0721454805F0F4FD03
:1015B000D6E2384B1B78002B03D1364B01221A7030
:1015C000CEE2344B1B78112B24D1344B1B68344AA8
:1015D0001360334B1B681846FEF79CFF04460D460C
:1015E000304B1B681846FEF795FF02460B46204617
:1015F0002946FFF733F902460B462B49C1E9002380
:10160000244B00221A70244B00221A70234B002214
:101610001A60A5E21F4B1B78102B26D11F4B1B68AD
:101620001846FEF777FF02460B461F49C1E9002323
:101630001C4B1B681846FEF76DFF1B4BD3E90023BC
:10164000FEF7E2FF02460B4610461946FFF7EEF999
:101650000346134A13600F4B00221A700E4B0022F0
:101660001A700E4B00221A607AE20A4B1B78082B84
:101670002AD10A4B1A68134B1B689A4224D1054B96
:1016800009221A70044B00221A70044B00221A60BF
:1016900082E100BFEE000020E0000020DC0000201E
:1016A000B00100204C000020B801002000001440D0
:1016B00000002440C47B0008240000202B000020F0
:1016C000320000203C0000209C4B1B78062B0FD1E1
:1016D0009B4B1A689B4B1B689A4209D1974B072278
:1016E0001A70994B00221A70954B00221A6053E130
:1016F000924B1B78072B7DD1914B1B68022B66D038
:10170000022B6CD8002B02D0012B30D067E08F4B1E
:101710001A688F4BA3FB02131B09322101FB03F351
:10172000D31A182B0FD8894B1968884B1A68884B25
:10173000A3FB02031B09322000FB03F3D31ACB1ACD
:10174000844A13600FE0814B1968804B1A68804B04
:10175000A3FB02031B09322000FB03F3D31ACB1AAD
:1017600032337C4A13607C4B00221A7038E0774B8E
:101770001A68774BA3FB02135B09642101FB03F397
:10178000D31A312B0FD8714B1968704B1A68704BF4
:10179000A3FB02035B09642000FB03F3D31ACB1AFB
:1017A0006C4A13600FE0694B1968684B1A68684B04
:1017B000A3FB02035B09642000FB03F3D31ACB1ADB
:1017C0006433644A1360644B01221A7008E05F4B73
:1017D0001B68604A1360604B02221A7000E000BF71
:1017E000564B00221A70584B00221A70544B00229C
:1017F0001A60B5E1514B1B78092B73D1504B1B6814
:10180000524A1360544B1B78002B02D0012B2DD071
:1018100059E04E4B1A684E4BA3FB02131B093221B1
:1018200001FB03F3D31A182B0FD8484B1968474B09
:101830001A68474BA3FB02031B09322000FB03F38A
:10184000D31ACB1A434A136042E0404B19683F4B0E
:101850001A683F4BA3FB02031B09322000FB03F372
:10186000D31ACB1A32333B4A136031E0374B1A6834
:10187000374BA3FB02135B09642101FB03F3D31A6B
:10188000312B0FD8314B1968304B1A68304BA3FB02
:1018900002035B09642000FB03F3D31ACB1A2D4A21
:1018A000136015E0294B1968284B1A68284BA3FBD5
:1018B00002035B09642000FB03F3D31ACB1A6433E1
:1018C000244A136004E0214B1B68224A136000BFC6
:1018D0001A4B00221A701C4B00221A70184B00225F
:1018E0001A603DE1154B1B780E2B12D1144B1A6870
:1018F000144B1B689A420CD1104B0F221A70124BDA
:1019000000221A700E4B00221A60144B00221A603B
:1019100042E00A4B1B78022B22D1094B1A68094B73
:101920001B689A421CD1054B03221A70064B0022F9
:101930001A70034B00221A602EE000BFEE00002058
:10194000DC0000203C000020E000002048000020D7
:101950001F85EB514C000020EC00002044000020CB
:10196000834B1B78032B0DD1824B1B68824A13607B
:101970007F4B00221A70814B00221A707D4B00228F
:101980001A60EDE07A4B00221A707C4B00221A702C
:10199000784B00221A60E3E0E2E0754B1B78002BE5
:1019A00003D1734B05221A70DAE0714B00221A70D2
:1019B000724B00221A706F4B00221A60D0E06C4B01
:1019C0001B78002B03D16A4B0A221A70C8E0684BBF
:1019D00000221A70694B00221A70664B00221A60AE
:1019E000BEE0634B1B78002B03D1614B11221A70B0
:1019F000B6E05F4B1B780A2B03D15D4B0C221A70AB
:101A0000AEE05B4B00221A705C4B00221A70594BFF
:101A100000221A60A4E0564B1B78002B03D1544BD4
:101A200010221A709CE0524B1B780A2B03D1504BAA
:101A30000B221A7094E04E4B00221A704F4B00227A
:101A40001A704C4B00221A608AE04D4B1B782F2BEA
:101A50007AD94B4B1B78392B76D8454B1B78052B05
:101A60000CD1434B08221A70454B1B78303B1A4669
:101A7000404B1A60414B01221A706FE03C4B1B78BF
:101A8000082B1FD03A4B1B78062B1BD0384B1B78EA
:101A9000092B17D0364B1B780E2B13D0344B1B78E9
:101AA000022B0FD0324B1B78032B0BD0304B1B7803
:101AB000042B07D02E4B1B78112B03D02C4B1B78FB
:101AC000102B17D12D4B1B78052B3CD8294B1A68AE
:101AD00013469B0013445B001A46294B1B781344A2
:101AE000303B244A1360254B1B780133DAB2234B79
:101AF0001A7028E01E4B1B78072B17D11F4B1B7841
:101B0000002B2BD11B4B1A6813469B0013445B0020
:101B10001A461B4B1B781344303B164A1360174B75
:101B20001B780133DAB2154B1A7017E0104B042200
:101B30001A70134B1B78303B1A460E4B1A600F4B32
:101B400001221A700AE009E0094B00221A700B4BBF
:101B500000221A70074B00221A6000E000BF00BF8D
:101B6000074BFF221A7000BF0837BD46B0BD00BF4B
:101B7000EE000020DC0000203C000020E0000020FF
:101B80000000002080B58EB002AFAA4B1B78112B4D
:101B900000F2608201A252F823F000BFE51B0008AA
:101BA000151C00083B1C0008791C0008AD1F00082C
:101BB000B71C0008DD1C0008031D0008231D0008D9
:101BC000491D00086F1D0008A91E0008951D00088A
:101BD000411F0008671F00088D1F00082120000812
:101BE000ED1F00080023944A0721944805F0D4FA19
:101BF000934B1B68904A0721924805F0CDFA924B0F
:101C0000D3E90023CDE90023904A0721904805F04D
:101C1000C3FA32E28F4A0721884805F0BDFA8E4B9D
:101C20001B688E4A0721874805F0B6FA0023824ACE
:101C30000721874805F0B0FA1FE2894B1B6807F1BE
:101C40002000864A072105F0A7FA07F12003854AFC
:101C500007217A4805F0A0FA834A0721794805F060
:101C60009BFA0023744A0721794805F095FA7F4BC7
:101C70004FF0FF321A6000E2794B1B6807F1200039
:101C8000764A072105F088FA07F12003754A0721F3
:101C90006A4805F081FA0023674A0721694805F080
:101CA0007BFA734A07216A4805F076FA6F4B4FF0CA
:101CB000FF321A60E1E16A4B1B68684A07215F48FE
:101CC00005F06AFA00235C4A07215E4805F064FAD1
:101CD000684A07215E4805F05FFACEE1604B1B6859
:101CE0005E4A0721554805F057FA0023524A07215A
:101CF000544805F051FA604A0721554805F04CFA5E
:101D0000BBE15E4A07214D4805F046FA5C4A0721CF
:101D10004C4805F041FA5B4A07214D4805F03CFA72
:101D2000ABE14F4B1B684D4A0721444805F034FA9C
:101D30000023414A0721434805F02EFA524A072161
:101D4000434805F029FA98E1454B1B68434A0721AF
:101D50003A4805F021FA0023374A0721394805F0AF
:101D60001BFA3C4A07213A4805F016FA85E10023A0
:101D7000314A0721314805F00FFA00232E4A072186
:101D8000304805F009FA414B2B4A0721304805F04D
:101D900003FA72E13E4B1B683E4A3F491846FFF783
:101DA00065F93D4B1B6807F118002C4A072105F027
:101DB000F3F9394B1A68394BA3FB02135B0B42F260
:101DC000107101FB03F3D31A07F11000344A082104
:101DD00005F0E2F90023FB621BE007F1100318464F
:101DE000FEF7FEF90246FB6A9A420AD907F1100291
:101DF000FB6A13441978114AFB6A13440A461A70A5
:101E000004E00E4AFB6A134420221A70FB6A013375
:101E1000FB62FB6A052BE0DD1E4B1B680F4A0721A6
:101E2000084805F0B9F91F4A0721094805F0B4F937
:101E300023E100BFEE000020C47B00082400002046
:101E4000B00100202B000020B8010020CC7B00084E
:101E500032000020D47B00084C000020DC7B00080E
:101E6000DC000020E47B0008E87B00085000002034
:101E7000F07B0008F87B0008007C0008087C000864
:101E8000107C0008187C0008207C00083F420F00EE
:101E900044000020E8000020E40000205917B7D1DA
:101EA000287C0008347C0008764B1B68764A77490A
:101EB0001846FFF78DF8754B1B6807F10800744A48
:101EC000072105F069F9714B1A68724BA3FB0213E5
:101ED0005B0B42F2107101FB03F3D31A38466E4AD2
:101EE000082105F059F90023BB6219E03B4618466A
:101EF000FEF776F90246BB6A9A4209D93A46BB6AAE
:101F000013441978654ABB6A13440A461A7004E000
:101F1000624ABB6A134420221A70BB6A0133BB6257
:101F2000BB6A052BE2DD584B1B68594A07215C4808
:101F300005F032F95B4A07215B4805F02DF99CE07A
:101F40005A4B5B4A0721554805F026F90023584AA9
:101F50000721534805F020F90023554A072152482C
:101F600005F01AF989E0534B1B68494A07214B4891
:101F700005F012F900234E4A0721494805F00CF9F3
:101F80004D4A0721484805F007F976E04B4A0721FA
:101F9000424805F001F9494A0721414805F0FCF89B
:101FA000474A0721404805F0F7F866E0414B1B68B7
:101FB00007F12000364A072105F0EEF807F120036B
:101FC000404A0721354805F0E7F80023384A072141
:101FD000334805F0E1F80023354A0721324805F07F
:101FE000DBF8394B4FF0FF321A6046E0314B1B688B
:101FF00007F12000264A072105F0CEF807F120035B
:10200000304A0721254805F0C7F8304A07212448FF
:1020100005F0C2F82E4A0721234805F0BDF82CE050
:10202000244B1B6807F12000194A072105F0B4F87A
:1020300007F12003234A0721184805F0ADF8234A89
:102040000721174805F0A8F8224A0721164805F08D
:10205000A3F812E00023164A0721104805F09CF867
:102060000023134A07210E4805F096F80023104A72
:1020700007210D4805F090F800BF00BF3037BD467E
:1020800080BD00BF40000020E8000020E4000020E8
:10209000DC7B00085917B7D13C7C000824000020E5
:1020A0002B000020447C000832000020151605009B
:1020B000C47B0008DC0000204C7C0008547C000835
:1020C000587C0008E47B000850000020607C000879
:1020D000D47B0008687C000880B483B000AF03465E
:1020E000FB71FB792F2B07D9FB79392B04D8FB79AE
:1020F000303B384AD35C66E0FB794C2B02D1364B3F
:102100001B7860E0FB792E2B02D1334B5B785AE0D1
:10211000FB79542B02D1304B9B7854E0FB794F2B49
:1021200002D12D4BDB784EE0FB79412B02D12A4BBB
:102130001B7948E0FB79532B02D1274B5B7942E0B6
:10214000FB79482B02D1244B9B793CE0FB79492B4E
:1021500002D1214BDB7936E0FB79462B02D11E4BB5
:102160001B7A30E0FB79472B02D11B4B5B7A2AE0CC
:10217000FB79502B02D1184B9B7A24E0FB79432B3F
:1021800002D1154BDB7A1EE0FB79452B02D1124BB5
:102190001B7B18E0FB79552B02D10F4B5B7B12E0C8
:1021A000FB794E2B02D10C4B9B7B0CE0FB79522B25
:1021B00002D1094BDB7B06E0FB79442B02D1064BB5
:1021C0001B7C00E0FF2318460C37BD465DF8047BFE
:1021D000704700BF040000201000002080B584B0CC
:1021E00000AF78600B46FB700023FB6035E0FA68B7
:1021F0001346DB009B1A7A6813441846FDF7F0FF7C
:102200000346BB60FB78052B1FD8FB78BA689A425F
:1022100015DDFA681346DB009B1A7A681A44BB681E
:10222000591EFB78CB1AD35C1846FFF755FF0346BF
:1022300019460E4AFB6813440A461A700AE00B4A14
:10224000FB681344FF221A7004E0084AFB68134439
:10225000FF221A70FB680133FB60FB68022BC6DDAE
:10226000024B18461037BD4680BD00BFFC00002061
:1022700080B584B000AF78600B46FB701346BB702E
:10228000FB7819467868FFF7A9FFB860FB78052B43
:1022900020D801A252F823F0B1220008B72200088A
:1022A000BD220008C3220008C9220008CF2200086E
:1022B000FE23FB7311E0FD23FB730EE0FB23FB7396
:1022C0000BE0F723FB7308E0EF23FB7305E0DF234C
:1022D000FB7302E0FF23FB7300BF574B1B68002B0F
:1022E00072DB554B1B68052B6EDCFA78524B1B6872
:1022F0009A4236D1BA78514913469B0013440B4495
:10230000FF221A70BA78BB6898784C4913469B0034
:1023100013440B44013302461A70BA7847491346F6
:102320009B0013440B440233FA7B1A70BB680133E1
:102330001B78BA7803F07F03D8B2404913469B005C
:1023400013440B44033302461A70BA78BB681878FA
:102350003A4913469B0013440B44043302461A7057
:1023600065E0BA78354913469B0013440B44FF22BD
:102370001A70BA78BB689878304913469B001344AA
:102380000B44013302461A70BA782C4913469B005D
:1023900013440B440233FA7B1A70BA78BB6858783E
:1023A000264913469B0013440B44033302461A701C
:1023B000BA78BB681878214913469B0013440B4434
:1023C000043302461A7032E0BA781C4913469B0067
:1023D00013440B44FF221A70BA78BB6898781749E7
:1023E00013469B0013440B44013302461A70BA781B
:1023F000124913469B0013440B440233FA7B1A70B4
:10240000BA78BB6858780D4913469B0013440B44B7
:10241000033302461A70BA78BB6818780749134626
:102420009B0013440B44043302461A7000BF00BFE4
:102430001037BD4680BD00BF50000020F0000020D6
:1024400080B582B000AF1D4B1B78DBB20133002B8F
:1024500003F00103B8BF5B42FB71194B1B78DBB281
:10246000FA7919461748FFF703FF72B600BF134BFE
:102470001B78DBB21A4613469B001344124A1344DE
:102480000521184600F024F80C4AFB79137062B657
:1024900000BF0B4B1B78DBB25A1C0C4B83FB023189
:1024A000D317C91A0B465B000B445B00D11ACAB2A2
:1024B000034B1A7000BF0837BD4680BDFA000020EC
:1024C000EF00002024000020F0000020ABAAAA2A80
:1024D00080B584B000AF7860396000224FF480414D
:1024E000234800F0ADFE01228021224800F0A8FE22
:1024F0000023FB6003E000BFFB680133FB60FB6867
:10250000B3F57A7FF7DB00BF1B4801F0F5FC03460B
:10251000012BF9D13B689AB24FF0FF337968164826
:1025200001F0A7FB0346002B01D000F0E5F90023E2
:10253000BB6003E000BFBB680133BB60BB68B3F5A1
:102540007A7FF7DB00BF0C4801F0D6FC0346012B75
:10255000F9D101224FF48041054800F071FE0022BC
:102560008021044800F06CFE00BF1037BD4680BDDE
:1025700000040240000802400001002080B500AFC6
:1025800000F09EFB00F028F800F0FAF800F08CF85C
:1025900000F0C0F802F052F8094A0021094802F0A0
:1025A00097F80346084A1360084A0021084802F0D9
:1025B0008FF80346074A136002F064F800BFFDE796
:1025C000AC7C000885280008C0010020D07C0008F1
:1025D000C1280008C401002080B594B000AF07F105
:1025E000200330220021184604F00AFE07F10C03F4
:1025F00000221A605A609A60DA601A610023BB6098
:10260000274B1B6C264A43F080531364244B1B6CEE
:1026100003F08053BB60BB6800237B60214B1B68C9
:10262000204A43F4404313601E4B1B6803F44043AD
:102630007B607B6802233B620123FB6210233B63C8
:102640000223BB630023FB6308233B6464237B6496
:102650000223BB640423FB6407F12003184600F047
:1026600009FE0346002B01D000F046F90F23FB6062
:1026700002233B6100237B614FF48053BB61002345
:10268000FB6107F10C030321184601F06BF80346C8
:10269000002B01D000F030F900BF5037BD4680BD9F
:1026A000003802400070004080B500AF174B184A58
:1026B0001A60164B4FF482725A60144B00229A60D3
:1026C000124B0022DA60114B00221A610F4B0022DC
:1026D0005A610E4B4FF400729A610C4B2022DA6162
:1026E0000A4B00221A62094B00225A62074B002251
:1026F0009A62064B0A22DA62044801F031FA034674
:10270000002B01D000F0F8F800BF80BD00010020D0
:102710000030014080B500AF174B184A1A60164BC5
:102720004FF482725A60144B00229A60124B0022BE
:10273000DA60114B00221A610F4B00225A610E4BD6
:102740004FF400729A610C4B0022DA610A4B0022AE
:102750001A62094B00225A62074B00229A62064B0A
:102760000A22DA62044801F0FBF90346002B01D08B
:1027700000F0C2F800BF80BD5801002000380040C2
:1027800080B58AB000AF07F1140300221A605A60C6
:102790009A60DA601A6100233B61374B1B6B364A43
:1027A00043F080031363344B1B6B03F080033B61E6
:1027B0003B690023FB60304B1B6B2F4A43F0040343
:1027C00013632D4B1B6B03F00403FB60FB680023BA
:1027D000BB60294B1B6B284A43F001031363264B54
:1027E0001B6B03F00103BB60BB6800237B60224BC3
:1027F0001B6B214A43F0020313631F4B1B6B03F057
:1028000002037B607B68002244F2C0311B4800F069
:1028100017FD002280211A4800F012FD1F237B6162
:102820000023BB610123FB6107F114031946134820
:1028300000F06AFB44F2C0337B610123BB610023DB
:10284000FB6100233B6207F1140319460B4800F0BB
:102850005BFB80237B610123BB610023FB610023C1
:102860003B6207F114031946054800F04DFB00BF19
:102870002837BD4680BD00BF00380240000402403A
:102880000008024080B584B000AF78600B4A07F1C1
:10289000080392E80300186004331970FFF7D0FDB5
:1028A000012001F0A7FF07F1080305211846FFF7F3
:1028B0000FFE012001F09EFF00BFEFE78C7C0008B7
:1028C00080B582B000AF7860FEF708FCFFF75AF9D8
:1028D000012001F08FFF00BFF6E780B582B000AFA6
:1028E00078607B681B68B3F1804F01D100F00AFA71
:1028F00000BF0837BD4680BD80B400AF72B600BFD0
:1029000000BFFDE780B582B000AF00237B60124BB3
:102910005B6C114A43F4804353640F4B5B6C03F4CC
:1029200080437B607B6800233B600B4B1B6C0A4A37
:1029300043F080531364084B1B6C03F080533B60DF
:102940003B6800220F216FF0010000F0B3FA00BFD6
:102950000837BD4680BD00BF0038024080B58CB04E
:1029600000AF786007F11C0300221A605A609A6079
:10297000DA601A617B681B68414A93422CD10023BC
:10298000BB61404B5B6C3F4A43F4805353643D4B07
:102990005B6C03F48053BB61BB6900237B61394BE3
:1029A0001B6B384A43F001031363364B1B6B03F078
:1029B00001037B617B69A023FB6102233B6200234F
:1029C0007B620323BB620523FB6207F11C031946EC
:1029D0002D4800F099FA4FE07B681B682B4A934220
:1029E0004AD100233B61274B1B6C264A43F48043AA
:1029F0001364244B1B6C03F480433B613B6900234D
:102A0000FB60204B1B6B1F4A43F0040313631D4BF9
:102A10001B6B03F00403FB60FB680023BB60194BD6
:102A20001B6B184A43F002031363164B1B6B03F036
:102A30000203BB60BB680823FB6102233B620023E7
:102A40007B620323BB620523FB6207F11C0319466B
:102A50000F4800F059FA4FF48063FB6102233B6298
:102A600000237B620323BB620523FB6207F11C0387
:102A70001946084800F048FA00BF3037BD4680BD0F
:102A800000300140003802400000024000380040A1
:102A9000000802400004024080B58EB000AF7860AC
:102AA0000023FB620023BB620023FB60344B1B6CE2
:102AB000334A43F001031364314B1B6C03F00103F1
:102AC000FB60FB6807F1100207F11403114618467A
:102AD00001F014F83B6AFB62FB6A002B03D100F0A3
:102AE000F9FF786304E000F0F5FF03465B007B63C9
:102AF0007B6B244AA2FB03239B0C013BBB62224B52
:102B00004FF080421A60204B40F2E732DA601E4AF2
:102B1000BB6A53601C4B00221A611B4B00229A6057
:102B2000194B00229A61184801F0D0FA034687F841
:102B3000333097F83330002B1BD1134801F020FBC2
:102B4000034687F8333097F83330002B11D11C201F
:102B500000F0CCF97B680F2B08D8002279681C2084
:102B600000F0A8F9094A7B68136002E0012387F8A6
:102B7000333097F8333018463837BD4680BD00BF34
:102B80000038024083DE1B43C801002058000020AB
:102B900080B400AF00BFFDE780B400AF00BFFDE729
:102BA00080B400AF00BFFDE780B400AF00BFFDE719
:102BB00080B400AF00BFFDE780B400AF00BFBD46EA
:102BC0005DF8047B7047000080B500AF024801F05B
:102BD00039FB00BF80BD00BFC801002080B586B0B2
:102BE00000AF7860144A154BD31A7B617B693B6157
:102BF000134B1B68002B02D1114B124A1A60104B69
:102C00001A687B6813443A699A4207D204F056FB6B
:102C100003460C221A604FF0FF3309E0084B1B6893
:102C2000FB60074B1A687B681344054A1360FB6816
:102C300018461837BD4680BD000002200004000081
:102C400010020020484D002080B400AF064BD3F89E
:102C50008830054A43F47003C2F8883000BFBD468F
:102C60005DF8047B704700BF00ED00E0DFF834D072
:102C7000FFF7EAFF0C480D490D4A002302E0D45843
:102C8000C4500433C4188C42F9D30A4A0A4C0023B6
:102C900001E013600432A242FBD304F015FBFFF7FE
:102CA0006DFC70470000022000000020B4000020EE
:102CB000507D0008B8000020484D0020FEE70000CD
:102CC00080B500AF0E4B1B680D4A43F400731360D0
:102CD0000B4B1B680A4A43F480631360084B1B6864
:102CE000074A43F480731360032000F0D8F80F20E4
:102CF000FFF7D2FEFFF706FE0023184680BD00BF97
:102D0000003C024080B400AF064B1B781A46064BCD
:102D10001B681344044A136000BFBD465DF8047B82
:102D2000704700BF5C0000201402002080B400AF98
:102D3000034B1B681846BD465DF8047B704700BF17
:102D40001402002080B485B000AF78607B6803F087
:102D50000703FB600C4BDB68BB60BA684FF6FF03F0
:102D60001340BB60FB681A02BB68134343F0BF63A8
:102D700043F40033BB60044ABB68D36000BF143720
:102D8000BD465DF8047B704700ED00E080B400AF05
:102D9000044BDB681B0A03F007031846BD465DF8C9
:102DA000047B704700ED00E080B483B000AF0346C1
:102DB000FB7197F90730002B0BDBFB7903F01F0247
:102DC000074997F907305B09012000FA02F241F840
:102DD000232000BF0C37BD465DF8047B704700BF61
:102DE00000E100E080B483B000AF03463960FB71BE
:102DF00097F90730002B0ADB3B68DAB20C4997F9E8
:102E000007301201D2B20B4483F800230AE03B687A
:102E1000DAB20849FB7903F00F03043B1201D2B286
:102E20000B441A7600BF0C37BD465DF8047B704733
:102E300000E100E000ED00E080B489B000AFF86090
:102E4000B9607A60FB6803F00703FB61FB69C3F1BB
:102E50000703042B28BF0423BB61FB690433062B43
:102E600002D9FB69033B00E000237B614FF0FF3296
:102E7000BB6902FA03F3DA43BB681A407B699A40E4
:102E80004FF0FF317B6901FA03F3D9437B680B40B4
:102E9000134318462437BD465DF8047B704780B560
:102EA00082B000AF78607868FFF74CFF00BF08374A
:102EB000BD4680BD80B586B000AF0346B9607A607C
:102EC000FB7300237B61FFF761FF78617A68B96863
:102ED0007869FFF7B1FF024697F90F30114618469F
:102EE000FFF780FF00BF1837BD4680BD80B582B0B8
:102EF00000AF0346FB7197F907301846FFF754FF00
:102F000000BF0837BD4680BD80B489B000AF78608F
:102F1000396000237B6100233B610023BB610023F8
:102F2000FB6159E10122FB6902FA03F37B613B6813
:102F30001B687A6913403B613A697B699A4240F0A9
:102F400048813B685B6803F00303012B05D03B68B5
:102F50005B6803F00303022B30D17B689B68BB6185
:102F6000FB695B00032202FA03F3DB43BA691340F7
:102F7000BB613B68DA68FB695B0002FA03F3BA697C
:102F80001343BB617B68BA699A607B685B68BB610D
:102F90000122FB6902FA03F3DB43BA691340BB6108
:102FA0003B685B681B0903F00102FB6902FA03F34B
:102FB000BA691343BB617B68BA695A603B685B6856
:102FC00003F00303032B17D07B68DB68BB61FB694D
:102FD0005B00032202FA03F3DB43BA691340BB61CF
:102FE0003B689A68FB695B0002FA03F3BA69134312
:102FF000BB617B68BA69DA603B685B6803F0030316
:10300000022B23D1FB69DA087B68083253F822309F
:10301000BB61FB6903F007039B000F2202FA03F375
:10302000DB43BA691340BB613B681A69FB6903F073
:1030300007039B0002FA03F3BA691343BB61FB6900
:10304000DA087B680832B96943F822107B681B688C
:10305000BB61FB695B00032202FA03F3DB43BA693D
:103060001340BB613B685B6803F00302FB695B00D4
:1030700002FA03F3BA691343BB617B68BA691A6049
:103080003B685B6803F44033002B00F0A280002310
:10309000FB60574B5B6C564A43F480435364544B7C
:1030A0005B6C03F48043FB60FB68524AFB699B083E
:1030B000023352F82330BB61FB6903F003039B002A
:1030C0000F2202FA03F3DB43BA691340BB617B684A
:1030D000494A934219D07B68484A934213D07B688F
:1030E000474A93420DD07B68464A934207D07B689B
:1030F000454A934201D1042308E0072306E0032355
:1031000004E0022302E0012300E00023FA6902F058
:10311000030292009340BA691343BB613549FB69CE
:103120009B080233BA6941F82320384B9B68BB6186
:103130003B69DB43BA691340BB613B685B6803F4DE
:103140008013002B03D0BA693B691343BB612F4A3C
:10315000BB6993602D4BDB68BB613B69DB43BA699C
:103160001340BB613B685B6803F40013002B03D082
:10317000BA693B691343BB61244ABB69D360234BE3
:103180005B68BB613B69DB43BA691340BB613B6869
:103190005B6803F40033002B03D0BA693B69134327
:1031A000BB611A4ABB695360184B1B68BB613B6922
:1031B000DB43BA691340BB613B685B6803F480334F
:1031C000002B03D0BA693B691343BB610F4ABB694B
:1031D0001360FB690133FB61FB690F2B7FF6A2AE25
:1031E00000BF00BF2437BD465DF8047B704700BFB9
:1031F0000038024000380140000002400004024054
:1032000000080240000C024000100240003C014057
:1032100080B485B000AF78600B467B807B681A690C
:103220007B881340002B02D00123FB7301E00023B5
:10323000FB73FB7B18461437BD465DF8047B704773
:1032400080B483B000AF78600B467B8013467B7000
:103250007B78002B03D07A887B689A6103E07B88B7
:103260001A047B689A6100BF0C37BD465DF8047B89
:103270007047000080B586B000AF78607B68002B97
:1032800001D1012367E27B681B6803F00103002B77
:1032900075D0884B9B6803F00C03042B0CD0854B36
:1032A0009B6803F00C03082B12D1824B5B6803F47C
:1032B0008003B3F5800F0BD17E4B1B6803F4003302
:1032C000002B5BD07B685B68002B57D1012342E267
:1032D0007B685B68B3F5803F06D1764B1B68754A07
:1032E00043F4803313601DE07B685B68B3F5A02F67
:1032F0000CD1704B1B686F4A43F4802313606D4BF5
:103300001B686C4A43F4803313600BE0694B1B6805
:10331000684A23F480331360664B1B68654A23F4C4
:10332000802313607B685B68002B13D0FFF7FEFCE3
:10333000386108E0FFF7FAFC02463B69D31A642BB8
:1033400001D9032307E25B4B1B6803F40033002B16
:10335000F0D014E0FFF7EAFC386108E0FFF7E6FC84
:1033600002463B69D31A642B01D90323F3E1514B85
:103370001B6803F40033002BF0D100E000BF7B6832
:103380001B6803F00203002B63D04A4B9B6803F0D9
:103390000C03002B0BD0474B9B6803F00C03082B4E
:1033A0001CD1444B5B6803F48003002B16D1414BC6
:1033B0001B6803F00203002B05D07B68DB68012B40
:1033C00001D00123C7E13B4B1B6823F0F8027B6867
:1033D0001B69DB00374913430B603AE07B68DB680D
:1033E000002B20D0344B01221A60FFF79FFC38617C
:1033F00008E0FFF79BFC02463B69D31A022B01D978
:103400000323A8E12B4B1B6803F00203002BF0D031
:10341000284B1B6823F0F8027B681B69DB002549F9
:1034200013430B6015E0244B00221A60FFF77EFC6B
:10343000386108E0FFF77AFC02463B69D31A022B99
:1034400001D9032387E11B4B1B6803F00203002B08
:10345000F0D17B681B6803F00803002B36D07B6833
:103460005B69002B16D0154B01221A60FFF75EFC3A
:10347000386108E0FFF75AFC02463B69D31A022B79
:1034800001D9032367E10B4B5B6F03F00203002BB1
:10349000F0D01BE0094B00221A60FFF747FC3861AF
:1034A0000EE0FFF743FC02463B69D31A022B07D913
:1034B000032350E10038024000004742800E47429B
:1034C000884B5B6F03F00203002BEAD17B681B681B
:1034D00003F00403002B00F097800023FB75814B61
:1034E0001B6C03F08053002B0FD10023BB607D4B7E
:1034F0001B6C7C4A43F0805313647A4B1B6C03F0C3
:103500008053BB60BB680123FB75774B1B6803F4DA
:103510008073002B18D1744B1B68734A43F480737B
:103520001360FFF703FC386108E0FFF7FFFB02467A
:103530003B69D31A022B01D903230CE16A4B1B68A8
:1035400003F48073002BF0D07B689B68012B06D1BD
:10355000644B1B6F634A43F0010313671CE07B68F5
:103560009B68052B0CD15F4B1B6F5E4A43F0040335
:1035700013675C4B1B6F5B4A43F0010313670BE05F
:10358000584B1B6F574A23F001031367554B1B6FB2
:10359000544A23F0040313677B689B68002B15D003
:1035A000FFF7C4FB38610AE0FFF7C0FB02463B6946
:1035B000D31A41F28832934201D90323CBE0494B1D
:1035C0001B6F03F00203002BEED014E0FFF7AEFBFD
:1035D00038610AE0FFF7AAFB02463B69D31A41F2C1
:1035E0008832934201D90323B5E03E4B1B6F03F0B1
:1035F0000203002BEED1FB7D012B05D1394B1B6C57
:10360000384A23F0805313647B689B69002B00F0D9
:10361000A180344B9B6803F00C03082B5CD07B68C3
:103620009B69022B41D1314B00221A60FFF77EFBD0
:10363000386108E0FFF77AFB02463B69D31A022B98
:1036400001D9032387E0274B1B6803F00073002B8D
:10365000F0D17B68DA697B681B6A1A437B685B6A16
:103660009B011A437B689B6A5B08013B1B041A435E
:103670007B68DB6A1B061B4913434B601B4B012213
:103680001A60FFF753FB386108E0FFF74FFB024673
:103690003B69D31A022B01D903235CE0114B1B6851
:1036A00003F00073002BF0D054E0104B00221A609E
:1036B000FFF73CFB386108E0FFF738FB02463B6947
:1036C000D31A022B01D9032345E0064B1B6803F0F4
:1036D0000073002BF0D13DE07B689B69012B07D183
:1036E000012338E00038024000700040600047428B
:1036F0001B4B5B68FB607B689B69012B28D0FB68D8
:1037000003F480027B68DB699A4221D1FB6803F0F5
:103710003F027B681B6A9A421AD1FA6847F6C07367
:1037200013407A68526A9201934211D1FB6803F404
:1037300040327B689B6A5B08013B1B049A4207D1BD
:10374000FB6803F070627B68DB6A1B069A4201D05B
:10375000012300E0002318461837BD4680BD00BF96
:103760000038024080B584B000AF786039607B6873
:10377000002B01D10123CCE0684B1B6803F0070349
:103780003A689A420CD9654B3A68D2B21A70634BC8
:103790001B6803F007033A689A4201D00123B8E09E
:1037A0007B681B6803F00203002B20D07B681B683A
:1037B00003F00403002B05D0594B9B68584A43F48F
:1037C000E05393607B681B6803F00803002B05D06F
:1037D000534B9B68524A43F460439360504B9B6841
:1037E00023F0F0027B689B684D4913438B607B6834
:1037F0001B6803F00103002B44D07B685B68012B3E
:1038000007D1474B1B6803F40033002B19D1012368
:103810007FE07B685B68022B03D07B685B68032BCF
:1038200007D13F4B1B6803F00073002B09D1012324
:103830006FE03B4B1B6803F00203002B01D1012317
:1038400067E0374B9B6823F003027B685B68344971
:1038500013438B60FFF76AFAF8600AE0FFF766FA35
:103860000246FB68D31A41F28832934201D90323FE
:103870004FE02B4B9B6803F00C027B685B689B005E
:103880009A42EBD1254B1B6803F007033A689A4232
:103890000CD2224B3A68D2B21A70204B1B6803F04C
:1038A00007033A689A4201D0012332E07B681B6823
:1038B00003F00403002B08D0194B9B6823F4E0525B
:1038C0007B68DB68164913438B607B681B6803F0D9
:1038D0000803002B09D0124B9B6823F460427B68DD
:1038E0001B69DB000E4913438B6000F021F8024690
:1038F0000B4B9B681B0903F00F030A49CB5C22FAB0
:1039000003F3094A1360094B1B681846FFF7C4F814
:10391000002318461037BD4680BD00BF003C024062
:1039200000380240F47C00085400002058000020B9
:103930002DE9B04F90B000AF00237B630023FB6301
:1039400000233B630023BB63594B9B6803F00C03CC
:10395000082B0DD0082B00F2A180002B02D0042BE5
:1039600003D09BE0534BBB639BE0534BBB6398E09E
:103970004F4B5B6803F03F037B634D4B5B6803F485
:103980008003002B28D04A4B5B689B0900223B62D6
:103990007A623B6AC3F308000021474B03FB01F244
:1039A000002300FB03F31344434AA0FB0212FA6214
:1039B0000A46BA62FA6A1344FB627B6B0022BB615F
:1039C000FA61D7E90623D7E90A01FDF74FF8024665
:1039D0000B461346FB6353E0354B5B689B090022A3
:1039E0003B617A613B69C3F3080A4FF0000B524612
:1039F0005B464FF000004FF00001590141EAD261EF
:103A0000500102460B46B2EB0A0863EB0B094FF07C
:103A100000024FF000034FEA891343EA98634FEA2C
:103A20008812B2EB080463EB09054FF000024FF077
:103A30000003EB0043EA5473E20014461D4614EB06
:103A40000A033B6045EB0B037B604FF000024FF035
:103A50000003D7E9004529468B02214643EA9153EA
:103A600021468A02104619467B6B0022BB60FA6031
:103A7000D7E90223FCF7FAFF02460B461346FB6325
:103A80000B4B5B681B0C03F0030301335B003B63D0
:103A9000FA6B3B6BB2FBF3F3BB6302E0054BBB631A
:103AA00000BFBB6B18464037BD46BDE8B08F00BFB6
:103AB000003802400024F40040787D0180B400AF5B
:103AC000034B1B681846BD465DF8047B704700BF7A
:103AD0005400002080B500AFFFF7F0FF0246054B11
:103AE0009B689B0A03F007030349CB5C22FA03F3AC
:103AF000184680BD00380240047D000880B483B0C1
:103B000000AF786039607B680F221A60124B9B68A7
:103B100003F003027B685A600F4B9B6803F0F002CE
:103B20007B689A600C4B9B6803F4E0527B68DA6018
:103B3000094B9B68DB0803F4E0527B681A61074B72
:103B40001B6803F007023B681A6000BF0C37BD46D4
:103B50005DF8047B704700BF00380240003C024023
:103B600080B582B000AF78607B68002B01D1012363
:103B70007BE07B685B6A002B08D17B685B68B3F5F0
:103B8000827F09D07B680022DA6105E07B68002231
:103B90001A617B6800225A617B6800229A627B6806
:103BA00093F85130DBB2002B06D17B68002283F8FA
:103BB00050207868FEF7D2FE7B68022283F85120FD
:103BC0007B681B681A687B681B6822F040021A60D9
:103BD0007B685B6803F482727B689B6803F4044330
:103BE0001A437B68DB6803F400631A437B681B6934
:103BF00003F002031A437B685B6903F001031A4375
:103C00007B689B6903F400731A437B68DB6903F0EC
:103C100038031A437B681B6A03F0800342EA0301FE
:103C20007B689B6A03F400527B681B680A431A6036
:103C30007B689B691B0C03F004017B685B6A03F0E3
:103C400010027B681B680A435A607B681B68DA694C
:103C50007B681B6822F40062DA617B6800225A6587
:103C60007B68012283F85120002318460837BD469F
:103C700080BD80B588B000AFF860B9603B60134686
:103C8000FB800023FB77FB6893F85030012B01D1B8
:103C900002232DE1FB68012283F85020FFF746F84C
:103CA000B861FB88FB82FB6893F85130DBB2012BD3
:103CB00002D00223FB7716E1BB68002B02D0FB8801
:103CC000002B02D10123FB770DE1FB68032283F86F
:103CD0005120FB6800225A65FB68BA681A63FB68CA
:103CE000FA889A86FB68FA88DA86FB6800229A636B
:103CF000FB6800229A87FB680022DA87FB680022B3
:103D00005A64FB6800221A64FB689B68B3F5004F95
:103D10000FD1FB681B681A68FB681B6822F0400221
:103D20001A60FB681B681A68FB681B6842F48042D3
:103D30001A60FB681B681B6803F04003402B07D028
:103D4000FB681B681A68FB681B6842F040021A6037
:103D5000FB68DB68B3F5006F4FD1FB685B68002B35
:103D600002D0FB8A012B42D1FB681B6B1A88FB68CF
:103D70001B68DA60FB681B6B9A1CFB681A63FB68A4
:103D8000DB8E9BB2013B9AB2FB68DA862FE0FB68C0
:103D90001B689B6803F00203022B12D1FB681B6BAC
:103DA0001A88FB681B68DA60FB681B6B9A1CFB684F
:103DB0001A63FB68DB8E9BB2013B9AB2FB68DA8622
:103DC00015E0FEF7B3FF0246BB69D31A3A689A4280
:103DD00003D83B68B3F1FF3F02D13B68002B06D10B
:103DE0000323FB77FB68012283F851207BE0FB680B
:103DF000DB8E9BB2002BCAD150E0FB685B68002BC6
:103E000002D0FB8A012B44D1FB681A6BFB681B684C
:103E10000C3312781A70FB681B6B5A1CFB681A6310
:103E2000FB68DB8E9BB2013B9AB2FB68DA8630E01E
:103E3000FB681B689B6803F00203022B13D1FB682D
:103E40001A6BFB681B680C3312781A70FB681B6BCB
:103E50005A1CFB681A63FB68DB8E9BB2013B9AB26B
:103E6000FB68DA8615E0FEF761FF0246BB69D31AEC
:103E70003A689A4203D83B68B3F1FF3F02D13B68EE
:103E8000002B06D10323FB77FB68012283F8512026
:103E900029E0FB68DB8E9BB2002BC9D1BA69396877
:103EA000F86800F0BFF80346002B02D0FB68202220
:103EB0005A65FB689B68002B0AD100233B61FB68B5
:103EC0001B68DB683B61FB681B689B683B613B6967
:103ED000FB685B6D002B02D00123FB7703E0FB68DE
:103EE000012283F85120FB68002283F85020FB7FD9
:103EF00018462037BD4680BD80B483B000AF7860DF
:103F00007B6893F85130DBB218460C37BD465DF83C
:103F1000047B704780B588B000AFF860B9603B6043
:103F20001346FB71FEF702FF0246BB6A9B1A3A6812
:103F30001344FB61FEF7FAFEB861394B1B685B0165
:103F40001B0DFA6902FB03F37B6154E03B68B3F19C
:103F5000FF3F50D0FEF7EAFE0246BB69D31AFA696A
:103F60009A4202D9FB69002B3DD1FB681B685A6855
:103F7000FB681B6822F0E0025A60FB685B68B3F5DF
:103F8000827F11D1FB689B68B3F5004F04D0FB68BA
:103F90009B68B3F5806F07D1FB681B681A68FB68E4
:103FA0001B6822F040021A60FB689B6AB3F5005F51
:103FB0000FD1FB681B681A68FB681B6822F400526B
:103FC0001A60FB681B681A68FB681B6842F40052A1
:103FD0001A60FB68012283F85120FB68002283F8F5
:103FE0005020032317E07B69002B01D10023FB61E4
:103FF0007B69013B7B61FB681B689A68BB68134067
:10400000BA689A420CBF01230023DBB21A46FB793F
:104010009A429BD1002318462037BD4680BD00BF81
:104020005400002080B588B002AFF860B9607A60B3
:104030007B680093BB6801220221F868FFF76AFFE2
:104040000346002B07D0FB685B6D43F02002FB6842
:104050005A65032332E01B4B1B681B4AA2FB032358
:104060005B0D4FF47A7202FB03F37B61FB685B68C4
:10407000B3F5827F12D17B680093BB680022802158
:10408000F868FFF747FF0346002B16D0FB685B6D0F
:1040900043F02002FB685A6503230FE07B69002B85
:1040A0000AD07B69013B7B61FB681B689B6803F05E
:1040B0008003802BF2D000E000BF002318461837A1
:1040C000BD4680BD54000020819F5E1680B582B041
:1040D00000AF78607B68002B01D1012341E07B6851
:1040E00093F83D30DBB2002B06D17B68002283F8C9
:1040F0003C20786800F039F87B68022283F83D2084
:104100007B681A687B6804331946104600F0B2F9E0
:104110007B68012283F846207B68012283F83E20D9
:104120007B68012283F83F207B68012283F84020CE
:104130007B68012283F841207B68012283F84220BA
:104140007B68012283F843207B68012283F84420A6
:104150007B68012283F845207B68012283F83D209B
:10416000002318460837BD4680BD80B483B000AF39
:10417000786000BF0C37BD465DF8047B70470000D7
:1041800080B485B000AF78607B6893F83D30DBB2D7
:10419000012B01D0012344E07B68022283F83D20FB
:1041A0007B681B68DA687B681B6842F00102DA6092
:1041B0007B681B681E4A934218D07B681B68B3F16A
:1041C000804F13D07B681B681A4A93420ED07B68DD
:1041D0001B68194A934209D07B681B68174A9342AF
:1041E00004D07B681B68164A934211D17B681B6818
:1041F0009B6803F00703FB60FB68062B10D07B680D
:104200001B681A687B681B6842F001021A6007E0AD
:104210007B681B681A687B681B6842F001021A60A1
:10422000002318461437BD465DF8047B704700BF75
:10423000000001400004004000080040000C004065
:104240000040014080B584B000AF78607B681B6897
:10425000DB68FB607B681B681B69BB60BB6803F0A5
:104260000203002B20D0FB6803F00203002B1BD0BD
:104270007B681B686FF002021A617B6801221A7763
:104280007B681B689B6903F00303002B03D07868ED
:1042900000F0D2F805E0786800F0C4F8786800F023
:1042A000D5F87B6800221A77BB6803F00403002B63
:1042B00020D0FB6803F00403002B1BD07B681B6835
:1042C0006FF004021A617B6802221A777B681B6810
:1042D0009B6903F44073002B03D0786800F0ACF8BE
:1042E00005E0786800F09EF8786800F0AFF87B6829
:1042F00000221A77BB6803F00803002B20D0FB686C
:1043000003F00803002B1BD07B681B686FF00802CA
:104310001A617B6804221A777B681B68DB6903F0EB
:104320000303002B03D0786800F086F805E0786876
:1043300000F078F8786800F089F87B6800221A7736
:10434000BB6803F01003002B20D0FB6803F01003C0
:10435000002B1BD07B681B686FF010021A617B6812
:1043600008221A777B681B68DB6903F44073002B13
:1043700003D0786800F060F805E0786800F052F843
:10438000786800F063F87B6800221A77BB6803F056
:104390000103002B0CD0FB6803F00103002B07D0B6
:1043A0007B681B686FF001021A617868FEF795FA66
:1043B000BB6803F08003002B0CD0FB6803F0800384
:1043C000002B07D07B681B686FF080021A61786849
:1043D00000F0E6F8BB6803F04003002B0CD0FB684C
:1043E00003F04003002B07D07B681B686FF040028E
:1043F0001A61786800F034F8BB6803F02003002BE2
:104400000CD0FB6803F02003002B07D07B681B68EF
:104410006FF020021A61786800F0B8F800BF10371A
:10442000BD4680BD80B483B000AF786000BF0C375C
:10443000BD465DF8047B704780B483B000AF786000
:1044400000BF0C37BD465DF8047B704780B483B075
:1044500000AF786000BF0C37BD465DF8047B704745
:1044600080B483B000AF786000BF0C37BD465DF804
:10447000047B704780B485B000AF786039607B689A
:104480001B68FB607B683A4A93420FD07B68B3F1AC
:10449000804F0BD07B68374A934207D07B68364AFF
:1044A000934203D07B68354A934208D1FB6823F0DE
:1044B0007003FB603B685B68FA681343FB607B68D2
:1044C0002B4A93421BD07B68B3F1804F17D07B6897
:1044D000284A934213D07B68274A93420FD07B68C7
:1044E000264A93420BD07B68254A934207D07B68CB
:1044F000244A934203D07B68234A934208D1FB6845
:1045000023F44073FB603B68DB68FA681343FB608D
:10451000FB6823F080023B685B691343FB607B68A8
:10452000FA681A603B689A687B68DA623B681A68C6
:104530007B689A627B680E4A934203D13B681A6992
:104540007B681A637B6801225A617B681B6903F0F0
:104550000103012B05D17B681B6923F001027B68F5
:104560001A6100BF1437BD465DF8047B704700BF79
:10457000000001400004004000080040000C004022
:1045800000400140004401400048014080B483B035
:1045900000AF786000BF0C37BD465DF8047B704704
:1045A00080B483B000AF786000BF0C37BD465DF8C3
:1045B000047B704780B483B000AF03463960FB7161
:1045C00097F90730002B0ADB3B68DAB20C4997F900
:1045D00007301201D2B20B4483F800230AE03B6893
:1045E000DAB20849FB7903F00F03043B1201D2B29F
:1045F0000B441A7600BF0C37BD465DF8047B70474C
:1046000000E100E000ED00E080B500AF054B1B6865
:1046100001F046FD0346012B01D002F03DFB00BF37
:1046200080BD00BF10E000E080B500AF00216FF05A
:104630000400FFF7BFFF00BF80BD000080B483B05F
:1046400000AFEFF305833B603B68002B03D06FF0B6
:1046500005037B600CE00A4B1B68002B05D1084B5F
:1046600001221A6000237B6002E04FF0FF337B6081
:104670007B6818460C37BD465DF8047B704700BF69
:104680001802002080B582B000AFEFF305833B60D5
:104690003B68002B03D06FF005037B6010E00B4BF1
:1046A0001B68012B09D1FFF7BFFF084B02221A60DC
:1046B00001F092F800237B6002E04FF0FF337B6053
:1046C0007B6818460837BD4680BD00BF1802002031
:1046D00080B58EB004AFF860B9607A6000233B61AA
:1046E000EFF305837B617B69002B7ED1FB68002B98
:1046F0007BD080233B621823FB6100237B624FF059
:10470000FF33BB617B68002B45D07B681B68002BA7
:1047100002D07B681B687B627B689B69002B02D0A0
:104720007B689B69FB61FB69002B08D0FB69382B18
:1047300005D87B685B6803F00103002B01D00023E0
:1047400054E07B685B69002B03D07B685B699B0846
:104750003B627B689B68002B0ED07B68DB68A72BD5
:104760000AD97B681B69002B06D07B685B69002B2C
:1047700002D00123BB6110E07B689B68002B0CD149
:104780007B68DB68002B08D17B681B69002B04D198
:104790000023BB6101E00023BB61BB69012B10D189
:1047A0007B681B697A68926802920193FB690093A7
:1047B000BB683A6A796AF86800F01AFE03463B6102
:1047C00013E0BB69002B10D13B6A9AB207F11003CA
:1047D0000193FB690093BB68796AF86800F068FE92
:1047E0000346012B01D000233B613B691846283763
:1047F000BD4680BD80B584B000AF7860EFF305831F
:10480000BB60BB68002B03D06FF00503FB6007E0C3
:104810000023FB607B68002B02D0786800F0A6FFC5
:10482000FB6818461037BD4680BD000080B485B0D7
:1048300000AFF860B9607A60FB68074A1A60BB682D
:10484000064A1A607B6880221A6000BF1437BD4692
:104850005DF8047B704700BF1C020020C4020020EA
:1048600080B485B000AFF860B9607A60FB68074A31
:104870001A60BB68064A1A607B684FF480721A603F
:1048800000BF1437BD465DF8047B7047C4040020A8
:104890006C05002080B483B000AF78607B6803F1C2
:1048A00008027B685A607B684FF0FF329A607B6831
:1048B00003F108027B68DA607B6803F108027B6819
:1048C0001A617B6800221A6000BF0C37BD465DF894
:1048D000047B704780B483B000AF78607B680022AF
:1048E0001A6100BF0C37BD465DF8047B704780B489
:1048F00085B000AF786039607B685B68FB603B68BF
:10490000FA685A60FB689A683B689A60FB689B6823
:104910003A685A60FB683A689A603B687A681A613C
:104920007B681B685A1C7B681A6000BF1437BD4641
:104930005DF8047B704780B485B000AF7860396063
:104940003B681B68BB60BB68B3F1FF3F03D17B686A
:104950001B69FB600CE07B680833FB6002E0FB68CE
:104960005B68FB60FB685B681B68BA689A42F6D2BA
:10497000FB685A683B685A603B685B683A689A60B3
:104980003B68FA689A60FB683A685A603B687A68E4
:104990001A617B681B685A1C7B681A6000BF143759
:1049A000BD465DF8047B704780B485B000AF786089
:1049B0007B681B69FB607B685B687A6892689A60B9
:1049C0007B689B687A6852685A60FB685B687A68A3
:1049D0009A4203D17B689A68FB685A607B68002220
:1049E0001A61FB681B685A1EFB681A60FB681B682B
:1049F00018461437BD465DF8047B704780B584B017
:104A000000AF786039607B68FB60FB68002B0BD1DE
:104A10004FF0500383F31188BFF36F8FBFF34F8FB5
:104A2000BB6000BF00BFFDE702F0A6F8FB681A6894
:104A3000FB68DB6BF968096C01FB03F31A44FB6844
:104A40009A60FB6800229A63FB681A68FB685A60E8
:104A5000FB681A68FB68DB6B013BF968096C01FBBA
:104A600003F31A44FB68DA60FB68FF2283F84420F2
:104A7000FB68FF2283F845203B68002B14D1FB68BC
:104A80001B69002B1AD0FB681033184601F042F95D
:104A90000346002B12D00D4B4FF080521A60BFF32B
:104AA0004F8FBFF36F8F09E0FB6810331846FFF795
:104AB000F1FEFB6824331846FFF7ECFE02F08EF897
:104AC000012318461037BD4680BD00BF04ED00E04D
:104AD00080B58EB002AFF860B9607A603B60FB6869
:104AE000002B0BD14FF0500383F31188BFF36F8F6E
:104AF000BFF34F8FBB6200BF00BFFDE73B68002BD9
:104B00000BD14FF0500383F31188BFF36F8FBFF3C6
:104B10004F8F7B6200BF00BFFDE77B68002B02D098
:104B2000BB68002B01D0012300E00023002B0BD138
:104B30004FF0500383F31188BFF36F8FBFF34F8F94
:104B40003B6200BF00BFFDE77B68002B02D1BB6862
:104B5000002B01D1012300E00023002B0BD14FF0EB
:104B6000500383F31188BFF36F8FBFF34F8FFB6147
:104B700000BF00BFFDE750237B617B69502B0BD04A
:104B80004FF0500383F31188BFF36F8FBFF34F8F44
:104B9000BB6100BF00BFFDE77B693B68FB62FB6A4E
:104BA000002B0DD0FB6A012283F8462097F83820AD
:104BB000FB6A009313467A68B968F86800F005F854
:104BC000FB6A18463037BD4680BD80B584B000AF63
:104BD000F860B9607A60FB70BB68002B03D1BB69D9
:104BE000BA691A6002E0BB697A681A60BB69FA6840
:104BF000DA63BB69BA681A640121B869FFF7FEFE7F
:104C0000BB69FA7883F84C2000BF1037BD4680BDE1
:104C100080B58EB000AFF860B9607A603B60002369
:104C20007B63FB683B633B6B002B0BD14FF0500366
:104C300083F31188BFF36F8FBFF34F8FBB6200BF49
:104C400000BFFDE7BB68002B03D13B6B1B6C002B47
:104C500001D1012300E00023002B0BD14FF05003C2
:104C600083F31188BFF36F8FBFF34F8F7B6200BF59
:104C700000BFFDE73B68022B03D13B6BDB6B012BD5
:104C800001D1012300E00023002B0BD14FF0500392
:104C900083F31188BFF36F8FBFF34F8F3B6200BF69
:104CA00000BFFDE701F0FCF90346002B02D17B6851
:104CB000002B01D1012300E00023002B0BD14FF08A
:104CC000500383F31188BFF36F8FBFF34F8FFB61E6
:104CD00000BF00BFFDE701F04FFF3B6B9A6B3B6BE2
:104CE000DB6B9A4202D33B68022B29D13A68B96840
:104CF000386B00F00FFAF8623B6B5B6A002B10D048
:104D00003B6B2433184601F005F80346002B13D003
:104D10003F4B4FF080521A60BFF34F8FBFF36F8F3E
:104D20000AE0FB6A002B07D0394B4FF080521A6023
:104D3000BFF34F8FBFF36F8F01F050FF012363E08C
:104D40007B68002B03D101F049FF00235CE07B6B03
:104D5000002B06D107F11403184601F03FF8012398
:104D60007B6301F03BFF00F0A7FD01F005FF3B6B0B
:104D700093F844305BB2B3F1FF3F03D13B6B0022A9
:104D800083F844203B6B93F845305BB2B3F1FF3FAF
:104D900003D13B6B002283F8452001F01FFF3A1D31
:104DA00007F114031146184601F02EF80346002BB4
:104DB00024D1386B00F0A6FA0346002B18D03B6BC9
:104DC00010337A681146184600F052FF386B00F035
:104DD00031FA00F07FFD0346002B7FF47CAF0C4BD3
:104DE0004FF080521A60BFF34F8FBFF36F8F72E79F
:104DF000386B00F01FFA00F06DFD6CE7386B00F0C7
:104E000019FA00F067FD002318463837BD4680BD0B
:104E100004ED00E080B590B000AFF860B9607A6052
:104E20003B60FB68BB63BB6B002B0BD14FF05003A7
:104E300083F31188BFF36F8FBFF34F8FBB6200BF47
:104E400000BFFDE7BB68002B03D1BB6B1B6C002BC5
:104E500001D1012300E00023002B0BD14FF05003C0
:104E600083F31188BFF36F8FBFF34F8F7B6200BF57
:104E700000BFFDE73B68022B03D1BB6BDB6B012B53
:104E800001D1012300E00023002B0BD14FF0500390
:104E900083F31188BFF36F8FBFF34F8F3B6200BF67
:104EA00000BFFDE701F048FFEFF311824FF0500320
:104EB00083F31188BFF36F8FBFF34F8FFA61BB612C
:104EC000FB697B63BB6B9A6BBB6BDB6B9A4202D358
:104ED0003B68022B2FD1BB6B93F8453087F83330FA
:104EE000BB6B9B6BFB623A68B968B86B00F012F958
:104EF00097F93330B3F1FF3F12D1BB6B5B6A002BE4
:104F000016D0BB6B2433184600F004FF0346002B79
:104F10000ED07B68002B0BD07B6801221A6007E063
:104F200097F833300133DBB25AB2BB6B83F84520BC
:104F30000123FB6301E00023FB637B6B7B617B69E7
:104F400083F3118800BFFB6B18464037BD4680BD18
:104F500080B58CB000AFF860B9607A600023FB6266
:104F6000FB68BB62BB6A002B0BD14FF0500383F38D
:104F70001188BFF36F8FBFF34F8F3B6200BF00BF3D
:104F8000FDE7BB68002B03D1BB6A1B6C002B01D172
:104F9000012300E00023002B0BD14FF0500383F3DB
:104FA0001188BFF36F8FBFF34F8FFB6100BF00BF4E
:104FB000FDE701F075F80346002B02D17B68002B5A
:104FC00001D1012300E00023002B0BD14FF050034F
:104FD00083F31188BFF36F8FBFF34F8FBB6100BFA7
:104FE00000BFFDE701F0C8FDBB6A9B6B7B627B6A7B
:104FF000002B1FD0B968B86A00F0F6F87B6A5A1E19
:10500000BB6A9A63BB6A1B69002B0FD0BB6A103363
:10501000184600F07FFE0346002B07D03C4B4FF0B4
:1050200080521A60BFF34F8FBFF36F8F01F0D6FD30
:10503000012369E07B68002B03D101F0CFFD002341
:1050400062E0FB6A002B06D107F11003184600F05E
:10505000C5FE0123FB6201F0C1FD00F02DFC01F053
:105060008BFDBB6A93F844305BB2B3F1FF3F03D1D1
:10507000BB6A002283F84420BB6A93F845305BB2D8
:10508000B3F1FF3F03D1BB6A002283F8452001F052
:10509000A5FD3A1D07F110031146184600F0B4FEB5
:1050A0000346002B23D1B86A00F016F90346002B03
:1050B00017D0BB6A24337A681146184600F0D8FD31
:1050C000B86A00F0B7F800F005FC0346002B89D160
:1050D0000F4B4FF080521A60BFF34F8FBFF36F8FAB
:1050E00080E7B86A00F0A6F800F0F4FB7AE7B86A47
:1050F00000F0A0F800F0EEFBB86A00F0EDF803460F
:10510000002B3FF46FAF002318463037BD4680BDFB
:1051100004ED00E080B586B000AFF860B9607A6059
:1051200000237B61FB689B6B3B61FB681B6C002B66
:105130000DD1FB681B68002B4DD1FB689B6818469E
:1051400000F0CCFF7861FB6800229A6043E07B6846
:10515000002B19D1FB685868FB681B6C1A46B968AC
:1051600002F0D8F8FB685A68FB681B6C1A44FB68AD
:105170005A60FB685A68FB689B689A422BD3FB68AD
:105180001A68FB685A6026E0FB68D868FB681B6CED
:105190001A46B96802F0BEF8FB68DA68FB681B6C57
:1051A0005B421A44FB68DA60FB68DA68FB681B68DC
:1051B0009A4207D2FB689A68FB681B6C5B421A44F0
:1051C000FB68DA607B68022B05D13B69002B02D0BB
:1051D0003B69013B3B613B695A1CFB689A637B69F5
:1051E00018461837BD4680BD80B582B000AF7860E4
:1051F00039607B681B6C002B18D07B68DA687B6891
:105200001B6C1A447B68DA607B68DA687B689B6891
:105210009A4203D37B681A687B68DA607B68D96836
:105220007B681B6C1A46386802F074F800BF0837B8
:10523000BD4680BD80B584B000AF786001F09CFCB5
:105240007B6893F84530FB7311E07B685B6A002B49
:1052500012D07B682433184600F05CFD0346002B17
:1052600001D000F035FEFB7B013BDBB2FB7397F90D
:105270000F30002BE9DC00E000BF7B68FF2283F8E1
:10528000452001F0ABFC01F077FC7B6893F84430DB
:10529000BB7311E07B681B69002B12D07B68103355
:1052A000184600F037FD0346002B01D000F010FE39
:1052B000BB7B013BDBB2BB7397F90E30002BE9DC03
:1052C00000E000BF7B68FF2283F8442001F086FCE9
:1052D00000BF1037BD4680BD80B584B000AF786098
:1052E00001F04AFC7B689B6B002B02D10123FB6021
:1052F00001E00023FB6001F071FCFB6818461037E9
:10530000BD4680BD80B584B000AF786001F034FC4C
:105310007B689A6B7B68DB6B9A4202D10123FB604E
:1053200001E00023FB6001F059FCFB6818461037D0
:10533000BD4680BD80B485B000AF78603960002381
:10534000FB6014E00F4AFB6852F83330002B0BD19E
:105350000C49FB683A6841F833200A4AFB68DB00D5
:1053600013447A685A6006E0FB680133FB60FB680F
:10537000072BE7D900BF00BF1437BD465DF8047B9B
:10538000704700BF6C09002080B586B000AFF860A0
:10539000B9607A60FB687B6101F0EEFB7B6993F892
:1053A00044305BB2B3F1FF3F03D17B69002283F845
:1053B00044207B6993F845305BB2B3F1FF3F03D1E2
:1053C0007B69002283F8452001F008FC7B699B6B18
:1053D000002B06D17B6924337A68B968184600F03F
:1053E0006DFC7869FFF726FF00BF1837BD4680BD0A
:1053F00080B58EB004AFF860B9607A603B607B6BBB
:10540000002B0BD14FF0500383F31188BFF36F8F44
:10541000BFF34F8F3B6200BF00BFFDE7BB6B002BAC
:105420000BD14FF0500383F31188BFF36F8FBFF39D
:105430004F8FFB6100BF00BFFDE7A8233B613B69C5
:10544000A82B0BD04FF0500383F31188BFF36F8F5D
:10545000BFF34F8FBB6100BF00BFFDE73B69BB6B74
:10546000002B1ED07B6B002B1BD0BB6B7B627B6A3F
:105470007A6B1A637B6A022283F8A52000230393C8
:105480007B6A029307F1140301933B6B00933B6823
:105490007A68B968F86800F051F8786A00F0F6F8B0
:1054A00001E000237B617B6918462837BD4680BD3B
:1054B00080B58CB004AFF860B9603B601346FB80E8
:1054C000FB889B00184601F079FC78617B69002B12
:1054D0000ED0A82001F072FCF861FB69002B03D00C
:1054E000FB697A691A6305E0786901F035FD01E02E
:1054F0000023FB61FB69002B17D0FB69002283F8B6
:10550000A520FA8800230393FB690293FB6A0193A9
:10551000BB6A00933B68B968F86800F00FF8F86957
:1055200000F0B4F80123BB6102E04FF0FF33BB6130
:10553000BB6918462037BD4680BD000080B588B0E5
:1055400000AFF860B9607A603B603B6B186B7B68BA
:105550009B001A46A52101F053FE3B6B1A6B7B683A
:1055600003F18043013B9B001344BB61BB6923F003
:105570000703BB61BB6903F00703002B0BD04FF09F
:10558000500383F31188BFF36F8FBFF34F8F7B619D
:1055900000BF00BFFDE7BB68002B1FD00023FB61ED
:1055A00012E0BA68FB69134419783A6BFB6913443B
:1055B00034330A461A70BA68FB6913441B78002B0F
:1055C00006D0FB690133FB61FB690F2BE9D900E0D1
:1055D00000BF3B6B002283F8432003E03B6B0022BB
:1055E00083F83420BB6A372B01D93723BB623B6B6E
:1055F000BA6ADA623B6BBA6ADA643B6B00221A65FC
:105600003B6B04331846FFF765F93B6B18331846BC
:10561000FFF760F93B6B3A6B1A61BB6AC3F1380262
:105620003B6B9A613B6B3A6B5A623B6B0022C3F84F
:10563000A0203B6B002283F8A4203B6B54334C2208
:105640000021184601F0DCFD3B6B0D4A9A653B6B6F
:105650000C4ADA653B6B0C4A1A663A68F968B86915
:1056600001F05AF902463B6B1A60FB6A002B02D02C
:10567000FB6A3A6B1A6000BF2037BD4680BD00BF91
:10568000004C0020684C0020D04C002080B582B037
:1056900000AF786001F070FA2D4B1B6801332C4A83
:1056A00013602C4B1B68002B09D12A4A7B681360BE
:1056B000274B1B68012B10D100F02EFC0DE0264B70
:1056C0001B68002B09D1234B1B68DA6A7B68DB6AF5
:1056D0009A4202D81F4A7B681360204B1B68013333
:1056E0001E4A13601D4B1A687B685A647B68DA6A2D
:1056F0001B4B1B689A4203D97B68DB6A184A13600C
:105700007B68DA6A13469B0013449B00154A1A44CF
:105710007B68043319461046FFF7E9F801F05EFA9A
:105720000D4B1B68002B0ED00A4B1B68DA6A7B6896
:10573000DB6A9A4207D20C4B4FF080521A60BFF3DB
:105740004F8FBFF36F8F00BF0837BD4680BD00BFCE
:10575000800E0020AC0900208C0E00209C0E002042
:10576000880E0020B009002004ED00E080B584B070
:1057700000AF78600023FB607B68002B18D0144BCF
:105780001B68002B0BD04FF0500383F31188BFF33D
:105790006F8FBFF34F8FBB6000BF00BFFDE700F00E
:1057A0008BF80021786800F009FD00F093F8F860AC
:1057B000FB68002B07D1074B4FF080521A60BFF3F4
:1057C0004F8FBFF36F8F00BF1037BD4680BD00BF46
:1057D000A80E002004ED00E080B58AB004AF0023DD
:1057E000BB6000237B603A46391D07F10803184669
:1057F000FFF71CF839687B68BA68029201930023AE
:10580000009300230A4624492448FFF7F1FD03468C
:10581000234A1360224B1B68002B02D001237B61BB
:1058200001E000237B617B69012B02D100F01AFDAE
:1058300078617B69012B1BD14FF0500383F31188F2
:10584000BFF36F8FBFF34F8F3B6100BF154B1B68DA
:105850005433154A1360154B4FF0FF321A60144B46
:1058600001221A60134B00221A6001F0E1F80FE0E8
:105870007B69B3F1FF3F0BD14FF0500383F31188E5
:10588000BFF36F8FBFF34F8FFB6000BF00BFFDE71B
:1058900000BF1837BD4680BD947C0008E95E000853
:1058A000A40E0020AC09002064000020A00E0020FF
:1058B0008C0E0020840E002080B400AF044B1B68C7
:1058C0000133034A136000BFBD465DF8047B704797
:1058D000A80E002080B584B000AF0023FB60002339
:1058E000BB60424B1B68002B0BD14FF0500383F37E
:1058F0001188BFF36F8FBFF34F8F3B6000BF00BFB6
:10590000FDE701F039F9394B1B68013B374A136059
:10591000364B1B68002B62D1354B1B68002B5ED0C9
:105920002FE0344BDB68DB68FB60FB6818331846FC
:10593000FFF73AF8FB6804331846FFF735F8FB68C1
:10594000DA6A2D4B1B689A4203D9FB68DB6A2A4A44
:105950001360FB68DA6A13469B0013449B00274AD6
:105960001A44FB68043319461046FEF7C0FFFB6873
:10597000DA6A234B1B68DB6A9A4202D3214B01226D
:105980001A601C4B1B68002BCBD1FB68002B01D08D
:1059900000F066FB1C4B1B687B607B68002B10D003
:1059A00000F046F80346002B02D0164B01221A6085
:1059B0007B68013B7B607B68002BF1D1124B00229E
:1059C0001A60104B1B68002B09D00123BB600F4BE2
:1059D0004FF080521A60BFF34F8FBFF36F8F01F00B
:1059E000FDF8BB6818461037BD4680BDA80E0020E4
:1059F000800E0020400E0020880E0020B0090020FC
:105A0000AC090020940E0020900E002004ED00E070
:105A100080B483B000AF054B1B687B607B68184681
:105A20000C37BD465DF8047B704700BF840E002034
:105A300080B586B000AF00237B614F4B1B68002B05
:105A400040F090804D4B1B6801333B614B4A3B69F2
:105A500013603B69002B21D1494B1B681B68002B4D
:105A60000BD04FF0500383F31188BFF36F8FBFF358
:105A70004F8F3B6000BF00BFFDE7414B1B68FB60E1
:105A8000404B1B683E4A13603E4AFB6813603E4B26
:105A90001B6801333C4A136000F0E2FA3B4B1B6881
:105AA0003A699A4249D3364B1B681B68002B04D1D4
:105AB000364B4FF0FF321A603FE0314B1B68DB681A
:105AC000DB68BB60BB685B687B603A697B689A4255
:105AD00003D22E4A7B6813602FE0BB68043318465C
