:020000040800F2
:1000000000000220852C0008A92B0008B12B000855
:10001000B92B0008C12B0008C92B00080000000004
:10002000000000000000000000000000B16A0008AD
:10003000D12B000800000000016D000821460008D7
:10004000D52C0008D52C0008D52C0008D52C00088C
:10005000D52C0008D52C0008D52C0008D52C00087C
:10006000D52C0008D52C0008D52C0008D52C00086C
:10007000D52C0008D52C0008D52C0008D52C00085C
:10008000D52C0008D52C0008D52C00080000000055
:10009000000000000000000000000000D52C000857
:1000A000D52C0008D52C0008D52C0008D52C00082C
:1000B000E12B0008D52C0008D52C0008D52C000811
:1000C000D52C0008D52C0008D52C0008D52C00080C
:1000D000D52C0008D52C0008D52C00080000000005
:1000E000D52C0008D52C0008D52C000800000000F5
:1000F000000000000000000000000000D52C0008F7
:1001000000000000D52C0008D52C0008D52C0008D4
:1001100000000000000000000000000000000000DF
:10012000D52C0008D52C0008D52C0008D52C0008AB
:10013000D52C0008000000000000000000000000B6
:10014000000000000000000000000000D52C0008A6
:10015000D52C0008D52C0008D52C0008D52C00087B
:10016000D52C0008D52C000800000000000000007D
:10017000000000000000000000000000000000007F
:1001800000000000D52C0008000000000000000066
:08019000D52C0008D52C000855
:1001A00010B5054C237833B9044B13B10448AFF3B1
:1001B00000800123237010BDB80000200000000063
:1001C0007C7C000808B5034B1BB103490348AFF31F
:1001D000008008BD00000000BC0000207C7C0008FE
:1001E000034613F8012B002AFBD1181A0138704777
:1001F00001F0FF01102A2BDB10F0070F08D010F8D8
:10020000013B013A8B422DD010F0070F42B3F6D1DB
:10021000F0B441EA012141EA014122F007047FF0F4
:1002200000070023F0E80256083C85EA010586EA4B
:10023000010685FA47F5A3FA87F586FA47F6A5FA87
:1002400087F68EB9EED1F0BC01F0FF0102F0070293
:1002500032B110F8013B013A83EA010313B1F8D13E
:100260000020704701387047002D06BF354603381F
:10027000073815F0010F07D1013015F4807F02BF58
:10028000013015F4C03F0130F0BC0138704700BFA9
:1002900081F0004102E000BF83F0004330B54FEA37
:1002A00041044FEA430594EA050F08BF90EA020FA4
:1002B0001FBF54EA000C55EA020C7FEA645C7FEA37
:1002C000655C00F0E2804FEA5454D4EB5555B8BF5A
:1002D0006D420CDD2C4480EA020281EA030382EACB
:1002E000000083EA010180EA020281EA0303362D5D
:1002F00088BF30BD11F0004F4FEA01314FF4801C30
:100300004CEA113102D0404261EB410113F0004F41
:100310004FEA03334CEA133302D0524263EB4303F8
:1003200094EA050F00F0A780A4F10104D5F1200E96
:100330000DDB02FA0EFC22FA05F2801841F10001F1
:1003400003FA0EF2801843FA05F359410EE0A5F1C5
:1003500020050EF1200E012A03FA0EFC28BF4CF0F6
:10036000020C43FA05F3C01851EBE37101F00045AC
:1003700007D54FF0000EDCF1000C7EEB00006EEBB9
:100380000101B1F5801F1BD3B1F5001F0CD3490843
:100390005FEA30004FEA3C0C04F101044FEA44529A
:1003A00012F5800F80F09A80BCF1004F08BF5FEA21
:1003B000500C50F1000041EB045141EA050130BD01
:1003C0005FEA4C0C404141EB0101013C28BFB1F513
:1003D000801FE9D291F0000F04BF01460020B1FA5E
:1003E00081F308BF2033A3F10B03B3F120020CDA31
:1003F0000C3208DD02F1140CC2F10C0201FA0CF00F
:1004000021FA02F10CE002F11402D8BFC2F1200C73
:1004100001FA02F120FA0CFCDCBF41EA0C01904029
:10042000E41AA2BF01EB0451294330BD6FEA040472
:100430001F3C1CDA0C340EDC04F11404C4F120025D
:1004400020FA04F001FA02F340EA030021FA04F36F
:1004500045EA030130BDC4F10C04C4F1200220FAC6
:1004600002F001FA04F340EA0300294630BD21FA04
:1004700004F0294630BD94F0000F83F4801306BFCA
:1004800081F480110134013D4EE77FEA645C18BFBE
:100490007FEA655C29D094EA050F08BF90EA020F55
:1004A00005D054EA000C04BF1946104630BD91EA4D
:1004B000030F1EBF0021002030BD5FEA545C05D150
:1004C0004000494128BF41F0004130BD14F580048F
:1004D0003CBF01F5801130BD01F0004545F0FE4103
:1004E00041F470014FF0000030BD7FEA645C1ABF38
:1004F000194610467FEA655C1CBF0B46024650EA6F
:10050000013406BF52EA033591EA030F41F400219A
:1005100030BD00BF90F0000F04BF0021704730B520
:100520004FF4806404F132044FF000054FF00001F5
:1005300050E700BF90F0000F04BF0021704730B5B6
:100540004FF4806404F1320410F0004548BF40428B
:100550004FF000013EE700BF42004FEAE2014FEAE0
:1005600031014FEA02701FBF12F07F4393F07F4FBB
:1005700081F06051704732F07F4208BF704793F0BE
:100580007F4F04BF41F40021704730B54FF46074D1
:1005900001F0004521F000411CE700BF50EA0102D4
:1005A00008BF704730B54FF000050AE050EA01027D
:1005B00008BF704730B511F0004502D5404261EBED
:1005C00041014FF4806404F132045FEA915C3FF42E
:1005D000D8AE4FF003025FEADC0C18BF03325FEACB
:1005E000DC0C18BF033202EBDC02C2F1200300FA7C
:1005F00003FC20FA02F001FA03FE40EA0E0021FAA1
:1006000002F11444BDE600BF70B54FF0FF0C4CF48E
:10061000E06C1CEA11541DBF1CEA135594EA0C0F40
:1006200095EA0C0F00F0DEF82C4481EA030621EA7B
:100630004C5123EA4C5350EA013518BF52EA0335B6
:1006400041F4801143F4801338D0A0FB02CE4FF068
:100650000005E1FB02E506F00042E0FB03E54FF098
:100660000006E1FB03569CF0000F18BF4EF0010E90
:10067000A4F1FF04B6F5007F64F5407404D25FEA8C
:100680004E0E6D4146EB060642EAC62141EA55513F
:100690004FEAC52040EA5E504FEACE2EB4F1FD0C81
:1006A00088BFBCF5E06F1ED8BEF1004F08BF5FEAFF
:1006B000500E50F1000041EB045170BD06F00046B1
:1006C00046EA010140EA020081EA0301B4EB5C045E
:1006D000C2BFD4EB0C0541EA045170BD41F4801156
:1006E0004FF0000E013C00F3AB8014F1360FDEBF7B
:1006F000002001F0004170BDC4F10004203C35DA57
:100700000C341BDC04F11404C4F1200500FA05F3D9
:1007100020FA04F001FA05F240EA020001F000427A
:1007200021F0004110EBD37021FA04F642EB0601F0
:100730005EEA430E08BF20EAD37070BDC4F10C041A
:10074000C4F1200500FA04F320FA05F001FA04F2DE
:1007500040EA020001F0004110EBD37041F10001CA
:100760005EEA430E08BF20EAD37070BDC4F12005D5
:1007700000FA05F24EEA020E20FA04F301FA05F23D
:1007800043EA020321FA04F001F0004121FA04F2E5
:1007900020EA020000EBD3705EEA430E08BF20EAB5
:1007A000D37070BD94F0000F0FD101F000464000EF
:1007B00041EB010111F4801F08BF013CF7D041EA71
:1007C000060195F0000F18BF704703F00046520075
:1007D00043EB030313F4801F08BF013DF7D043EA46
:1007E0000603704794EA0C0F0CEA135518BF95EAFC
:1007F0000C0F0CD050EA410618BF52EA4306D1D183
:1008000081EA030101F000414FF0000070BD50EAA1
:10081000410606BF1046194652EA430619D094EA2B
:100820000C0F02D150EA013613D195EA0C0F05D115
:1008300052EA03361CBF104619460AD181EA030169
:1008400001F0004141F0FE4141F470014FF0000021
:1008500070BD41F0FE4141F4780170BD70B54FF0BC
:10086000FF0C4CF4E06C1CEA11541DBF1CEA13553C
:1008700094EA0C0F95EA0C0F00F0A7F8A4EB05041E
:1008800081EA030E52EA03354FEA013100F0888015
:100890004FEA03334FF0805545EA131343EA1263DE
:1008A0004FEA022245EA111545EA10654FEA002693
:1008B0000EF000419D4208BF964244F1FD0404F54C
:1008C000407402D25B084FEA3202B61A65EB0305A8
:1008D0005B084FEA32024FF480104FF4002CB6EB65
:1008E000020E75EB030E22BFB61A754640EA0C00E5
:1008F0005B084FEA3202B6EB020E75EB030E22BF25
:10090000B61A754640EA5C005B084FEA3202B6EB65
:10091000020E75EB030E22BFB61A754640EA9C0024
:100920005B084FEA3202B6EB020E75EB030E22BFF4
:10093000B61A754640EADC0055EA060E18D04FEAB2
:10094000051545EA16754FEA06164FEAC30343EA52
:1009500052734FEAC2025FEA1C1CC0D111F4801F1F
:100960000BD141EA00014FF000004FF0004CB6E718
:1009700011F4801F04BF01430020B4F1FD0C88BFB7
:10098000BCF5E06F3FF6AFAEB5EB030C04BFB6EBC2
:10099000020C5FEA500C50F1000041EB045170BDB5
:1009A0000EF0004E4EEA113114EB5C04C2BFD4EBE2
:1009B0000C0541EA045170BD41F480114FF0000E66
:1009C000013C90E645EA060E8DE60CEA135594EAE2
:1009D0000C0F08BF95EA0C0F3FF43BAF94EA0C0FE5
:1009E0000AD150EA01347FF434AF95EA0C0F7FF45A
:1009F00025AF104619462CE795EA0C0F06D152EAAE
:100A000003353FF4FDAE1046194622E750EA410691
:100A100018BF52EA43067FF4C5AE50EA41047FF4A2
:100A20000DAF52EA43057FF4EBAE12E74FEA410205
:100A3000B2F1E04324BFB3F5001CDCF1FE5C0DD93C
:100A400001F0004C4FEAC0024CEA5070B2F1004F86
:100A500040EB830008BF20F00100704711F0804F89
:100A600021D113F13872BCBF01F00040704741F44E
:100A700080114FEA5252C2F11802C2F1200C10FA52
:100A80000CF320FA02F018BF40F001004FEAC12336
:100A90004FEAD32303FA0CFC40EA0C0023FA02F3DA
:100AA0004FEA4303CCE77FEA625307D150EA0133B0
:100AB0001EBF4FF0FE4040F44000704701F0004080
:100AC00040F0FE4040F40000704700BF53B94AB9FF
:100AD000002908BF00281CBF4FF0FF314FF0FF3046
:100AE00000F06AB9ADF1080C6DE904CE00F006F82B
:100AF000DDF804E0DDE9022304B070472DE9F0479A
:100B0000089D0C46002B4ED194468C458646B2FA81
:100B100082F262D94AB1C2F12003914020FA03F374
:100B20000CFA02FC194300FA02FE4FEA1C471FFAB6
:100B30008CF6B1FBF7F44FEA1E4307FB141143EAAE
:100B4000014304FB06F199420AD91CEB030304F1AB
:100B5000FF3080F01281994240F20F81023C6344E1
:100B6000591A1FFA8EF3B1FBF7F007FB101143EA95
:100B7000014300FB06F69E420AD91CEB030300F179
:100B8000FF3180F0FC809E4240F2F98063440238DD
:100B90009B1B40EA044000211DB1D3400022C5E95F
:100BA0000032BDE8F0878B4205D90DB1C5E90001DF
:100BB00000210846F5E7B3FA83F1002946D1A342A4
:100BC00002D39042C0F0F080861A64EB0303012048
:100BD000002DE6D0C5E90063E3E7002A40F09080ED
:100BE000A1EB0C044FEA1C481FFA8CF70121B4FB5F
:100BF000F8F64FEA1E4308FB164443EA044307FB9A
:100C000006F0984208D91CEB030306F1FF3402D228
:100C1000984200F2CD8026461C1A1FFA8EF3B4FBD0
:100C2000F8F008FB104443EA044300FB07F79F4237
:100C300008D91CEB030300F1FF3402D29F4200F2FB
:100C4000B0802046DB1B40EA0640A5E7C1F1200644
:100C50008B4022FA06F71F4320FA06FC04FA01F340
:100C600043EA0C03F44000FA01F8380C4FEA134948
:100C7000B4FBF0FE1FFA87FC00FB1E4449EA044463
:100C80000EFB0CF9A14502FA01F20AD93C190EF14A
:100C9000FF3A80F08480A14540F28180AEF1020EDF
:100CA0003C44A4EB09041FFA83F9B4FBF0F300FB06
:100CB000134449EA044403FB0CFCA44507D93C193E
:100CC00003F1FF3067D2A44565D9023B3C4443EAB7
:100CD0000E40A0FB0293A4EB0C049C42CE469C4623
:100CE00051D34ED055B1B8EB0E0364EB0C0404FAAB
:100CF00006F6CB401E43CC40C5E90064002150E716
:100D0000C2F1200320FA03F10CFA02FC24FA03F3E7
:100D100094400C434FEA1C4800FA02FE1FFA8CF77D
:100D2000B3FBF8F008FB1031230C43EA014300FB4E
:100D300007F1994208D91CEB030300F1FF362CD2CE
:100D400099422AD9023863445B1AA4B2B3FBF8F182
:100D500008FB113344EA034401FB07F3A34208D91B
:100D60001CEB040401F1FF3613D2A34211D902395E
:100D70006444E41A41EA004139E70446F0E60846D3
:100D800006E7C845AED2B9EB020E63EB070C01389B
:100D9000A8E73146EDE7034699E73046D4E7D64663
:100DA0007FE7634402384DE70646234608460FE7CF
:100DB000023E634430E700BF704700BF80B582B099
:100DC00000AF7860214B1B68002B0CBF0123002370
:100DD000DBB21A461D4B1A601C4B1B68002B18D047
:100DE0001B4B1B68012B05D11A4A07211A4806F034
:100DF0003BFA26E0164B1B68022B22D1154A07212D
:100E0000154806F031FA154A0721154806F02CFA64
:100E100017E00F4B1B68012B05D1124A07210E4822
:100E200006F022FA0DE00A4B1B68022B09D10D4A8D
:100E30000721094806F018FA0A4A0721084806F06F
:100E400013FA00BF0837BD4680BD00BF0401002073
:100E500004000020F400002036000020FC000020E8
:100E60002F000020947C000880B582B000AF0346BC
:100E7000FB71FB79032B00F2C08001A252F823F032
:100E8000910E0008ED0E0008470F0008A10F0008A2
:100E90000121614802F0C8F90346002B01D1432328
:100EA000B5E002215C4802F0BFF90346002B01D1F6
:100EB0003723ACE00421584802F0B6F90346002B72
:100EC00001D13423A3E00821534802F0ADF90346D1
:100ED000002B01D131239AE010214F4802F0A4F9F0
:100EE0000346002B40F08B80412390E001214A48CB
:100EF00002F09AF90346002B01D1302387E002214A
:100F0000454802F091F90346002B01D138237EE0D9
:100F10000421414802F088F90346002B01D1352312
:100F200075E008213C4802F07FF90346002B01D10F
:100F300032236CE01021384802F076F90346002B8A
:100F40005FD1422363E00121334802F06DF903468B
:100F5000002B01D145235AE002212F4802F064F909
:100F60000346002B01D1392351E004212A4802F025
:100F70005BF90346002B01D1362348E008212648BF
:100F800002F052F90346002B01D133233FE0102138
:100F9000214802F049F90346002B34D1442336E0BE
:100FA00001211D4802F040F90346002B01D15423D2
:100FB0002DE00221184802F037F90346002B01D139
:100FC000502324E00421144802F02EF90346002B9C
:100FD00001D124231BE008210F4802F025F9034624
:100FE000002B01D14C2312E010210B4802F01CF918
:100FF0000346002B09D1462309E0FF2307E000BF89
:1010000004E000BF02E000BF00E000BFFF2318467D
:101010000837BD4680BD00BF0004024080B582B0E5
:1010200000AF002240212C4802F016F901224FF4B3
:101030006071294802F010F90020FFF715FF034600
:10104000FB71FB79FF2B01D0FB7941E0002280216D
:10105000214802F001F901224FF450711E4802F0BC
:10106000FBF80120FFF700FF0346FB71FB79FF2B24
:1010700001D0FB792CE000224FF48071164802F079
:10108000EBF801224FF43071134802F0E5F802202A
:10109000FFF7EAFE0346FB71FB79FF2B01D0FB79DA
:1010A00016E000224FF400710B4802F0D5F801223F
:1010B0004FF4E071084802F0CFF80320FFF7D4FEA8
:1010C0000346FB71FB79FF2B01D0FB7900E0FF2386
:1010D00018460837BD4680BD0004024080B485B084
:1010E00000AFF860B9607A60FB681C4A934215D87B
:1010F000FB681B4AA2FB03239A0CBB681A60FA68C0
:10110000174BA3FB02139B0C164901FB03F3D31AE5
:101110007A681360144B03221A6018E0FB68134AC4
:10112000A2FB03235A0EBB681A60FA680F4BA3FB9D
:1011300002135B0E0E4901FB03F3D31A0D4AA2FB07
:1011400003235A097B681A60074B01221A6000BF0B
:101150001437BD465DF8047B704700BFFFE0F5051E
:1011600083DE1B4340420F0054000020893BE655BC
:1011700000E1F5051F85EB5180B485B000AFF86044
:10118000B9607A60FB68144A934215D8FB68134A29
:10119000A2FB03239A0CBB681A60FA680F4BA3FBEF
:1011A00002139B0C0E4901FB03F3D31A7A681360F8
:1011B0000C4B03221A6009E0BB6800221A607B68AE
:1011C00000221A60074B4FF0FF321A6000BF14373D
:1011D000BD465DF8047B7047FFC99A3B83DE1B4325
:1011E00040420F005400002080B586B002AF87ED6A
:1011F000010A3860D7ED017AFDEEE77A17EE903AF2
:10120000FB60FB6807EE903AF8EEE77A97ED017A1B
:1012100077EE677A9FED0A7A67EE877AFDEEE77AD6
:1012200017EE903ABB60BB680093FB68054A072144
:10123000386806F019F800BF1037BD4680BD00BF02
:101240000000C842987C0008B0B582B000AF78605A
:10125000104A7B6813600F4B1B681846FFF75AF95A
:1012600004460D460C4B1B681846FFF753F902461F
:101270000B4620462946FFF7F1FA02460B46104678
:101280001946FFF7D3FB0346044A136000BF083733
:10129000BD46B0BDCC01002050000020D001002090
:1012A00080B483B000AF78607B6807EE903AF8EEC8
:1012B000677A0D4BC3ED007A0C4B1B6807EE903A32
:1012C000B8EE677A084BD3ED007A67EE277AFCEE2A
:1012D000E77A17EE902A064B1A6000BF0C37BD461E
:1012E0005DF8047B704700BFD00100205000002053
:1012F000CC01002080B400AF054B00221A70054BD2
:1013000000221A6000BFBD465DF8047B704700BF35
:10131000E0000020DC00002080B500AF034B00227D
:101320001A70FFF7E7FF00BF80BD00BFEE0000208E
:1013300080B582B000AF04F077FB7860FFF76EFEF7
:101340000346FB70AE4B1B78032B5AD801A252F810
:1013500023F000BF651300087F130008AB130008DB
:10136000DB130008FB78FF2B44D0A64AFB781370F0
:10137000A54A7B681360A24B01221A703AE0A24B87
:101380001B687A68D31A312B36D99E4B1B78FA78B2
:101390009A4206D19A4B02221A709C4A7B681360CB
:1013A0002AE0974B00221A7026E0964B1B78FA78B9
:1013B0009A420AD1954B1B687A68D31AB3F5967F87
:1013C0001CD38F4B03221A7018E08E4B1A78904B67
:1013D0001A708B4B00221A7010E08A4B1B78FA7837
:1013E0009A420DD0874B1A78894B1A70844B002291
:1013F0001A7005E000BF04E000BF02E000BF00E09B
:1014000000BF834B1B78FF2B00F03583804B1B788C
:10141000243B302B00F2AB8201A252F823F000BF34
:10142000231900086F1900086F1900086F190008C8
:101430006F1900086F1900086F1900086F1900086C
:101440006F1900086F1900086F1900086F1900085C
:101450006F1900086F1900086F1900086F1900084C
:101460006F1900086F1900086F1900086F1900083C
:101470006F1900086F1900086F1900086F1900082C
:101480006F1900086F1900086F1900086F1900081C
:101490006F190008E514000811150008C9150008A7
:1014A0004D150008EF1500088D1500086F1900088C
:1014B0006F1900086F1900086F1900086F190008EC
:1014C000491900086F1900086F1900086F19000802
:1014D000F71800086F1900086F1900086F19000845
:1014E0000D1900084B4B1B78002B04D142F21070F1
:1014F000FFF7AAFEBFE2474B1B78102B05D1012056
:10150000FFF7CEFEFFF708FFB5E2FFF705FFB2E2F7
:10151000404B1B78002B04D143F69820FFF794FE34
:10152000A9E23C4B1B78102B05D10220FFF7B8FE37
:10153000FFF7F2FE9FE2374B1B78052B03D1354BAB
:1015400006221A7097E2FFF7E7FE94E2314B1B7810
:10155000002B04D144F62060FFF776FE8BE22D4B82
:101560001B78102B05D10520FFF79AFEFFF7D4FE5C
:1015700081E2284B1B780A2B05D1264B02221A70D8
:10158000FFF7B8FE77E2FFF7C7FE74E2214B1B7846
:10159000002B04D14CF25030FFF756FE6BE21D4B8E
:1015A0001B78102B05D10A20FFF77AFEFFF7B4FE57
:1015B00061E2184B1B780A2B03D1164B0E221A70CE
:1015C00059E2FFF7A9FE56E20023134A0721134808
:1015D00005F04AFE0023104A0721114805F044FE99
:1015E00001230D4A07210F4805F03EFE43E2094B57
:1015F0001B78002B18D1074B01221A703BE200BF69
:10160000ED00002001000020D4000020D8000020C0
:1016100000000020EE000020A47C0008280000202C
:101620002F000020360000209B4B1B78112B07D188
:101630009A4B1B681846FFF707FEFFF76DFE1AE28C
:10164000954B1B78102B07D1944B1B681846FFF75E
:1016500027FEFFF761FE0EE28F4B1B78082B0BD1A4
:101660008E4B1A688E4B1B689A4205D18A4B092211
:101670001A70FFF73FFE3DE1874B1B78092B6CD1B9
:10168000864B1B68874A1360874B1B78002B02D060
:10169000012B2DD059E0834B1A68844BA3FB021316
:1016A0001B09322101FB03F3D31A182B0FD87D4BF2
:1016B00019687C4B1A687D4BA3FB02031B0932207F
:1016C00000FB03F3D31ACB1A794A136042E0754B3F
:1016D0001968744B1A68754BA3FB02031B0932206F
:1016E00000FB03F3D31ACB1A3233714A136031E093
:1016F0006C4B1A686D4BA3FB02135B09642101FB61
:1017000003F3D31A312B0FD8664B1968654B1A684F
:10171000664BA3FB02035B09642000FB03F3D31AAF
:10172000CB1A634A136015E05E4B19685D4B1A686B
:101730005E4BA3FB02035B09642000FB03F3D31A97
:10174000CB1A64335A4A136004E0564B1B68584A5C
:10175000136000BFFFF7E0FD8DE14F4B1B78062BB8
:101760000BD14E4B1A684E4B1B689A4205D14A4B1F
:1017700007221A70FFF7BEFDBCE0474B1B78072B12
:1017800076D1464B1B68022B66D0022B6CD8002BFF
:1017900002D0012B30D067E0424B1A68434BA3FBC9
:1017A00002131B09322101FB03F3D31A182B0FD8A4
:1017B0003C4B19683B4B1A683C4BA3FB02031B09CB
:1017C000322000FB03F3D31ACB1A394A13600FE01F
:1017D000344B1968334B1A68344BA3FB02031B09C3
:1017E000322000FB03F3D31ACB1A3233304A136092
:1017F0002D4B00221A7038E02A4B1A682B4BA3FBA2
:1018000002135B09642101FB03F3D31A312B0FD8B8
:10181000244B1968234B1A68244BA3FB02035B0972
:10182000642000FB03F3D31ACB1A214A13600FE0A4
:101830001C4B19681B4B1A681C4BA3FB02035B096A
:10184000642000FB03F3D31ACB1A6433184A1360E5
:10185000154B01221A7008E0124B1B68144A1360E2
:10186000114B02221A7000E000BFFFF755FD02E1A4
:10187000094B1B780E2B1FD1084B1A68084B1B68AD
:101880009A4219D1044B0F221A70FFF733FD094B0E
:1018900000221A602EE000BFEE000020DC000020D5
:1018A000400000204C000020EC0000201F85EB5180
:1018B0005000002048000020724B1B78022B0BD1F7
:1018C000714B1A68714B1B689A4205D16D4B03220C
:1018D0001A70FFF70FFD0DE06A4B1B78032B06D142
:1018E000694B1B68694A1360FFF716FDC3E0FFF7F9
:1018F00013FDC0E0BFE0634B1B78002B03D1614BAD
:1019000005221A70B7E0FFF707FDB4E05D4B1B78C6
:10191000002B03D15B4B0A221A70ACE0FFF7FCFCF2
:10192000A9E0584B1B78002B03D1564B11221A709B
:10193000A1E0544B1B780A2B03D1524B0C221A7096
:1019400099E0FFF7E9FC96E04E4B1B78002B03D1A2
:101950004C4B10221A708EE04A4B1B780A2B03D195
:10196000484B0B221A7086E0FFF7D6FC83E0484B09
:101970001B782F2B7AD9464B1B78392B76D8414BC5
:101980001B78052B0CD13F4B08221A70404B1B785B
:10199000303B1A463C4B1A603E4B01221A7068E0FD
:1019A000384B1B78082B1FD0364B1B78062B1BD0CF
:1019B000344B1B78092B17D0324B1B780E2B13D0CE
:1019C000304B1B78022B0FD02E4B1B78032B0BD0E8
:1019D0002C4B1B78042B07D02A4B1B78112B03D0E0
:1019E000284B1B78102B17D12A4B1B78052B3CD882
:1019F000254B1A6813469B0013445B001A46244B80
:101A00001B781344303B204A1360224B1B78013370
:101A1000DAB2204B1A7028E01A4B1B78072B17D12B
:101A20001C4B1B78002B24D1174B1A6813469B00C4
:101A300013445B001A46164B1B781344303B124A82
:101A40001360144B1B780133DAB2124B1A7010E09A
:101A50000C4B04221A700E4B1B78303B1A460A4B73
:101A60001A600C4B01221A7003E002E0FFF754FCED
:101A700000E000BF00BF064BFF221A7000BF08370E
:101A8000BD4680BDEE000020DC00002040000020AC
:101A900000000020E000002090B58FB002AF9D4B09
:101AA0001B78112B00F2008301A252F823F000BF33
:101AB000F91A0008251B00084B1B0008891B0008A9
:101AC000491F0008C71B0008ED1B0008131C000875
:101AD000331C0008591C00087F1C0008FB1D00086F
:101AE000A51C0008DD1E0008031F0008291F0008B0
:101AF000BD1F0008891F00080023874A0721874867
:101B000005F0B2FB864B1B68864A0721864805F024
:101B1000ABFB864BD3ED007A8548B0EE670AFFF742
:101B200063FBD9E2834A07217C4805F09DFB824B89
:101B30001B687C4A07217C4805F096FB0023764A07
:101B400007217B4805F090FBC6E27C4B1B6807F140
:101B50002000744A072105F087FB07F12003784A2B
:101B600007216E4805F080FB764A07216E4805F094
:101B70007BFB0023684A07216D4805F075FB724B1B
:101B80004FF0FF321A60A7E26C4B1B6807F1200090
:101B9000644A072105F068FB07F12003684A072122
:101BA0005E4805F061FB00235B4A07215E4805F0B3
:101BB0005BFB664A07215E4805F056FB624B4FF01F
:101BC000FF321A6088E25D4B1B68564A0721534872
:101BD00005F04AFB0023504A0721534805F044FB17
:101BE0005B4A0721524805F03FFB75E2534B1B68E7
:101BF0004C4A0721494805F037FB0023464A072194
:101C0000494805F031FB534A0721494805F02CFBB0
:101C100062E2514A0721414805F026FB4F4A07215D
:101C2000414805F021FB4E4A0721414805F01CFBC5
:101C300052E2424B1B683B4A0721384805F014FB2F
:101C40000023354A0721384805F00EFB454A072195
:101C5000374805F009FB3FE2384B1B68314A072142
:101C60002E4805F001FB00232B4A07212E4805F0E2
:101C7000FBFA304A07212E4805F0F6FA2CE2002341
:101C8000254A0721254805F0EFFA0023224A0721BB
:101C9000254805F0E9FA344B1F4A0721244805F08E
:101CA000E3FA19E2314B1B68314A32491846FFF713
:101CB00063FA304B1B6807F118001A4A072105F038
:101CC000D3FA2C4B1A682C4BA3FB02135B0B42F28A
:101CD000107101FB03F3D31A07F11000274A082102
:101CE00005F0C2FA0023FB6252E007F11003184628
:101CF000FEF776FA0246FB6A9A4241D907F11002D2
:101D0000FB6A13441978054AFB6A13440A461A70A1
:101D10003BE000BFEE000020A47C0008280000206B
:101D2000CC010020AC7C00082F000020D001002056
:101D300036000020B47C000850000020DC000020A9
:101D4000BC7C0008C07C000854000020C87C00084F
:101D5000D07C0008D87C0008E07C0008E87C000803
:101D6000F07C0008F87C00083F420F00480000208B
:101D7000E8000020E40000205917B7D1007D0008DA
:101D8000AD4AFB6A134420221A70FB6A0133FB62DE
:101D9000FB6A052BA9DDA94B1B68A94A0721A948A5
:101DA00005F062FAA84B01221A60A84A0721A84848
:101DB00005F05AFAA74B1B68002B40F08881A64B10
:101DC0000093002301224FF49671A44804F0A0FA76
:101DD0000346A04A13609F4B1B68002B00F07781DD
:101DE0009C4B1C6803F020FE024600230093002356
:101DF0000121204604F0EAFA69E1994B1B688F4AF9
:101E000098491846FFF76AF9964B1B6807F10800D6
:101E10008B4A072105F028FA924B1A68924BA3FBD4
:101E200002135B0B42F2107101FB03F3D31A384625
:101E30008E4A082105F018FA0023BB6219E03B46E0
:101E40001846FEF7CDF90246BB6A9A4209D93A46CE
:101E5000BB6A13441978784ABB6A13440A461A705D
:101E600004E0754ABB6A134420221A70BB6A01332E
:101E7000BB62BB6A052BE2DD704B1B68704A072111
:101E8000704805F0F1F9704B01221A60784A072179
:101E90006F4805F0E9F96F4B1B68002B40F0198182
:101EA0006D4B0093002301224FF496716B4804F0B0
:101EB0002FFA0346674A1360664B1B68002B00F03D
:101EC0000881644B1C6803F0AFFD024600230093B9
:101ED00000230121204604F079FAFAE0654B664AB6
:101EE0000721554805F0C0F90023634A07215548EA
:101EF00005F0BAF90023604A0721604805F0B4F9FB
:101F0000EAE05F4B1B684E4A07214B4805F0ACF9ED
:101F10000023594A07214B4805F0A6F9594A0721E1
:101F2000564805F0A1F9D7E0574A0721424805F085
:101F30009BF9554A0721434805F096F9534A072172
:101F40004E4805F091F9C7E04D4B1B6807F12000A2
:101F50003B4A072105F088F907F120034C4A072185
:101F6000354805F081F90023434A0721354805F03B
:101F70007BF90023404A0721404805F075F9454B9D
:101F80004FF0FF321A60A7E03D4B1B6807F12000BD
:101F90002B4A072105F068F907F120033C4A072185
:101FA000254805F061F93C4A0721264805F05CF90F
:101FB0003A4A0721314805F057F98DE0304B1B684C
:101FC00007F120001E4A072105F04EF907F1200312
:101FD0002F4A0721184805F047F91B4B02221A60C7
:101FE0002D4A07212E4805F03FF92E4A07211848AF
:101FF00005F03AF9174B1B68002B6CD1164B009378
:10200000002301224FF49671144804F081F903462D
:10201000104A13600F4B1B68002B5CD00D4B1C68E3
:1020200003F002FD02460023009300230121204615
:1020300004F0CCF94FE000BF28000020E8000020A9
:10204000AC7C00082F000020040000200C7D00085C
:10205000F4000020F0000020BD0D0008147D0008F1
:1020600044000020E40000205917B7D1207D00086B
:10207000287D000815160500A47C00083600002005
:10208000DC000020307D0008947C0008387D0008CA
:10209000BC7C000854000020407D0008B47C00088F
:1020A000FC000020487D000800230D4A07210D4850
:1020B00005F0DAF800230A4A07210B4805F0D4F8A6
:1020C0000023074A0721094805F0CEF804E000BFC5
:1020D00002E000BF00E000BF00BF3437BD4690BD46
:1020E000A47C0008280000202F00002036000020DB
:1020F00080B483B000AF0346FB71FB792F2B07D967
:10210000FB79392B04D8FB79303B384AD35C66E045
:10211000FB794C2B02D1364B1B7860E0FB792E2BE0
:1021200002D1334B5B785AE0FB79542B02D1304B10
:102130009B7854E0FB794F2B02D12D4BDB784EE09E
:10214000FB79412B02D12A4B1B7948E0FB79532BB9
:1021500002D1274B5B7942E0FB79482B02D1244B1B
:102160009B793CE0FB79492B02D1214BDB7936E0AE
:10217000FB79462B02D11E4B1B7A30E0FB79472BB3
:1021800002D11B4B5B7A2AE0FB79502B02D1184B12
:102190009B7A24E0FB79432B02D1154BDB7A1EE0BE
:1021A000FB79452B02D1124B1B7B18E0FB79552B99
:1021B00002D10F4B5B7B12E0FB794E2B02D10C4B13
:1021C0009B7B0CE0FB79522B02D1094BDB7B06E0B9
:1021D000FB79442B02D1064B1B7C00E0FF23184601
:1021E0000C37BD465DF8047B704700BF0800002037
:1021F0001400002080B584B000AF78600B46FB70FF
:102200000023FB6035E0FA681346DB009B1A7A680E
:1022100013441846FDF7E4FF0346BB60FB78052B2B
:102220001FD8FB78BA689A4215DDFA681346DB00BE
:102230009B1A7A681A44BB68591EFB78CB1AD35C88
:102240001846FFF755FF034619460E4AFB6813442C
:102250000A461A700AE00B4AFB681344FF221A7000
:1022600004E0084AFB681344FF221A70FB6801333C
:10227000FB60FB68022BC6DD024B18461037BD46DB
:1022800080BD00BF1801002080B584B000AF786029
:102290000B46FB701346BB70FB7819467868FFF756
:1022A000A9FFB860FB78052B20D801A252F823F0D3
:1022B000C9220008CF220008D5220008DB2200082E
:1022C000E1220008E7220008FE23FB7311E0FD2352
:1022D000FB730EE0FB23FB730BE0F723FB7308E0BB
:1022E000EF23FB7305E0DF23FB7302E0FF23FB73A7
:1022F00000BF574B1B68002B72DB554B1B68052B2F
:102300006EDCFA78524B1B689A4236D1BA78514942
:1023100013469B0013440B44FF221A70BA78BB6823
:1023200098784C4913469B0013440B4401330246F2
:102330001A70BA78474913469B0013440B44023382
:10234000FA7B1A70BB6801331B78BA7803F07F03FD
:10235000D8B2404913469B0013440B440333024652
:102360001A70BA78BB6818783A4913469B00134430
:102370000B44043302461A7065E0BA7835491346B7
:102380009B0013440B44FF221A70BA78BB689878FC
:10239000304913469B0013440B44013302461A7024
:1023A000BA782C4913469B0013440B440233FA7B42
:1023B0001A70BA78BB685878264913469B001344B4
:1023C0000B44033302461A70BA78BB681878214967
:1023D00013469B0013440B44043302461A7032E048
:1023E000BA781C4913469B0013440B44FF221A7011
:1023F000BA78BB689878174913469B0013440B447E
:10240000013302461A70BA78124913469B001344EE
:102410000B440233FA7B1A70BA78BB6858780D49BE
:1024200013469B0013440B44033302461A70BA78D8
:10243000BB681878074913469B0013440B440433C8
:1024400002461A7000BF00BF1037BD4680BD00BFF6
:10245000540000200C01002080B582B000AF1D4B5D
:102460001B78DBB20133002B03F00103B8BF5B42E2
:10247000FB71194B1B78DBB2FA7919461748FFF745
:1024800003FF72B600BF134B1B78DBB21A4613462C
:102490009B001344124A13440521184600F024F807
:1024A0000C4AFB79137062B600BF0B4B1B78DBB292
:1024B0005A1C0C4B83FB0231D317C91A0B465B0025
:1024C0000B445B00D11ACAB2034B1A7000BF083725
:1024D000BD4680BD16010020080100202800002014
:1024E0000C010020ABAAAA2A80B584B000AF7860A6
:1024F000396000224FF48041234800F0ADFE0122F4
:102500008021224800F0A8FE0023FB6003E000BF0A
:10251000FB680133FB60FB68B3F57A7FF7DB00BF34
:102520001B4801F0F5FC0346012BF9D13B689AB238
:102530004FF0FF337968164801F0A7FB0346002BE4
:1025400001D000F0E5F90023BB6003E000BFBB68E9
:102550000133BB60BB68B3F57A7FF7DB00BF0C4883
:1025600001F0D6FC0346012BF9D101224FF4804142
:10257000054800F071FE00228021044800F06CFE46
:1025800000BF1037BD4680BD000402400008024075
:102590001C01002080B500AF00F09EFB00F028F881
:1025A00000F0FAF800F08CF800F0C0F802F052F8F1
:1025B000094A0021094802F097F80346084A1360C7
:1025C000084A0021084802F08FF80346074A1360C2
:1025D00002F064F800BFFDE78C7D00089D2800082C
:1025E000D4010020B07D0008D9280008D8010020BF
:1025F00080B594B000AF07F12003302200211846C7
:1026000004F066FE07F10C0300221A605A609A601B
:10261000DA601A610023BB60274B1B6C264A43F02B
:1026200080531364244B1B6C03F08053BB60BB6866
:1026300000237B60214B1B68204A43F44043136016
:102640001E4B1B6803F440437B607B6802233B62A4
:102650000123FB6210233B630223BB630023FB6364
:1026600008233B6464237B640223BB640423FB6470
:1026700007F12003184600F009FE0346002B01D0A5
:1026800000F046F90F23FB6002233B6100237B61CE
:102690004FF48053BB610023FB6107F10C0303215E
:1026A000184601F06BF80346002B01D000F030F91A
:1026B00000BF5037BD4680BD00380240007000406A
:1026C00080B500AF174B184A1A60164B4FF4827250
:1026D0005A60144B00229A60124B0022DA60114BB0
:1026E00000221A610F4B00225A610E4B4FF4007208
:1026F0009A610C4B2022DA610A4B00221A62094BC4
:1027000000225A62074B00229A62064B0A22DA62C2
:10271000044801F031FA0346002B01D000F0F8F82C
:1027200000BF80BD1C0100200030014080B500AF1B
:10273000174B184A1A60164B4FF482725A60144BAA
:1027400000229A60124B0022DA60114B00221A61BB
:102750000F4B00225A610E4B4FF400729A610C4BE2
:102760000022DA610A4B00221A62094B00225A62E7
:10277000074B00229A62064B0A22DA62044801F0F3
:10278000FBF90346002B01D000F0C2F800BF80BD6A
:10279000740100200038004080B58AB000AF07F116
:1027A000140300221A605A609A60DA601A610023EA
:1027B0003B61374B1B6B364A43F080031363344B4A
:1027C0001B6B03F080033B613B690023FB60304BD4
:1027D0001B6B2F4A43F0040313632D4B1B6B03F059
:1027E0000403FB60FB680023BB60294B1B6B284A7A
:1027F00043F001031363264B1B6B03F00103BB6023
:10280000BB6800237B60224B1B6B214A43F0020311
:1028100013631F4B1B6B03F002037B607B6800227A
:1028200044F2C0311B4800F017FD002280211A48F5
:1028300000F012FD1F237B610023BB610123FB61BC
:1028400007F114031946134800F06AFB44F2C03341
:102850007B610123BB610023FB6100233B6207F125
:10286000140319460B4800F05BFB80237B610123B6
:10287000BB610023FB6100233B6207F1140319468F
:10288000054800F04DFB00BF2837BD4680BD00BFA6
:1028900000380240000402400008024080B584B0C5
:1028A00000AF78600B4A07F1080392E80300186054
:1028B00004331970FFF7D0FD012001F0A7FF07F1E5
:1028C000080305211846FFF70FFE012001F09EFFC7
:1028D00000BFEFE76C7D000880B582B000AF786084
:1028E000FEF726FDFFF7D8F8012001F08FFF00BFAB
:1028F000F6E780B582B000AF78607B681B68B3F103
:10290000804F01D100F00AFA00BF0837BD4680BDF4
:1029100080B400AF72B600BF00BFFDE780B582B0E3
:1029200000AF00237B60124B5B6C114A43F4804381
:1029300053640F4B5B6C03F480437B607B68002324
:102940003B600B4B1B6C0A4A43F080531364084BEB
:102950001B6C03F080533B603B6800220F216FF03B
:10296000010000F0B3FA00BF0837BD4680BD00BFCC
:102970000038024080B58CB000AF786007F11C03CE
:1029800000221A605A609A60DA601A617B681B68DC
:10299000414A93422CD10023BB61404B5B6C3F4AC0
:1029A00043F4805353643D4B5B6C03F48053BB6131
:1029B000BB6900237B61394B1B6B384A43F0010331
:1029C0001363364B1B6B03F001037B617B69A02310
:1029D000FB6102233B6200237B620323BB6205236E
:1029E000FB6207F11C0319462D4800F099FA4FE0ED
:1029F0007B681B682B4A93424AD100233B61274BDB
:102A00001B6C264A43F480431364244B1B6C03F471
:102A100080433B613B690023FB60204B1B6B1F4ADB
:102A200043F0040313631D4B1B6B03F00403FB60B3
:102A3000FB680023BB60194B1B6B184A43F0020371
:102A40001363164B1B6B03F00203BB60BB680823C8
:102A5000FB6102233B6200237B620323BB620523ED
:102A6000FB6207F11C0319460F4800F059FA4FF4B6
:102A70008063FB6102233B6200237B620323BB6212
:102A80000523FB6207F11C031946084800F048FAC9
:102A900000BF3037BD4680BD0030014000380240E5
:102AA00000000240003800400008024000040240DC
:102AB00080B58EB000AF78600023FB620023BB625C
:102AC0000023FB60344B1B6C334A43F00103136457
:102AD000314B1B6C03F00103FB60FB6807F1100234
:102AE00007F114031146184601F014F83B6AFB6223
:102AF000FB6A002B03D100F0F9FF786304E000F0DB
:102B0000F5FF03465B007B637B6B244AA2FB032338
:102B10009B0C013BBB62224B4FF080421A60204B62
:102B200040F2E732DA601E4ABB6A53601C4B002257
:102B30001A611B4B00229A60194B00229A611848B7
:102B400001F0D0FA034687F8333097F83330002B82
:102B50001BD1134801F020FB034687F8333097F868
:102B60003330002B11D11C2000F0CCF97B680F2BE7
:102B700008D8002279681C2000F0A8F9094A7B686F
:102B8000136002E0012387F8333097F8333018469A
:102B90003837BD4680BD00BF0038024083DE1B438E
:102BA000DC0100205C00002080B400AF00BFFDE726
:102BB00080B400AF00BFFDE780B400AF00BFFDE709
:102BC00080B400AF00BFFDE780B400AF00BFFDE7F9
:102BD00080B400AF00BFBD465DF8047B70470000C5
:102BE00080B500AF024801F039FB00BF80BD00BFD7
:102BF000DC01002080B586B000AF7860144A154B28
:102C0000D31A7B617B693B61134B1B68002B02D19C
:102C1000114B124A1A60104B1A687B6813443A69C8
:102C20009A4207D204F0B2FB03460C221A604FF01E
:102C3000FF3309E0084B1B68FB60074B1A687B6891
:102C40001344054A1360FB6818461837BD4680BD1B
:102C5000000002200004000024020020604D00203B
:102C600080B400AF064BD3F88830054A43F47003B4
:102C7000C2F8883000BFBD465DF8047B704700BFD6
:102C800000ED00E0DFF834D0FFF7EAFF0C480D4913
:102C90000D4A002302E0D458C4500433C4188C42B7
:102CA000F9D30A4A0A4C002301E013600432A2421D
:102CB000FBD304F071FBFFF76DFC704700000220AE
:102CC00000000020B8000020307E0008B80000207E
:102CD0005C4D0020FEE7000080B500AF0E4B1B6886
:102CE0000D4A43F4007313600B4B1B680A4A43F40C
:102CF00080631360084B1B68074A43F480731360BA
:102D0000032000F0D8F80F20FFF7D2FEFFF706FEF1
:102D10000023184680BD00BF003C024080B400AFD5
:102D2000064B1B781A46064B1B681344044A136073
:102D300000BFBD465DF8047B704700BF6000002007
:102D40002802002080B400AF034B1B681846BD4624
:102D50005DF8047B704700BF2802002080B485B076
:102D600000AF78607B6803F00703FB600C4BDB6807
:102D7000BB60BA684FF6FF031340BB60FB681A02E2
:102D8000BB68134343F0BF6343F40033BB60044AA2
:102D9000BB68D36000BF1437BD465DF8047B704745
:102DA00000ED00E080B400AF044BDB681B0A03F0C9
:102DB00007031846BD465DF8047B704700ED00E050
:102DC00080B483B000AF0346FB7197F90730002B46
:102DD0000BDBFB7903F01F02074997F907305B090A
:102DE000012000FA02F241F8232000BF0C37BD4653
:102DF0005DF8047B704700BF00E100E080B483B061
:102E000000AF03463960FB7197F90730002B0ADBEE
:102E10003B68DAB20C4997F907301201D2B20B4481
:102E200083F800230AE03B68DAB20849FB7903F033
:102E30000F03043B1201D2B20B441A7600BF0C37C9
:102E4000BD465DF8047B704700E100E000ED00E066
:102E500080B489B000AFF860B9607A60FB6803F0B5
:102E60000703FB61FB69C3F10703042B28BF04239D
:102E7000BB61FB690433062B02D9FB69033B00E00D
:102E800000237B614FF0FF32BB6902FA03F3DA43A0
:102E9000BB681A407B699A404FF0FF317B6901FAA9
:102EA00003F3D9437B680B40134318462437BD46D0
:102EB0005DF8047B704780B582B000AF78607868B9
:102EC000FFF74CFF00BF0837BD4680BD80B586B018
:102ED00000AF0346B9607A60FB7300237B61FFF7A4
:102EE00061FF78617A68B9687869FFF7B1FF0246D7
:102EF00097F90F3011461846FFF780FF00BF1837CB
:102F0000BD4680BD80B582B000AF0346FB7197F926
:102F100007301846FFF754FF00BF0837BD4680BD95
:102F200080B489B000AF7860396000237B610023F2
:102F30003B610023BB610023FB6159E10122FB6976
:102F400002FA03F37B613B681B687A6913403B61BB
:102F50003A697B699A4240F048813B685B6803F0BC
:102F60000303012B05D03B685B6803F00303022BCE
:102F700030D17B689B68BB61FB695B00032202FA6E
:102F800003F3DB43BA691340BB613B68DA68FB6952
:102F90005B0002FA03F3BA691343BB617B68BA6949
:102FA0009A607B685B68BB610122FB6902FA03F3EC
:102FB000DB43BA691340BB613B685B681B0903F0E4
:102FC0000102FB6902FA03F3BA691343BB617B6830
:102FD000BA695A603B685B6803F00303032B17D0A0
:102FE0007B68DB68BB61FB695B00032202FA03F3C9
:102FF000DB43BA691340BB613B689A68FB695B00BD
:1030000002FA03F3BA691343BB617B68BA69DA60F9
:103010003B685B6803F00303022B23D1FB69DA08EA
:103020007B68083253F82230BB61FB6903F0070369
:103030009B000F2202FA03F3DB43BA691340BB6122
:103040003B681A69FB6903F007039B0002FA03F36C
:10305000BA691343BB61FB69DA087B680832B96956
:1030600043F822107B681B68BB61FB695B0003228D
:1030700002FA03F3DB43BA691340BB613B685B6848
:1030800003F00302FB695B0002FA03F3BA6913431E
:10309000BB617B68BA691A603B685B6803F44033C4
:1030A000002B00F0A2800023FB60574B5B6C564A5C
:1030B00043F480435364544B5B6C03F48043FB60E4
:1030C000FB68524AFB699B08023352F82330BB610C
:1030D000FB6903F003039B000F2202FA03F3DB43B7
:1030E000BA691340BB617B68494A934219D07B6837
:1030F000484A934213D07B68474A93420DD07B687D
:10310000464A934207D07B68454A934201D1042343
:1031100008E0072306E0032304E0022302E0012382
:1031200000E00023FA6902F0030292009340BA69BA
:103130001343BB613549FB699B080233BA6941F807
:103140002320384B9B68BB613B69DB43BA69134062
:10315000BB613B685B6803F48013002B03D0BA6942
:103160003B691343BB612F4ABB6993602D4BDB68FE
:10317000BB613B69DB43BA691340BB613B685B6879
:1031800003F40013002B03D0BA693B691343BB61FE
:10319000244ABB69D360234B5B68BB613B69DB435B
:1031A000BA691340BB613B685B6803F40033002BD2
:1031B00003D0BA693B691343BB611A4ABB695360C8
:1031C000184B1B68BB613B69DB43BA691340BB61A9
:1031D0003B685B6803F48033002B03D0BA693B691A
:1031E0001343BB610F4ABB691360FB690133FB6189
:1031F000FB690F2B7FF6A2AE00BF00BF2437BD4690
:103200005DF8047B704700BF003802400038014081
:10321000000002400004024000080240000C02408E
:1032200000100240003C014080B485B000AF7860DF
:103230000B467B807B681A697B881340002B02D089
:103240000123FB7301E00023FB73FB7B184614375B
:10325000BD465DF8047B704780B483B000AF7860F2
:103260000B467B8013467B707B78002B03D07A88DB
:103270007B689A6103E07B881A047B689A6100BFCF
:103280000C37BD465DF8047B7047000080B586B002
:1032900000AF78607B68002B01D1012367E27B6877
:1032A0001B6803F00103002B75D0884B9B6803F06B
:1032B0000C03042B0CD0854B9B6803F00C03082BEC
:1032C00012D1824B5B6803F48003B3F5800F0BD1FE
:1032D0007E4B1B6803F40033002B5BD07B685B687C
:1032E000002B57D1012342E27B685B68B3F5803F36
:1032F00006D1764B1B68754A43F4803313601DE09A
:103300007B685B68B3F5A02F0CD1704B1B686F4ACC
:1033100043F4802313606D4B1B686C4A43F4803385
:1033200013600BE0694B1B68684A23F48033136019
:10333000664B1B68654A23F4802313607B685B68D7
:10334000002B13D0FFF7FEFC386108E0FFF7FAFC12
:1033500002463B69D31A642B01D9032307E25B4B76
:103360001B6803F40033002BF0D014E0FFF7EAFCF5
:10337000386108E0FFF7E6FC02463B69D31A642B8C
:1033800001D90323F3E1514B1B6803F40033002BF5
:10339000F0D100E000BF7B681B6803F00203002B44
:1033A00063D04A4B9B6803F00C03002B0BD0474BB8
:1033B0009B6803F00C03082B1CD1444B5B6803F49F
:1033C0008003002B16D1414B1B6803F00203002B36
:1033D00005D07B68DB68012B01D00123C7E13B4BA3
:1033E0001B6823F0F8027B681B69DB003749134335
:1033F0000B603AE07B68DB68002B20D0344B012265
:103400001A60FFF79FFC386108E0FFF79BFC02465B
:103410003B69D31A022B01D90323A8E12B4B1B686C
:1034200003F00203002BF0D0284B1B6823F0F802B6
:103430007B681B69DB00254913430B6015E0244BB7
:1034400000221A60FFF77EFC386108E0FFF77AFC83
:1034500002463B69D31A022B01D9032387E11B4B98
:103460001B6803F00203002BF0D17B681B6803F09C
:103470000803002B36D07B685B69002B16D0154BF8
:1034800001221A60FFF75EFC386108E0FFF75AFC82
:1034900002463B69D31A022B01D9032367E10B4B88
:1034A0005B6F03F00203002BF0D01BE0094B0022FE
:1034B0001A60FFF747FC38610EE0FFF743FC024655
:1034C0003B69D31A022B07D9032350E1003802408D
:1034D00000004742800E4742884B5B6F03F00203B7
:1034E000002BEAD17B681B6803F00403002B00F07B
:1034F00097800023FB75814B1B6C03F08053002BDE
:103500000FD10023BB607D4B1B6C7C4A43F0805382
:1035100013647A4B1B6C03F08053BB60BB680123C0
:10352000FB75774B1B6803F48073002B18D1744B29
:103530001B68734A43F480731360FFF703FC386120
:1035400008E0FFF7FFFB02463B69D31A022B01D9C3
:1035500003230CE16A4B1B6803F48073002BF0D04B
:103560007B689B68012B06D1644B1B6F634A43F059
:10357000010313671CE07B689B68052B0CD15F4B34
:103580001B6F5E4A43F0040313675C4B1B6F5B4A7F
:1035900043F0010313670BE0584B1B6F574A23F0AE
:1035A00001031367554B1B6F544A23F00403136741
:1035B0007B689B68002B15D0FFF7C4FB38610AE0DD
:1035C000FFF7C0FB02463B69D31A41F288329342AF
:1035D00001D90323CBE0494B1B6F03F00203002BFF
:1035E000EED014E0FFF7AEFB38610AE0FFF7AAFB6C
:1035F00002463B69D31A41F28832934201D9032330
:10360000B5E03E4B1B6F03F00203002BEED1FB7DB8
:10361000012B05D1394B1B6C384A23F080531364BE
:103620007B689B69002B00F0A180344B9B6803F002
:103630000C03082B5CD07B689B69022B41D1314B7A
:1036400000221A60FFF77EFB386108E0FFF77AFB83
:1036500002463B69D31A022B01D9032387E0274B8B
:103660001B6803F00073002BF0D17B68DA697B687C
:103670001B6A1A437B685B6A9B011A437B689B6ADF
:103680005B08013B1B041A437B68DB6A1B061B4972
:1036900013434B601B4B01221A60FFF753FB386149
:1036A00008E0FFF74FFB02463B69D31A022B01D912
:1036B00003235CE0114B1B6803F00073002BF0D078
:1036C00054E0104B00221A60FFF73CFB386108E021
:1036D000FFF738FB02463B69D31A022B01D90323BB
:1036E00045E0064B1B6803F00073002BF0D13DE072
:1036F0007B689B69012B07D1012338E00038024029
:1037000000700040600047421B4B5B68FB607B68B9
:103710009B69012B28D0FB6803F480027B68DB697E
:103720009A4221D1FB6803F03F027B681B6A9A42F0
:103730001AD1FA6847F6C07313407A68526A920148
:10374000934211D1FB6803F440327B689B6A5B08AB
:10375000013B1B049A4207D1FB6803F070627B684F
:10376000DB6A1B069A4201D0012300E000231846C1
:103770001837BD4680BD00BF0038024080B584B018
:1037800000AF786039607B68002B01D10123CCE069
:10379000684B1B6803F007033A689A420CD9654BE3
:1037A0003A68D2B21A70634B1B6803F007033A6899
:1037B0009A4201D00123B8E07B681B6803F0020342
:1037C000002B20D07B681B6803F00403002B05D07E
:1037D000594B9B68584A43F4E05393607B681B68DD
:1037E00003F00803002B05D0534B9B68524A43F467
:1037F00060439360504B9B6823F0F0027B689B68AA
:103800004D4913438B607B681B6803F00103002B59
:1038100044D07B685B68012B07D1474B1B6803F4DE
:103820000033002B19D101237FE07B685B68022BFA
:1038300003D07B685B68032B07D13F4B1B6803F009
:103840000073002B09D101236FE03B4B1B6803F091
:103850000203002B01D1012367E0374B9B6823F063
:1038600003027B685B68344913438B60FFF76AFA95
:10387000F8600AE0FFF766FA0246FB68D31A41F2E5
:103880008832934201D903234FE02B4B9B6803F00E
:103890000C027B685B689B009A42EBD1254B1B684E
:1038A00003F007033A689A420CD2224B3A68D2B22C
:1038B0001A70204B1B6803F007033A689A4201D044
:1038C000012332E07B681B6803F00403002B08D05F
:1038D000194B9B6823F4E0527B68DB68164913435D
:1038E0008B607B681B6803F00803002B09D0124B28
:1038F0009B6823F460427B681B69DB000E4913431D
:103900008B6000F021F802460B4B9B681B0903F00B
:103910000F030A49CB5C22FA03F3094A1360094BEF
:103920001B681846FFF7C4F8002318461037BD4639
:1039300080BD00BF003C024000380240D47D00083A
:10394000580000205C0000202DE9B04F90B000AF7F
:1039500000237B630023FB6300233B630023BB63E3
:10396000594B9B6803F00C03082B0DD0082B00F279
:10397000A180002B02D0042B03D09BE0534BBB63F0
:103980009BE0534BBB6398E04F4B5B6803F03F03F6
:103990007B634D4B5B6803F48003002B28D04A4BBC
:1039A0005B689B0900223B627A623B6AC3F30800B2
:1039B0000021474B03FB01F2002300FB03F31344F8
:1039C000434AA0FB0212FA620A46BA62FA6A134438
:1039D000FB627B6B0022BB61FA61D7E90623D7E962
:1039E0000A01FDF773F802460B461346FB6353E0EA
:1039F000354B5B689B0900223B617A613B69C3F3ED
:103A0000080A4FF0000B52465B464FF000004FF0A3
:103A10000001590141EAD261500102460B46B2EB66
:103A20000A0863EB0B094FF000024FF000034FEA66
:103A3000891343EA98634FEA8812B2EB080463EBF8
:103A400009054FF000024FF00003EB0043EA547306
:103A5000E20014461D4614EB0A033B6045EB0B03E2
:103A60007B604FF000024FF00003D7E90045294684
:103A70008B02214643EA915321468A021046194699
:103A80007B6B0022BB60FA60D7E90223FDF71EF8CA
:103A900002460B461346FB630B4B5B681B0C03F0A3
:103AA000030301335B003B63FA6B3B6BB2FBF3F345
:103AB000BB6302E0054BBB6300BFBB6B18464037DE
:103AC000BD46BDE8B08F00BF003802400024F400BE
:103AD00040787D0180B400AF034B1B681846BD469B
:103AE0005DF8047B704700BF5800002080B500AF30
:103AF000FFF7F0FF0246054B9B689B0A03F00703A4
:103B00000349CB5C22FA03F3184680BD003802401B
:103B1000E47D000880B483B000AF786039607B68D2
:103B20000F221A60124B9B6803F003027B685A60F5
:103B30000F4B9B6803F0F0027B689A600C4B9B680C
:103B400003F4E0527B68DA60094B9B68DB0803F4FE
:103B5000E0527B681A61074B1B6803F007023B6861
:103B60001A6000BF0C37BD465DF8047B704700BF8C
:103B700000380240003C024080B582B000AF78605F
:103B80007B68002B01D101237BE07B685B6A002B03
:103B900008D17B685B68B3F5827F09D07B6800221F
:103BA000DA6105E07B6800221A617B6800225A61B5
:103BB0007B6800229A627B6893F85130DBB2002B5D
:103BC00006D17B68002283F850207868FEF7D2FE89
:103BD0007B68022283F851207B681B681A687B6827
:103BE0001B6822F040021A607B685B6803F48272F3
:103BF0007B689B6803F404431A437B68DB6803F427
:103C000000631A437B681B6903F002031A437B6855
:103C10005B6903F001031A437B689B6903F400733B
:103C20001A437B68DB6903F038031A437B681B6A1D
:103C300003F0800342EA03017B689B6A03F40052AD
:103C40007B681B680A431A607B689B691B0C03F046
:103C500004017B685B6A03F010027B681B680A43FF
:103C60005A607B681B68DA697B681B6822F4006213
:103C7000DA617B6800225A657B68012283F8512053
:103C8000002318460837BD4680BD80B588B000AF18
:103C9000F860B9603B601346FB800023FB77FB684C
:103CA00093F85030012B01D102232DE1FB68012252
:103CB00083F85020FFF746F8B861FB88FB82FB6869
:103CC00093F85130DBB2012B02D00223FB7716E1CF
:103CD000BB68002B02D0FB88002B02D10123FB77AD
:103CE0000DE1FB68032283F85120FB6800225A652E
:103CF000FB68BA681A63FB68FA889A86FB68FA88D8
:103D0000DA86FB6800229A63FB6800229A87FB68C8
:103D10000022DA87FB6800225A64FB6800221A64DA
:103D2000FB689B68B3F5004F0FD1FB681B681A68EE
:103D3000FB681B6822F040021A60FB681B681A6867
:103D4000FB681B6842F480421A60FB681B681B68B2
:103D500003F04003402B07D0FB681B681A68FB6820
:103D60001B6842F040021A60FB68DB68B3F5006F25
:103D70004FD1FB685B68002B02D0FB8A012B42D13C
:103D8000FB681B6B1A88FB681B68DA60FB681B6B9F
:103D90009A1CFB681A63FB68DB8E9BB2013B9AB2EC
:103DA000FB68DA862FE0FB681B689B6803F0020360
:103DB000022B12D1FB681B6B1A88FB681B68DA6048
:103DC000FB681B6B9A1CFB681A63FB68DB8E9BB25B
:103DD000013B9AB2FB68DA8615E0FEF7B3FF0246B4
:103DE000BB69D31A3A689A4203D83B68B3F1FF3FE4
:103DF00002D13B68002B06D10323FB77FB6801222D
:103E000083F851207BE0FB68DB8E9BB2002BCAD18C
:103E100050E0FB685B68002B02D0FB8A012B44D189
:103E2000FB681A6BFB681B680C3312781A70FB680E
:103E30001B6B5A1CFB681A63FB68DB8E9BB2013B51
:103E40009AB2FB68DA8630E0FB681B689B6803F077
:103E50000203022B13D1FB681A6BFB681B680C333F
:103E600012781A70FB681B6B5A1CFB681A63FB689C
:103E7000DB8E9BB2013B9AB2FB68DA8615E0FEF757
:103E800061FF0246BB69D31A3A689A4203D83B687D
:103E9000B3F1FF3F02D13B68002B06D10323FB7730
:103EA000FB68012283F8512029E0FB68DB8E9BB27E
:103EB000002BC9D1BA693968F86800F0BFF8034629
:103EC000002B02D0FB6820225A65FB689B68002B00
:103ED0000AD100233B61FB681B68DB683B61FB6820
:103EE0001B689B683B613B69FB685B6D002B02D0E4
:103EF0000123FB7703E0FB68012283F85120FB6874
:103F0000002283F85020FB7F18462037BD4680BD35
:103F100080B483B000AF78607B6893F85130DBB237
:103F200018460C37BD465DF8047B704780B588B0F5
:103F300000AFF860B9603B601346FB71FEF702FF0B
:103F40000246BB6A9B1A3A681344FB61FEF7FAFE0D
:103F5000B861394B1B685B011B0DFA6902FB03F367
:103F60007B6154E03B68B3F1FF3F50D0FEF7EAFEBF
:103F70000246BB69D31AFA699A4202D9FB69002B3F
:103F80003DD1FB681B685A68FB681B6822F0E002A1
:103F90005A60FB685B68B3F5827F11D1FB689B6850
:103FA000B3F5004F04D0FB689B68B3F5806F07D171
:103FB000FB681B681A68FB681B6822F040021A60E5
:103FC000FB689B6AB3F5005F0FD1FB681B681A683A
:103FD000FB681B6822F400521A60FB681B681A68B1
:103FE000FB681B6842F400521A60FB68012283F8E8
:103FF0005120FB68002283F85020032317E07B69DF
:10400000002B01D10023FB617B69013B7B61FB68D5
:104010001B689A68BB681340BA689A420CBF0123B8
:104020000023DBB21A46FB799A429BD10023184643
:104030002037BD4680BD00BF5800002080B588B045
:1040400002AFF860B9607A607B680093BB680122B8
:104050000221F868FFF76AFF0346002B07D0FB68D0
:104060005B6D43F02002FB685A65032332E01B4B73
:104070001B681B4AA2FB03235B0D4FF47A7202FB01
:1040800003F37B61FB685B68B3F5827F12D17B68C9
:104090000093BB6800228021F868FFF747FF0346C2
:1040A000002B16D0FB685B6D43F02002FB685A655D
:1040B00003230FE07B69002B0AD07B69013B7B6106
:1040C000FB681B689B6803F08003802BF2D000E044
:1040D00000BF002318461837BD4680BD5800002099
:1040E000819F5E1680B582B000AF78607B68002B40
:1040F00001D1012341E07B6893F83D30DBB2002B16
:1041000006D17B68002283F83C20786800F039F8FB
:104110007B68022283F83D207B681A687B68043341
:104120001946104600F0B2F97B68012283F8462058
:104130007B68012283F83E207B68012283F83F20C0
:104140007B68012283F840207B68012283F84120AC
:104150007B68012283F842207B68012283F8432098
:104160007B68012283F844207B68012283F8452084
:104170007B68012283F83D20002318460837BD469E
:1041800080BD80B483B000AF786000BF0C37BD46FF
:104190005DF8047B7047000080B485B000AF7860A4
:1041A0007B6893F83D30DBB2012B01D0012344E062
:1041B0007B68022283F83D207B681B68DA687B6895
:1041C0001B6842F00102DA607B681B681E4A93425A
:1041D00018D07B681B68B3F1804F13D07B681B68D5
:1041E0001A4A93420ED07B681B68194A934209D041
:1041F0007B681B68174A934204D07B681B68164A89
:10420000934211D17B681B689B6803F00703FB6036
:10421000FB68062B10D07B681B681A687B681B68DC
:1042200042F001021A6007E07B681B681A687B682D
:104230001B6842F001021A60002318461437BD467D
:104240005DF8047B704700BF00000140000400409F
:1042500000080040000C00400040014080B584B0E0
:1042600000AF78607B681B68DB68FB607B681B685D
:104270001B69BB60BB6803F00203002B20D0FB6806
:1042800003F00203002B1BD07B681B686FF0020257
:104290001A617B6801221A777B681B689B6903F0AF
:1042A0000303002B03D0786800F0D2F805E07868AB
:1042B00000F0C4F8786800F0D5F87B6800221A771F
:1042C000BB6803F00403002B20D0FB6803F0040359
:1042D000002B1BD07B681B686FF004021A617B689F
:1042E00002221A777B681B689B6903F44073002BDA
:1042F00003D0786800F0ACF805E0786800F09EF82C
:10430000786800F0AFF87B6800221A77BB6803F08A
:104310000803002B20D0FB6803F00803002B1BD000
:104320007B681B686FF008021A617B6804221A77A9
:104330007B681B68DB6903F00303002B03D07868FC
:1043400000F086F805E0786800F078F8786800F00A
:1043500089F87B6800221A77BB6803F01003002BF2
:1043600020D0FB6803F01003002B1BD07B681B6878
:104370006FF010021A617B6808221A777B681B684D
:10438000DB6903F44073002B03D0786800F060F819
:1043900005E0786800F052F8786800F063F87B6810
:1043A00000221A77BB6803F00103002B0CD0FB68D6
:1043B00003F00103002B07D07B681B686FF001023C
:1043C0001A617868FEF795FABB6803F08003002B4A
:1043D0000CD0FB6803F08003002B07D07B681B68C0
:1043E0006FF080021A61786800F0E6F8BB6803F0AD
:1043F0004003002B0CD0FB6803F04003002B07D0D8
:104400007B681B686FF040021A61786800F034F82E
:10441000BB6803F02003002B0CD0FB6803F02003E3
:10442000002B07D07B681B686FF020021A61786848
:1044300000F0B8F800BF1037BD4680BD80B483B02F
:1044400000AF786000BF0C37BD465DF8047B704755
:1044500080B483B000AF786000BF0C37BD465DF814
:10446000047B704780B483B000AF786000BF0C3726
:10447000BD465DF8047B704780B483B000AF7860C0
:1044800000BF0C37BD465DF8047B704780B485B033
:1044900000AF786039607B681B68FB607B683A4AD4
:1044A00093420FD07B68B3F1804F0BD07B68374AC3
:1044B000934207D07B68364A934203D07B68354AE3
:1044C000934208D1FB6823F07003FB603B685B6894
:1044D000FA681343FB607B682B4A93421BD07B68CE
:1044E000B3F1804F17D07B68284A934213D07B6882
:1044F000274A93420FD07B68264A93420BD07B68B1
:10450000254A934207D07B68244A934203D07B68B4
:10451000234A934208D1FB6823F44073FB603B6855
:10452000DB68FA681343FB60FB6823F080023B689A
:104530005B691343FB607B68FA681A603B689A68A2
:104540007B68DA623B681A687B689A627B680E4A0D
:10455000934203D13B681A697B681A637B68012226
:104560005A617B681B6903F00103012B05D17B684D
:104570001B6923F001027B681A6100BF1437BD4636
:104580005DF8047B704700BF00000140000400405C
:1045900000080040000C0040004001400044014081
:1045A0000048014080B483B000AF786000BF0C3792
:1045B000BD465DF8047B704780B483B000AF78607F
:1045C00000BF0C37BD465DF8047B704780B483B0F4
:1045D00000AF03463960FB7197F90730002B0ADB07
:1045E0003B68DAB20C4997F907301201D2B20B449A
:1045F00083F800230AE03B68DAB20849FB7903F04C
:104600000F03043B1201D2B20B441A7600BF0C37E1
:10461000BD465DF8047B704700E100E000ED00E07E
:1046200080B500AF054B1B6801F046FD0346012B2A
:1046300001D002F099FB00BF80BD00BF10E000E098
:1046400080B500AF00216FF00400FFF7BFFF00BF8F
:1046500080BD000080B483B000AFEFF305833B6002
:104660003B68002B03D06FF005037B600CE00A4B26
:104670001B68002B05D1084B01221A6000237B60C8
:1046800002E04FF0FF337B607B6818460C37BD4675
:104690005DF8047B704700BF2C02002080B582B01B
:1046A00000AFEFF305833B603B68002B03D06FF056
:1046B00005037B6010E00B4B1B68012B09D1FFF752
:1046C000BFFF084B02221A6001F092F800237B60C2
:1046D00002E04FF0FF337B607B6818460837BD4629
:1046E00080BD00BF2C02002080B58EB004AFF86002
:1046F000B9607A6000233B61EFF305837B617B69DE
:10470000002B7ED1FB68002B7BD080233B621823DB
:10471000FB6100237B624FF0FF33BB617B68002BA2
:1047200045D07B681B68002B02D07B681B687B62CE
:104730007B689B69002B02D07B689B69FB61FB69EE
:10474000002B08D0FB69382B05D87B685B6803F029
:104750000103002B01D0002354E07B685B69002B30
:1047600003D07B685B699B083B627B689B68002B7E
:104770000ED07B68DB68A72B0AD97B681B69002BEE
:1047800006D07B685B69002B02D00123BB6110E07F
:104790007B689B68002B0CD17B68DB68002B08D101
:1047A0007B681B69002B04D10023BB6101E000235F
:1047B000BB61BB69012B10D17B681B697A68926869
:1047C00002920193FB690093BB683A6A796AF868C0
:1047D00000F01AFE03463B6113E0BB69002B10D1C9
:1047E0003B6A9AB207F110030193FB690093BB681F
:1047F000796AF86800F068FE0346012B01D00023B7
:104800003B613B6918462837BD4680BD80B584B002
:1048100000AF7860EFF30583BB60BB68002B03D06B
:104820006FF00503FB6007E00023FB607B68002B53
:1048300002D0786800F0A6FFFB6818461037BD4626
:1048400080BD000080B485B000AFF860B9607A60C8
:10485000FB68074A1A60BB68064A1A607B688022B8
:104860001A6000BF1437BD465DF8047B704700BF77
:1048700030020020D802002080B485B000AFF8607C
:10488000B9607A60FB68074A1A60BB68064A1A601A
:104890007B684FF480721A6000BF1437BD465DF824
:1048A000047B7047D80400208005002080B483B0CA
:1048B00000AF78607B6803F108027B685A607B6810
:1048C0004FF0FF329A607B6803F108027B68DA6080
:1048D0007B6803F108027B681A617B6800221A601A
:1048E00000BF0C37BD465DF8047B704780B483B0D1
:1048F00000AF78607B6800221A6100BF0C37BD46AC
:104900005DF8047B704780B485B000AF7860396093
:104910007B685B68FB603B68FA685A60FB689A6872
:104920003B689A60FB689B683A685A60FB683A6823
:104930009A603B687A681A617B681B685A1C7B68BE
:104940001A6000BF1437BD465DF8047B704780B421
:1049500085B000AF786039603B681B68BB60BB689E
:10496000B3F1FF3F03D17B681B69FB600CE07B6800
:104970000833FB6002E0FB685B68FB60FB685B6818
:104980001B68BA689A42F6D2FB685A683B685A605C
:104990003B685B683A689A603B68FA689A60FB68B3
:1049A0003A685A603B687A681A617B681B685A1CCF
:1049B0007B681A6000BF1437BD465DF8047B704702
:1049C00080B485B000AF78607B681B69FB607B6852
:1049D0005B687A6892689A607B689B687A685268BC
:1049E0005A60FB685B687A689A4203D17B689A6870
:1049F000FB685A607B6800221A61FB681B685A1EBC
:104A0000FB681A60FB681B6818461437BD465DF8E2
:104A1000047B704780B584B000AF786039607B68F4
:104A2000FB60FB68002B0BD14FF0500383F3118820
:104A3000BFF36F8FBFF34F8FBB6000BF00BFFDE7B9
:104A400002F002F9FB681A68FB68DB6BF968096C15
:104A500001FB03F31A44FB689A60FB6800229A6327
:104A6000FB681A68FB685A60FB681A68FB68DB6BB6
:104A7000013BF968096C01FB03F31A44FB68DA6037
:104A8000FB68FF2283F84420FB68FF2283F845205F
:104A90003B68002B14D1FB681B69002B1AD0FB6804
:104AA0001033184601F042F90346002B12D00D4B8B
:104AB0004FF080521A60BFF34F8FBFF36F8F09E042
:104AC000FB6810331846FFF7F1FEFB6824331846E5
:104AD000FFF7ECFE02F0EAF8012318461037BD4656
:104AE00080BD00BF04ED00E080B58EB002AFF8607D
:104AF000B9607A603B60FB68002B0BD14FF050032C
:104B000083F31188BFF36F8FBFF34F8FBB6200BF7A
:104B100000BFFDE73B68002B0BD14FF0500383F340
:104B20001188BFF36F8FBFF34F8F7B6200BF00BF51
:104B3000FDE77B68002B02D0BB68002B01D001236E
:104B400000E00023002B0BD14FF0500383F31188BA
:104B5000BFF36F8FBFF34F8F3B6200BF00BFFDE716
:104B60007B68002B02D1BB68002B01D1012300E040
:104B70000023002B0BD14FF0500383F31188BFF3B8
:104B80006F8FBFF34F8FFB6100BF00BFFDE7502366
:104B90007B617B69502B0BD04FF0500383F311885E
:104BA000BFF36F8FBFF34F8FBB6100BF00BFFDE747
:104BB0007B693B68FB62FB6A002B0DD0FB6A01221C
:104BC00083F8462097F83820FB6A009313467A68EA
:104BD000B968F86800F005F8FB6A18463037BD463A
:104BE00080BD80B584B000AFF860B9607A60FB70BA
:104BF000BB68002B03D1BB69BA691A6002E0BB69CC
:104C00007A681A60BB69FA68DA63BB69BA681A64C1
:104C10000121B869FFF7FEFEBB69FA7883F84C20E2
:104C200000BF1037BD4680BD80B58EB000AFF860C4
:104C3000B9607A603B6000237B63FB683B633B6B3E
:104C4000002B0BD14FF0500383F31188BFF36F8F0C
:104C5000BFF34F8FBB6200BF00BFFDE7BB68002BF7
:104C600003D13B6B1B6C002B01D1012300E000231F
:104C7000002B0BD14FF0500383F31188BFF36F8FDC
:104C8000BFF34F8F7B6200BF00BFFDE73B68022B85
:104C900003D13B6BDB6B012B01D1012300E000232F
:104CA000002B0BD14FF0500383F31188BFF36F8FAC
:104CB000BFF34F8F3B6200BF00BFFDE701F0FCF97F
:104CC0000346002B02D17B68002B01D1012300E0B9
:104CD0000023002B0BD14FF0500383F31188BFF357
:104CE0006F8FBFF34F8FFB6100BF00BFFDE701F087
:104CF000ABFF3B6B9A6B3B6BDB6B9A4202D33B681F
:104D0000022B29D13A68B968386B00F00FFAF862C3
:104D10003B6B5B6A002B10D03B6B2433184601F0D1
:104D200005F80346002B13D03F4B4FF080521A601A
:104D3000BFF34F8FBFF36F8F0AE0FB6A002B07D0E2
:104D4000394B4FF080521A60BFF34F8FBFF36F8F14
:104D500001F0ACFF012363E07B68002B03D101F07D
:104D6000A5FF00235CE07B6B002B06D107F1140349
:104D7000184601F03FF801237B6301F097FF00F034
:104D8000A7FD01F061FF3B6B93F844305BB2B3F1D8
:104D9000FF3F03D13B6B002283F844203B6B93F829
:104DA00045305BB2B3F1FF3F03D13B6B002283F888
:104DB000452001F07BFF3A1D07F114031146184608
:104DC00001F02EF80346002B24D1386B00F0A6FA30
:104DD0000346002B18D03B6B10337A6811461846F7
:104DE00000F052FF386B00F031FA00F07FFD03460F
:104DF000002B7FF47CAF0C4B4FF080521A60BFF356
:104E00004F8FBFF36F8F72E7386B00F01FFA00F01F
:104E10006DFD6CE7386B00F019FA00F067FD0023B8
:104E200018463837BD4680BD04ED00E080B590B02F
:104E300000AFF860B9607A603B60FB68BB63BB6B36
:104E4000002B0BD14FF0500383F31188BFF36F8F0A
:104E5000BFF34F8FBB6200BF00BFFDE7BB68002BF5
:104E600003D1BB6B1B6C002B01D1012300E000239D
:104E7000002B0BD14FF0500383F31188BFF36F8FDA
:104E8000BFF34F8F7B6200BF00BFFDE73B68022B83
:104E900003D1BB6BDB6B012B01D1012300E00023AD
:104EA000002B0BD14FF0500383F31188BFF36F8FAA
:104EB000BFF34F8F3B6200BF00BFFDE701F0A4FFCF
:104EC000EFF311824FF0500383F31188BFF36F8F1C
:104ED000BFF34F8FFA61BB61FB697B63BB6B9A6B5E
:104EE000BB6BDB6B9A4202D33B68022B2FD1BB6BAF
:104EF00093F8453087F83330BB6B9B6BFB623A68A5
:104F0000B968B86B00F012F997F93330B3F1FF3F8D
:104F100012D1BB6B5B6A002B16D0BB6B24331846D7
:104F200000F004FF0346002B0ED07B68002B0BD053
:104F30007B6801221A6007E097F833300133DBB257
:104F40005AB2BB6B83F845200123FB6301E00023C9
:104F5000FB637B6B7B617B6983F3118800BFFB6B19
:104F600018464037BD4680BD80B58CB000AFF860B4
:104F7000B9607A600023FB62FB68BB62BB6A002BEE
:104F80000BD14FF0500383F31188BFF36F8FBFF342
:104F90004F8F3B6200BF00BFFDE7BB68002B03D112
:104FA000BB6A1B6C002B01D1012300E00023002B06
:104FB0000BD14FF0500383F31188BFF36F8FBFF312
:104FC0004F8FFB6100BF00BFFDE701F075F803469E
:104FD000002B02D17B68002B01D1012300E00023CC
:104FE000002B0BD14FF0500383F31188BFF36F8F69
:104FF000BFF34F8FBB6100BF00BFFDE701F024FE90
:10500000BB6A9B6B7B627B6A002B1FD0B968B86A56
:1050100000F0F6F87B6A5A1EBB6A9A63BB6A1B698A
:10502000002B0FD0BB6A1033184600F07FFE0346FA
:10503000002B07D03C4B4FF080521A60BFF34F8FCC
:10504000BFF36F8F01F032FE012369E07B68002B14
:1050500003D101F02BFE002362E0FB6A002B06D196
:1050600007F11003184600F0C5FE0123FB6201F0B2
:105070001DFE00F02DFC01F0E7FDBB6A93F8443003
:105080005BB2B3F1FF3F03D1BB6A002283F8442037
:10509000BB6A93F845305BB2B3F1FF3F03D1BB6A03
:1050A000002283F8452001F001FE3A1D07F11003AC
:1050B0001146184600F0B4FE0346002B23D1B86A0F
:1050C00000F016F90346002B17D0BB6A24337A6828
:1050D0001146184600F0D8FDB86A00F0B7F800F0A5
:1050E00005FC0346002B89D10F4B4FF080521A600C
:1050F000BFF34F8FBFF36F8F80E7B86A00F0A6F859
:1051000000F0F4FB7AE7B86A00F0A0F800F0EEFBDC
:10511000B86A00F0EDF80346002B3FF46FAF0023B0
:1051200018463037BD4680BD04ED00E080B586B03E
:1051300000AFF860B9607A6000237B61FB689B6B0D
:105140003B61FB681B6C002B0DD1FB681B68002BBF
:105150004DD1FB689B68184600F0CCFF7861FB6876
:1051600000229A6043E07B68002B19D1FB685868E5
:10517000FB681B6C1A46B96802F034F9FB685A6880
:10518000FB681B6C1A44FB685A60FB685A68FB6832
:105190009B689A422BD3FB681A68FB685A6026E02A
:1051A000FB68D868FB681B6C1A46B96802F01AF9EC
:1051B000FB68DA68FB681B6C5B421A44FB68DA60C8
:1051C000FB68DA68FB681B689A4207D2FB689A683A
:1051D000FB681B6C5B421A44FB68DA607B68022B3D
:1051E00005D13B69002B02D03B69013B3B613B6928
:1051F0005A1CFB689A637B6918461837BD4680BD08
:1052000080B582B000AF786039607B681B6C002B82
:1052100018D07B68DA687B681B6C1A447B68DA609C
:105220007B68DA687B689B689A4203D37B681A685C
:105230007B68DA607B68D9687B681B6C1A463868C3
:1052400002F0D0F800BF0837BD4680BD80B584B0FD
:1052500000AF786001F0F8FC7B6893F84530FB7391
:1052600011E07B685B6A002B12D07B682433184600
:1052700000F05CFD0346002B01D000F035FEFB7B07
:10528000013BDBB2FB7397F90F30002BE9DC00E048
:1052900000BF7B68FF2283F8452001F007FD01F085
:1052A000D3FC7B6893F84430BB7311E07B681B69C7
:1052B000002B12D07B681033184600F037FD0346F0
:1052C000002B01D000F010FEBB7B013BDBB2BB73B7
:1052D00097F90E30002BE9DC00E000BF7B68FF226D
:1052E00083F8442001F0E2FC00BF1037BD4680BDCA
:1052F00080B584B000AF786001F0A6FC7B689B6B42
:10530000002B02D10123FB6001E00023FB6001F0D0
:10531000CDFCFB6818461037BD4680BD80B584B013
:1053200000AF786001F090FC7B689A6B7B68DB6B68
:105330009A4202D10123FB6001E00023FB6001F0EF
:10534000B5FCFB6818461037BD4680BD80B485B0FB
:1053500000AF786039600023FB6014E00F4AFB68FF
:1053600052F83330002B0BD10C49FB683A6841F8F6
:1053700033200A4AFB68DB0013447A685A6006E06F
:10538000FB680133FB60FB68072BE7D900BF00BF58
:105390001437BD465DF8047B704700BF80090020CC
:1053A00080B586B000AFF860B9607A60FB687B6159
:1053B00001F04AFC7B6993F844305BB2B3F1FF3FE4
:1053C00003D17B69002283F844207B6993F8453040
:1053D0005BB2B3F1FF3F03D17B69002283F8452024
:1053E00001F064FC7B699B6B002B06D17B69243345
:1053F0007A68B968184600F06DFC7869FFF726FFF7
:1054000000BF1837BD4680BD80B58EB004AFF860D0
:10541000B9607A603B607B6B002B0BD14FF050037F
:1054200083F31188BFF36F8FBFF34F8F3B6200BFD1
:1054300000BFFDE7BB6B002B0BD14FF0500383F394
:105440001188BFF36F8FBFF34F8FFB6100BF00BFA9
:10545000FDE7A8233B613B69A82B0BD04FF050031D
:1054600083F31188BFF36F8FBFF34F8FBB6100BF12
:1054700000BFFDE73B69BB6B002B1ED07B6B002B95
:105480001BD0BB6B7B627B6A7A6B1A637B6A0222DE
:1054900083F8A520002303937B6A029307F114038A
:1054A00001933B6B00933B687A68B968F86800F039
:1054B00051F8786A00F0F6F801E000237B617B691F
:1054C00018462837BD4680BD80B58CB004AFF86063
:1054D000B9603B601346FB80FB889B00184601F0D7
:1054E000D5FC78617B69002B0ED0A82001F0CEFCA2
:1054F000F861FB69002B03D0FB697A691A6305E048
:10550000786901F091FD01E00023FB61FB69002B4C
:1055100017D0FB69002283F8A520FA8800230393A3
:10552000FB690293FB6A0193BB6A00933B68B9680D
:10553000F86800F00FF8F86900F0B4F80123BB61D7
:1055400002E04FF0FF33BB61BB6918462037BD4610
:1055500080BD000080B588B000AFF860B9607A60A7
:105560003B603B6B186B7B689B001A46A52101F0E2
:10557000AFFE3B6B1A6B7B6803F18043013B9B00E2
:105580001344BB61BB6923F00703BB61BB6903F034
:105590000703002B0BD04FF0500383F31188BFF3A8
:1055A0006F8FBFF34F8F7B6100BF00BFFDE7BB680C
:1055B000002B1FD00023FB6112E0BA68FB69134483
:1055C00019783A6BFB69134434330A461A70BA6887
:1055D000FB6913441B78002B06D0FB690133FB6188
:1055E000FB690F2BE9D900E000BF3B6B002283F879
:1055F000432003E03B6B002283F83420BB6A372B47
:1056000001D93723BB623B6BBA6ADA623B6BBA6A79
:10561000DA643B6B00221A653B6B04331846FFF7D4
:1056200065F93B6B18331846FFF760F93B6B3A6B33
:105630001A61BB6AC3F138023B6B9A613B6B3A6BF0
:105640005A623B6B0022C3F8A0203B6B002283F818
:10565000A4203B6B54334C220021184601F038FE45
:105660003B6B0D4A9A653B6B0C4ADA653B6B0C4A07
:105670001A663A68F968B86901F0B8F902463B6BF6
:105680001A60FB6A002B02D0FB6A3A6B1A6000BFFB
:105690002037BD4680BD00BF144C00207C4C00204C
:1056A000E44C002080B582B000AF786001F0CCFA05
:1056B0002D4B1B6801332C4A13602C4B1B68002BAD
:1056C00009D12A4A7B681360274B1B68012B10D134
:1056D00000F02EFC0DE0264B1B68002B09D1234B5C
:1056E0001B68DA6A7B68DB6A9A4202D81F4A7B68C9
:1056F0001360204B1B6801331E4A13601D4B1A6850
:105700007B685A647B68DA6A1B4B1B689A4203D930
:105710007B68DB6A184A13607B68DA6A13469B0071
:1057200013449B00154A1A447B68043319461046FB
:10573000FFF7E9F801F0BAFA0D4B1B68002B0ED009
:105740000A4B1B68DA6A7B68DB6A9A4207D20C4B09
:105750004FF080521A60BFF34F8FBFF36F8F00BFBF
:105760000837BD4680BD00BF940E0020C009002050
:10577000A00E0020B00E00209C0E0020C4090020C6
:1057800004ED00E080B584B000AF78600023FB60DA
:105790007B68002B18D0144B1B68002B0BD04FF0EC
:1057A000500383F31188BFF36F8FBFF34F8FBB603C
:1057B00000BF00BFFDE700F08BF80021786800F023
:1057C00009FD00F093F8F860FB68002B07D1074B48
:1057D0004FF080521A60BFF34F8FBFF36F8F00BF3F
:1057E0001037BD4680BD00BFBC0E002004ED00E0B8
:1057F00080B58AB004AF0023BB6000237B603A46CB
:10580000391D07F108031846FFF71CF839687B6853
:10581000BA68029201930023009300230A462449A8
:105820002448FFF7F1FD0346234A1360224B1B680F
:10583000002B02D001237B6101E000237B617B69A7
:10584000012B02D100F01AFD78617B69012B1BD17D
:105850004FF0500383F31188BFF36F8FBFF34F8F67
:105860003B6100BF154B1B685433154A1360154B41
:105870004FF0FF321A60144B01221A60134B0022C2
:105880001A6001F03DF90FE07B69B3F1FF3F0BD1E6
:105890004FF0500383F31188BFF36F8FBFF34F8F27
:1058A000FB6000BF00BFFDE700BF1837BD4680BDED
:1058B000747D0008015F0008B80E0020C0090020B8
:1058C00068000020B40E0020A00E0020980E0020DA
:1058D00080B400AF044B1B680133034A136000BF60
:1058E000BD465DF8047B7047BC0E002080B584B0D7
:1058F00000AF0023FB600023BB60424B1B68002B02
:105900000BD14FF0500383F31188BFF36F8FBFF3B8
:105910004F8F3B6000BF00BFFDE701F095F9394BA9
:105920001B68013B374A1360364B1B68002B62D162
:10593000354B1B68002B5ED02FE0344BDB68DB68F7
:10594000FB60FB6818331846FFF73AF8FB6804332E
:105950001846FFF735F8FB68DA6A2D4B1B689A4248
:1059600003D9FB68DB6A2A4A1360FB68DA6A1346CC
:105970009B0013449B00274A1A44FB6804331946D2
:105980001046FEF7C0FFFB68DA6A234B1B68DB6A30
:105990009A4202D3214B01221A601C4B1B68002B38
:1059A000CBD1FB68002B01D000F066FB1C4B1B68C1
:1059B0007B607B68002B10D000F046F80346002B7C
:1059C00002D0164B01221A607B68013B7B607B682A
:1059D000002BF1D1124B00221A60104B1B68002BD8
:1059E00009D00123BB600F4B4FF080521A60BFF308
:1059F0004F8FBFF36F8F01F059F9BB68184610370E
:105A0000BD4680BDBC0E0020940E0020540E002028
:105A10009C0E0020C4090020C0090020A80E002010
:105A2000A40E002004ED00E080B483B000AF054B6D
:105A30001B687B607B6818460C37BD465DF8047BAD
:105A4000704700BF980E002080B586B000AF0023DD
:105A50007B614F4B1B68002B40F090804D4B1B68C7
:105A600001333B614B4A3B6913603B69002B21D1F9
:105A7000494B1B681B68002B0BD04FF0500383F37E
:105A80001188BFF36F8FBFF34F8F3B6000BF00BF24
:105A9000FDE7414B1B68FB60404B1B683E4A1360AF
:105AA0003E4AFB6813603E4B1B6801333C4A13605F
:105AB00000F0E2FA3B4B1B683A699A4249D3364BF5
:105AC0001B681B68002B04D1364B4FF0FF321A6065
:105AD0003FE0314B1B68DB68DB68BB60BB685B6821
